:1000000096C10000BCC10000BAC10000B8C1000028
:10001000B6C10000B4C10000B2C10000B0C1000010
:10002000AEC100000C9464110C94151A0C94941A2F
:10003000A6C10000A4C10000A2C10000A0C1000030
:100040009EC100009CC100009AC1000098C1000040
:1000500096C1000094C1000092C100000C940815E4
:100060008EC100000C94C2160C94E9160C942B1748
:1000700086C1000084C1000082C1000080C1000070
:100080007EC100007CC100007AC1000078C1000080
:1000900076C1000074C1000072C1000070C1000090
:1000A0006EC100006CC100006AC1000000C2010006
:1000B0000100110011000C0000E100000A00250001
:1000C0002500210000960000190039003900360093
:1000D000127A00001F0046004600440080700000B5
:1000E00022004D004D004A00004B00003600750014
:1000F00075007200403800004A009C009C00990086
:10010000802500007200EC00EC00E900C012000045
:10011000E900DA01DA01D70160090000D701B6036E
:10012000B603B303B0040000B3036E076E076B079A
:10013000580200006E07DC0EDC0ED80E2C01000009
:10014000DC0EC11DC11DBE1D012302230423082393
:1001500080230129022904290829402680264029D4
:100160008029102320234023802F402F202F102F61
:10017000022F012F10292029402C7DFD7DFB7DF7CA
:100180007DEF7DDF7E7F7EBF7EDF7EEF7EFD7EFEAC
:100190007DFE0001040506070D0C0B0A09080A0B79
:1001A0000C0D0706050401000800010000FC011207
:1001B000000200000E02490022000057021C00212C
:1001C0000000200209002201007302210021010029
:1001D000400209000300009402040103090498028C
:1001E0003402030904CE022603030904F602300197
:1001F000C13601C02601C13601C03600120100021D
:1002000000000040C016860402010001000109023E
:100210004900020100C0320904000002030000028C
:10022000092111010001221C000705830340000180
:100230000705040340000109040100020300000354
:10024000092111010001222100070581034000015D
:100250000705020320000206ABFF0A0002A1017598
:1002600008150026FF00954009018102954009020A
:100270009102C006C9FF0904A15C7508150026FF9C
:10028000009540097581029520097691029504092F
:1002900076B102C00403090434035400650065000C
:1002A0006E00730079006400750069006E006F00D5
:1002B00020005200610077004800490044002000FF
:1002C00044006500760069006300650000002603B5
:1002D0005400650065006E007300790064007500CD
:1002E00069006E006F002000520061007700480036
:1002F000490044000000300345006D0075006C00AB
:100300006100740065006400200041007200640018
:10031000750069006E006F002000530065007200D8
:10032000690061006C0000009B0214179602112402
:100330001FBECFEFDAE0DEBFCDBF16E0A0E0B1E038
:10034000E6E7FDE302C005900D92A231B107D9F7AF
:1003500019E0A2E1B6E001C01D92AA32B107E1F7AF
:1003600013E0CCE2D3E004C02297FE010E94AB1E52
:10037000C832D107C9F70E94DB170C94AF1E40CEDC
:10038000FB01DC0102C001900D9241505040D8F7B2
:100390000895FB01DC018D91019080190110D9F3C2
:1003A000990B0895FB01DC0101900D920020E1F70B
:1003B0000895FB01DC014150504030F08D910190D7
:1003C000801919F40020B9F7881B990B0895BC0116
:1003D0008091BB078823C1F42BE0693B720778F05A
:1003E0008091BC079091BD079B01281B390BC90167
:1003F000845F914020F481E08093BB07089570935F
:10040000BD076093BC070895CB01A0E0B0E0209148
:10041000B3073091B4074091B5075091B607280F44
:10042000391F4A1F5B1F2093B3073093B4074093D3
:10043000B5075093B6078091B7079091B80701961A
:100440009093B8078093B7078091B9079091BA0746
:10045000009719F06817790720F47093BA07609332
:10046000B90708952091B7073091B80721153105D4
:1004700019F420E030E018C040E050E06091B3078C
:100480007091B4078091B5079091B6070E946C1ED9
:100490001092B3071092B4071092B5071092B607E6
:1004A0001092B8071092B707C90108952091B107BB
:1004B0003091B2072115310519F420E030E01DC05C
:1004C0006091AD077091AE078091AF079091B00732
:1004D00097FF03C020E030E004C040E050E00E94FD
:1004E0008E1E1092AD071092AE071092AF071092B9
:1004F000B0071092B2071092B107C9010895813078
:10050000910551F46F5F7F4F81F48EEB97E064E0CB
:1005100044E021E00C94C313892B39F46F5F7F4FC3
:1005200021F48EEB97E00C945B12089580E090E04C
:100530006FEF7FEFE4CF81E090E06FEF7FEFDFCFF1
:100540006091D60760958EEB97E00E949D12109205
:10055000D7071092D60708951F93182F8EEB97E0B8
:10056000612F0E949D122091D6073091D707210F4D
:10057000311D832F992787FD9A95820F931F9070C5
:100580009093D7078093D6071F9108950F931F93D9
:10059000DF93CF9300D000D000D0CDB7DEB79A83E1
:1005A00089834B835C836D837E838091830688235C
:1005B00031F08091E304E82FF0E00E94281480E1FC
:1005C000CBDF8981C9DFFE0131968181C5DF8E01D4
:1005D0000D5F1F4F8B81C0DFF8018181BDDFF80106
:1005E0008281BADFF8018381B7DFAADF8EEB97E063
:1005F0000E944C138091E304E82FF0E00E942E1437
:1006000026960FB6F894DEBF0FBECDBFCF91DF9117
:100610001F910F910895EF92FF920F931F93CF9325
:10062000DF93833809F49BC1843850F4823209F493
:1006300050C1853409F49BC2882309F422C10AC43D
:10064000863C09F494C2843E09F474C2813A09F0EC
:1006500001C4E0918206EE2309F4FCC32091DD077A
:10066000222361F48091B9079091BA071092BA07DA
:100670001092B9079093E3078093E2078091E20715
:100680009091E307009709F4E5C3223009F453C0C1
:10069000233030F4222371F0213009F0E7C027C065
:1006A000243009F490C0243008F469C0253009F0E2
:1006B000DDC0ADC0F0E0BF01660F771F0E94451E90
:1006C00080E090E07F70807090702227362F472F57
:1006D000582F04E1660F771F881F991F0A95D1F7DD
:1006E000262B372B482B592BE295E07FB2C0E33005
:1006F00008F4BCC0F0E0EE0FFF1FBF010E94451ED2
:1007000080E090E07F70807090702227362F472F16
:10071000582FA4E1660F771F881F991FAA95D1F75C
:10072000262B372B482B592B03E0EE0FFF1F0A9582
:10073000E1F7E2608EC0E53008F498C0F0E0EE0F1B
:10074000FF1FBF010E94451E80E090E07F70807017
:1007500090702227362F472F582FA4E1660F771F5E
:10076000881F991FAA95D1F7262B372B482B592B79
:1007700003E0EE0FFF1F0A95E1F7E4606AC0E7307F
:1007800008F474C0F0E0EE0FFF1FBF010E94451E89
:1007900080E090E07F70807090702227362F472F86
:1007A000582FA4E1660F771F881F991FAA95D1F7CC
:1007B000262B372B482B592B03E0EE0FFF1F0A95F2
:1007C000E1F7E66046C0E93008F450C0F0E0EE0F13
:1007D000FF1FBF010E94451E80E090E07F70807087
:1007E00090702227362F472F582FA4E1660F771FCE
:1007F000881F991FAA95D1F7262B372B482B592BE9
:1008000063E0EE0FFF1F6A95E1F7E86022C0EB306E
:1008100068F1F0E0EE0FFF1FBF010E94451E80E06F
:1008200090E07F70807090702227362F472F582FCE
:1008300014E1660F771F881F991F1A95D1F7262B91
:10084000372B482B592BB3E0EE0FFF1FBA95E1F77A
:10085000EA608E2F90E0A0E0B0E0282B392B4A2BE5
:100860005B2B80E093E0BA01A90190DE8091DD0767
:100870008F5F8093DD07833008F4ECC21092DD07B0
:10088000E9C28091DF07882319F08130B9F40BC0E9
:1008900040913706509138066091390670913A06BA
:1008A00080E191E00AC04091330650913406609196
:1008B00035067091360680E091E068DE8091DF07B2
:1008C0008F5F8093DF07823008F4C4C21092DF0785
:1008D000C1C28091B1079091B207029708F4BAC2E1
:1008E0008091DE07882351F4BDDD9093E707809364
:1008F000E607DCDD9093E5078093E4078091E60747
:100900009091E707009709F4A5C22091DE07222302
:1009100019F02130C9F40AC06AE070E00E94451E57
:10092000AB0160E070E080E192E00DC08091E407EF
:100930009091E5076AE070E00E94451EAB0160E01F
:1009400070E080E092E022DE8091DE078F5F80938E
:10095000DE07823008F47EC21092DE077BC28091EF
:10096000E007823009F49AC0833030F4882359F0CC
:10097000813009F0D4C044C0833009F4A6C084306B
:1009800009F0CDC0B9C08091DE04833009F0C7C042
:1009900020911D0630911E0640911F0650912006A1
:1009A00057FF17C0C90137FF03C0909581959F4F2E
:1009B00064E670E00E94591ECB01880F991F860FD4
:1009C000971F880F991FAA2797FDA095BA2FB06C83
:1009D00052C0C90137FF03C0909581959F4F64E6CF
:1009E00070E00E94591ECB01880F991F860F971F38
:1009F000880F991FAA2797FDA095BA2FB0683BC012
:100A00008091DE04833009F08AC02091190630916C
:100A10001A0640911B0650911C0657FF17C0C901CA
:100A200037FF03C0909581959F4F64E670E00E9468
:100A3000591ECB01880F991F860F971F880F991F8A
:100A4000AA2797FDA095BA2FB06415C0C90137FF3A
:100A500003C0909581959F4F64E670E00E94591EF7
:100A6000CB01880F991F860F971F880F991FAA2700
:100A700097FDA095BA2F8093D9079093DA07A0939A
:100A8000DB07B093DC074091D9075091DA076091FA
:100A9000DB077091DC0780E098E040C08091DE04C5
:100AA0008330E9F56091210670912206809123063A
:100AB000909124062AE030E040E050E00E948E1E33
:100AC00080E298E0BA01A90129C08091DE04833058
:100AD00031F5609125067091260680912706909148
:100AE000280624E130E040E050E00E94261EAB01E1
:100AF000BC0180E398E012C060912D0670912E0633
:100B000080912F069091300624E630E040E050E0DE
:100B10000E94261EAB01BC0180E498E037DD809185
:100B2000E0078F5F8093E007853008F493C110924F
:100B3000E00790C140911706552747FD5095209139
:100B400031063091320684E690E0BC01269FC00158
:100B5000279F900D369F900D1124480F591F440F69
:100B6000551F60E070E080E095E010DD73C180917A
:100B7000E107843009F4B0C0853058F48130C1F108
:100B8000813008F446C0823011F1833009F059C138
:100B90000DC0863009F4D8C0863008F4A8C087306C
:100BA00009F401C1883009F04CC13EC1E090AB07A7
:100BB000F090AC07C3E9D7E000E01DE720E030E0AB
:100BC000E0E0F0E040E053E86FEF7FEF7BC0E090C3
:100BD000A907F090AA07CFE7D7E0E0E0F0E040E017
:100BE00053E86FEF7FEF00E01DE720E030E04CC0FE
:100BF000E090A707F090A807CBE6D7E0E0E0F0E0B0
:100C000040E053E86FEF7FEF00E01DE720E030E0C9
:100C10001DC04091DF045091E00460E070E083E08B
:100C200091EF0EC188819981AA81BB8180179107BC
:100C3000A207B30714F48C019D01481759076A07EE
:100C40007B0714F4AC01BD0131962496EE15FF0527
:100C50004CF3401B510B620B730B80E097E0F0C02C
:100C600088819981AA81BB8180179107A207B30768
:100C700014F48C019D01481759076A077B0714F487
:100C8000AC01BD0131962496EE15FF054CF3401BD7
:100C9000510B620B730B80E197E0D2C08881998180
:100CA000AA81BB8180179107A207B30714F48C01B6
:100CB0009D01481759076A077B0714F4AC01BD0171
:100CC00031962496EE15FF054CF3401B510B620B39
:100CD000730B80E297E0B4C040917E0650917F068E
:100CE000609180067091810680E094E0A9C06091D7
:100CF0003B0670913C0680913D0690913E066C54F7
:100D00007F4F8F4F9F4F0E94371D2091E5043091F8
:100D1000E6044091E7045091E8040E949C1C0E9464
:100D2000091D2AE431E040E050E00E94261E655A89
:100D30007040804090402FEF30E040E050E00E9453
:100D40006C1E80E099E02CC060913F0670914006D7
:100D500080914106909142066C547F4F8F4F9F4F78
:100D60000E94371D2091E5043091E6044091E7048C
:100D70005091E8040E949C1C0E94091D2AE431E065
:100D800040E050E00E94261E655A7040804090402E
:100D90002FEF30E040E050E00E946C1E80E199E0CF
:100DA000BA01A9014DC080911206482F50E060E0C1
:100DB00070E04170507060707070E0914706F09183
:100DC0004806309771F12091490630914A06211565
:100DD000310539F18091E1049091E20401968F7020
:100DE0009070880F991F3370A5E0220F331FAA95CA
:100DF000E1F7822B932BA0E0B0E0482B592B6A2B14
:100E00007B2BCF0101979093480680934706892B4F
:100E100041F41092E2041092E10410924A061092FA
:100E2000490680E194E00CC04091DA045091DB0463
:100E30006091DC047091DD0477FD03C080E096E0F2
:100E4000A5DB8091E1078F5F8093E107893010F087
:100E50001092E107DF91CF911F910F91FF90EF90DA
:100E600008951F9311E012C08EEB97E00E9462126A
:100E7000982F8E3719F41093D80708C08091D8079F
:100E8000882321F0892FC7DB1092D8078EEB97E0DB
:100E90000E948312892B41F71F9108958EEB97E0F2
:100EA00040E051EE60E070E00C948D11CF92DF9243
:100EB000FF920F931F93DF93CF93CDB7DEB76C975D
:100EC0000FB6F894DEBF0FBECDBF6A01CA0160E065
:100ED00071E00E94A815882319F081E090E0D2C14A
:100EE000C6016EE071E00E94A815882319F082E027
:100EF00090E0C8C18E010F5F1F4FC80168E271E02A
:100F00000E946516C601B8010E94EE15F82EC801B0
:100F10000E94FF15FF2019F083E090E0B3C1C601E5
:100F200061E471E00E94A815882319F084E090E044
:100F3000A9C18E01085F1F4FC80167E571E00E94DB
:100F40006516C601B8010E94EE15F82EC8010E9470
:100F5000FF15FF2019F085E090E094C1C60163E71A
:100F600071E00E94A815882319F086E090E08AC1FC
:100F7000C60162E971E00E94A815882319F087E094
:100F800090E080C1C60163EB71E00E94A815882340
:100F900019F088E090E076C1C6016BEC71E00E9428
:100FA000A815882319F089E090E06CC1C60166EEAF
:100FB00071E00E94A815882319F08AE090E062C1D0
:100FC000C6016EEF71E00E94A815882319F08BE02E
:100FD00090E058C1C6016AE172E00E94A81588231A
:100FE00019F08DE090E04EC1C60165E372E00E9409
:100FF000A815882319F08EE090E044C1C6016DE485
:1010000072E00E94A815882319F08FE090E03AC1A1
:10101000C60169E672E00E94A815882319F080E1F4
:1010200090E030C1C6016CE772E00E94A8158823E9
:1010300019F081E190E026C1C60160E972E00E94EA
:10104000A815882319F082E190E01CC1C60165EA69
:1010500072E00E94A815882319F083E190E012C184
:10106000C6016BEB72E00E94A815882319F08FE689
:1010700090E008C1C60167ED72E00E94A8158823C0
:1010800019F080E790E0FEC0C60162EF72E00E94B6
:10109000A815882319F081E790E0F4C0C60166E046
:1010A00073E00E94A815882319F082E790E0EAC057
:1010B000C60163E273E00E94A815882319F083E754
:1010C00090E0E0C0C60162E473E00E94A8158823A6
:1010D00019F084E790E0D6C0C6016AE573E00E948B
:1010E000A815882319F085E790E0CCC0C60165E714
:1010F00073E00E94A815882319F086E790E0C2C02B
:10110000C6016FE873E00E94A815882319F087E7ED
:1011100090E0B8C0C6016AEA73E00E94A81588236F
:1011200019F084E190E0AEC0C6016DEB73E00E945F
:10113000A815882319F085E190E0A4C0C6016FECE2
:1011400073E00E94A815882319F084E690E09AC005
:10115000C60165EE73E00E94A815882319F085E6A4
:1011600090E090C0C6016DEF73E00E94A81588233F
:1011700019F086E690E086C0C6016FE074E00E9438
:10118000A815882319F089E590E07CC0C60160E2CB
:1011900074E00E94A815882319F088E790E072C0D7
:1011A000C60160E374E00E94A815882319F089E75E
:1011B00090E068C0C60163E474E00E94A81588232B
:1011C00019F08AE590E05EC0C60169E574E00E940E
:1011D000A815882319F08BE590E054C0C60168E794
:1011E00074E00E94A815882319F080E290E04AC0BC
:1011F000C60165E874E00E94A815882319F081E211
:1012000090E040C08E01015F1F4FC8016FE874E09D
:101210000E946516C601B8010E94EE15F82EC8019D
:101220000E94FF15FF2019F088E590E02BC0C60151
:1012300061EA74E00E94A815882319F086E590E021
:1012400021C0C6016DEB74E00E94A815882319F037
:1012500087E590E017C08E010A5E1F4FC80162ED5E
:1012600074E00E946516C601B8010E94EE15F82EC2
:10127000C8010E94FF15FF2019F48FEF93E002C010
:1012800080E090E090934A06809349066C960FB6F2
:10129000F894DEBF0FBECDBFCF91DF911F910F91AC
:1012A000FF90DF90CF9008958F929F92AF92BF9260
:1012B000CF92DF92FF920F931F93CF93DF93F62E7F
:1012C0004901C82EDD248601000F111F5801AC0C06
:1012D000BD1CE501CC0FDD1FCC0FDD1FC85AD74F59
:1012E00018828B819C818430910509F48EC08530F1
:1012F00091055CF48230910509F443C08330910577
:101300000CF0BFC09923C4F44FC28730910509F493
:1013100043C18830910544F48530910509F4DEC05D
:10132000069709F041C207C18830910509F47AC1D6
:10133000099709F039C2E7C18EEF681709F034C286
:1013400082E090E09C838B8380E790E0C89ED00190
:10135000C99EB00DD89EB00D1124A851B84F139658
:101360001C92139788E390E0C89EF001C99EF00D8F
:10137000D89EF00D1124EE0FFF1FE651F84F608349
:10138000A4C1E5E6E61788F489818F5F8983F501BA
:10139000EE0FFF1FEE0FFF1FE65AF74F80818F5FA2
:1013A0008083188281E090E02DC080E790E0C89EA5
:1013B000F001C99EF00DD89EF00D1124E851F84FB0
:1013C00063831D8280818627282F2295207F2827EE
:1013D00030E0522F4427C90163E0880F991F6A95B6
:1013E000E1F748275927818190E04827592784E071
:1013F000359527958A95E1F74227532751834083F6
:1014000084E090E09C838B83CFC18CE190E0C89E08
:10141000F001C99EF00DD89EF00D1124EE0FFF1FB4
:10142000EE0FFF1FE451F84F608380E790E0C89E05
:10143000F001C99EF00DD89EF00D1124E851F84F2F
:1014400080818627282F2295207F282730E0522F61
:101450004427C901B3E0880F991FBA95E1F74827DF
:101460005927818190E048275927A4E03595279591
:10147000AA95E1F7422753275183408383E090E008
:10148000C1CF80E790E0C89EF001C99EF00DD89EC4
:10149000F00D1124E851F84F658380818627282FAD
:1014A0002295207F282730E0522F4427C90163E08E
:1014B000880F991F6A95E1F748275927818190E0A5
:1014C0004827592704E0359527950A95E1F74227E3
:1014D00053275183408385E090E094CF80E790E0EC
:1014E000C89EF001C99EF00DD89EF00D1124E85160
:1014F000F84F668380818627282F2295207F282712
:1015000030E0522F4427C901B3E0880F991FBA95E4
:10151000E1F748275927818190E048275927A4E01F
:1015200035952795AA95E1F74227532751834083A4
:1015300086E090E067CF80E790E0C89EF001C99E0A
:10154000F00DD89EF00D1124E851F84F678380818B
:101550008627282F2295207F282730E0522F4427E6
:10156000C90163E0880F991F6A95E1F74827592759
:10157000818190E04827592794E0359527959A95E1
:10158000E1F742275327518340838381882309F45D
:1015900046C087E090E036CF6D81F80183E0EE0F22
:1015A000FF1F8A95E1F7E01BF10B319603E0EE0F88
:1015B000FF1F0A95E1F7E60FF11DE851F84FF082A1
:1015C0006F5F6D8380E790E0C89EF001C99EF00DCB
:1015D000D89EF00D1124E851F84F80818F25282FD7
:1015E0002295207F282730E0522F4427C901B3E0FD
:1015F000880F991FBA95E1F748275927818190E014
:1016000048275927A4E035952795AA95E1F7422761
:101610005327518340838381681709F0C5C088E050
:1016200090E0F0CE80E790E0C89ED001C99EB00D5A
:10163000D89EB00D1124A851B84F9C911796EC91EB
:101640001797F0E0EF50FB4F80818927482F429594
:10165000407F482750E0342F2227CA01E3E0880F5B
:10166000991FEA95E1F72827392711968C91119750
:1016700090E02827392774E0559547957A95E1F74A
:101680002427352711963C932E93862F90E03070B7
:1016900082179307F9F0F501EE0FFF1FEE0FFF1F02
:1016A000E65AF74F80818F5F8083188281E090E057
:1016B0009C838B83FEEFFF1609F076C082E090E0FA
:1016C0009C838B8313961C9213978FEF9FEF8D93C0
:1016D0009C936AC089E090E09C838B83F80153E07F
:1016E000EE0FFF1F5A95E1F7E01BF10B319643E037
:1016F000EE0FFF1F4A95E1F78D81E80FF11DE851CC
:10170000F84F608351C0262F30E080E790E0C89EFC
:10171000B001C99E700DD89E700D11246851784F8C
:10172000FB01818190E028173907E9F0F501EE0F00
:10173000FF1FEE0FFF1FE65AF74F80818F5F8083F8
:10174000188281E090E09C838B83FEEFFF1661F5A9
:1017500082E090E09C838B83EB011B828FEF9FEFF5
:101760009983888321C081E0888381E090E09C8315
:101770008B83F80123E0EE0FFF1F2A95E1F7E01BB2
:10178000F10B319693E0EE0FFF1F9A95E1F78D81F3
:10179000E80FF11DE751F84FF082DA01FB0180E715
:1017A00001900D928150E1F7D601AA0FBB1FAC0D3D
:1017B000BD1DAA0FBB1FAA0FBB1FA85AB74F8C9104
:1017C000813069F58CE190E0C89EF001C99EF00D72
:1017D000D89EF00D1124EE0FFF1FEE0FFF1FE451F6
:1017E000F84F808116968C93169718968D919C9140
:1017F0001997892B21F41B961C921E921A97F601B9
:10180000EE0FFF1FEC0DFD1DEE0FFF1FEE0FFF1F74
:10181000E85AF74F80859185019691878087F60178
:10182000EE0FFF1FEC0DFD1DEE0FFF1FEE0FFF1F54
:10183000DF01A85AB74F16968C9116978F5FE40177
:101840008E8318968D919C91199799878887E65A6F
:10185000F74F80818A871B8610828C91DF91CF9110
:101860001F910F91FF90DF90CF90BF90AF909F900E
:101870008F9008952F923F924F925F926F927F9236
:101880008F929F92AF92BF92CF92DF92EF92FF9290
:101890000F931F93DF93CF93CDB7DEB7C358D040DC
:1018A0000FB6F894DEBF0FBECDBFE4E1CE2ED12C33
:1018B000CC0EDD1E78E0272E312C2C0E3D1E6CE167
:1018C000A62EB12CAC0EBD1E55E0452E512C4E015E
:1018D0000894811C911C4FEF642E712C9EC281EBE9
:1018E00098E00E94A316682F80E0A6019101DCDC3D
:1018F000882309F492C28B8D8B3109F44CC18C3151
:1019000048F4813009F478C0813070F0883109F0F2
:1019100084C2D8C08A3409F433C28D3F09F44AC066
:101920008E3109F07AC2B9C120E0F601868590E0D7
:101930008078907008970CF021E020931206F60151
:1019400080859185A285B3858093DA049093DB042A
:10195000A093DC04B093DD040FB6F8948091AC083A
:101960009091AD08A091AE08B091AF080FBE8093E2
:10197000F3069093F406A093F506B093F6068091D3
:10198000F1069091F206019601969093F2068093EB
:10199000F10601970B9708F440C2F1E0F09383063B
:1019A0001092F2061092F1068091E304E82FF0E025
:1019B0004FD733C2ABE4B6E0F50183E301900D925B
:1019C0008150E1F7E0904B06E092E1041092E204CE
:1019D0005092480640924706C4016CE476E00E94AB
:1019E0006516FF2400E010E0C801B701A4015EDA2B
:1019F000C4010E94FF1511C2F60186899789909350
:101A0000140680931306208D318D30931606209393
:101A1000150626A1209317060E94E70120911506BE
:101A2000309116068091BB07882311F1C901AA27BE
:101A300097FDA095BA2F2091AD073091AE07409148
:101A4000AF075091B007280F391F4A1F5B1F209323
:101A5000AD073093AE074093AF075093B007809126
:101A6000B1079091B20701969093B2078093B107A6
:101A70008091130690911406F2E589309F0710F0CB
:101A800096E018C024E48D35920710F095E012C05E
:101A900031E38F3C930710F094E00CC0E1E2853312
:101AA0009E0710F093E006C08B59904110F490E02F
:101AB00001C092E080918206891708F0AEC1909330
:101AC0008206ABC1F501248D2093DE04858D8093C1
:101AD0001806FAE08F9FC0011124820F911DAA27DA
:101AE00097FDA095BA2F80937E0690937F06A093D2
:101AF0008006B0938106F601848D958D9695879525
:101B0000969587959093E0048093DF0401978F3F2B
:101B1000910520F07092E0046092DF04233091F58B
:101B2000F60180899189A289B389809319069093DF
:101B30001A06A0931B06B0931C0684899589A68972
:101B4000B78980931D0690931E06A0931F06B0933D
:101B50002006808D918DA28DB38D80932106909368
:101B60002206A0932306B093240680A191A1A0E0B1
:101B7000B0E08093250690932606A0932706B093A5
:101B800028064BC1109225061092260610922706B1
:101B90001092280642C1F601208931898091A70759
:101BA0009091A807853091052CF401969093A80791
:101BB0008093A707E7E7F7E080819181A281B38155
:101BC00084839583A683B783349787E0E736F80745
:101BD00099F7C9016AE070E00E94591E882777FDD5
:101BE0008095982F6483758386839783F50122857A
:101BF00033858091A9079091AA07853091052CF42F
:101C000001969093AA078093A907EBE8F7E08081FB
:101C10009181A281B38184839583A683B78334970E
:101C200087E0EB37F80799F7C9016AE070E00E9496
:101C3000591E882777FD8095982F64837583868346
:101C40009783F501248535858091AB079091AC078A
:101C5000853091052CF401969093AC078093AB07E7
:101C6000EFE9F7E080819181A281B381848395833C
:101C7000A683B783349787E0EF38F80799F7C9014F
:101C80006AE070E00E94591E882777FD8095982FA2
:101C90006483758386839783C0C0F50164817581F1
:101CA0008681978120E030E044E353E40E94C31D25
:101CB00029EF3FE049E450E40E949C1C0E94041D6F
:101CC00060933B0670933C0680933D0690933E06DE
:101CD000665A7F4F8F4F9F4F653B71058105910578
:101CE00090F4F601608971898289938920E030E05F
:101CF00044E353E40E94C31D29EF3FE049E450E46C
:101D00000E949C1C17C0F6016089718982899389A1
:101D100020E030E044E353E40E94C31D29EF3FE09C
:101D200049E450EC0E949C1C20E030E044E353E482
:101D30000E94381C0E94041D60933F067093400669
:101D40008093410690934206F501648575858685EA
:101D5000978529EF3FE049E450E40E94381C26E8CB
:101D600039EF42E253E40E94C31D0E94091D6093B3
:101D700043067093440680934506909346064DC0F3
:101D8000F50164817581868197810E94091D6093A8
:101D9000290670932A0680932B0690932C06F60151
:101DA000808D918DAA2797FDA095BA2F80932D063F
:101DB00090932E06A0932F06B0933006828D938DBC
:101DC0009093320680933106608971898289938964
:101DD00020E030E048EC52E40E94C31D0E94041D44
:101DE00060933306709334068093350690933606DD
:101DF000F501648575858685978520E030E048EC9F
:101E000052E40E94C31D0E94041D60933706709324
:101E100038068093390690933A0681EB98E06ED7A6
:101E2000892B09F05CCDCD57DF4F0FB6F894DEBF9C
:101E30000FBECDBFCF91DF911F910F91FF90EF901B
:101E4000DF90CF90BF90AF909F908F907F906F90DA
:101E50005F904F903F902F900895AF92CF92DF9276
:101E6000EF920F931F93DF93CF9300D000D000D059
:101E7000CDB7DEB7982FDA01DA82C9822B830C83C3
:101E8000ED82AE8228E0C22ED12CC40ED51E960162
:101E9000AE014F5F5F4F86E0FA010190AF01F9019B
:101EA00001929F018150C1F782E417968C93179796
:101EB0008EEF12968C93129786E013968C9313975D
:101EC00015969C93159716966C93169780915F08BC
:101ED00014968C9314978F5F80935F08FD0133965F
:101EE0004FEF5FEF6BE070E01BC081918427282FDC
:101EF0002295207F282730E0522F4427C901880FE0
:101F0000991F880F991F880F991F48275927402725
:101F1000512704E0359527950A95E1F74227532785
:101F200061507040052F11278FEF6F3F7807E9F65A
:101F300024E92427822F8295807F822790E0382F02
:101F40002227AC0163E0440F551F6A95E1F724276F
:101F5000352720273127F4E095958795FA95E1F705
:101F60002827392713968C911397F601E80FF11D56
:101F7000208313968C91C80ED11CF60131838EE01C
:101F800090E026960FB6F894DEBF0FBECDBFCF917E
:101F9000DF911F910F91EF90DF90CF90AF90089558
:101FA0006F927F928F929F92AF92CF92DF92EF9239
:101FB0000F930FB6F8948091AC089091AD08A09162
:101FC000AE08B091AF080FBE2091F7063091F80629
:101FD0004091F9065091FA06821B930BA40BB50BA6
:101FE0008D5D9540A040B04008F48DC00FB6F894C8
:101FF0008091AC089091AD08A091AE08B091AF0867
:102000000FBE8093F7069093F806A093F906B0935D
:10201000FA0680918306882309F075C08091E30455
:10202000E82FF0E015D48FEF6EEB4BEF56E021E098
:1020300001E0E2E0EE2E7AE0C72ED12CAA24A39490
:102040000CDF54E8652E56E0752E2091FE0630E038
:10205000285F3F4F4DEF842E46E0942EC301B4011C
:10206000A9010E94C0014091FE0650E0485F5F4F09
:1020700081EB98E0B30175D76AE070E080E090E012
:1020800007D58FEF6EEBA4014250504021E03BE0BA
:10209000E32EE3DE2091FE0630E0285F3F4FC301D0
:1020A000B401A9010E94C0014091FE0650E0485FC2
:1020B0005F4F81EB98E0B30154D76AE070E080E0B5
:1020C00090E0E6D48FEF6EEBA4014250504021E047
:1020D000EE24E394C2DE2091FE0630E0285F3F4FFD
:1020E000C301B401A9010E94C0014091FE0650E065
:1020F000485F5F4F81EB98E0B30133D78091E304F1
:10210000E82FF0E0ABD30FB6F8948091AC08909133
:10211000AD08A091AE08B091AF080FBE2091F306B4
:102120003091F4064091F5065091F606821B930B10
:10213000A40BB50B8D5D9540A040B04030F01092DF
:1021400083061092F2061092F10694DB0E9431078A
:102150000F91EF90DF90CF90AF909F908F907F90F6
:102160006F90089581EB98E062E270E04FEFC0D687
:1021700068EE73E080E090E08BD40E944E071092EE
:1021800083060FB6F8948091AC089091AD08A091A9
:10219000AE08B091AF080FBE8093F3069093F4069B
:1021A000A093F506B093F6060FB6F8948091AC08AC
:1021B0009091AD08A091AE08B091AF080FBE80938A
:1021C000F7069093F806A093F906B093FA061092DA
:1021D000F2061092F1068091E30401D3579A2598F4
:1021E0002D98EDE7F0E080818F7E808380E48093FE
:1021F000E90408950F931F93CF93DF93FC01778930
:1022000076957170A285B3859185772329F08C919D
:10221000892309F454C004C08C91892309F04FC06C
:102220008785908920E001972FEF8F3F9207D9F79C
:10223000C189D289A285B385118560E031E040E093
:1022400050E000E0CE01202F01972FEF8F3F920743
:10225000D9F78C91812311F0632B03C0832F8095D4
:102260006823330F4F5F5F4F4830510559F783891B
:10227000948920E001972FEF8F3F9207D9F77111D2
:1022800060958091A6082091A70890E001968F7331
:10229000907030E08217930779F0E091A608F0E0A3
:1022A000EA59F74F60838091A60890E001968F73FA
:1022B00090708093A60803C087898160878BDF9127
:1022C000CF911F910F9108951F920F920FB60F9209
:1022D00011242F933F934F935F936F937F938F932B
:1022E0009F93AF93BF93EF93FF9380916408909176
:1022F0006508009709F07EDFFF91EF91BF91AF91E4
:102300009F918F917F916F915F914F913F912F910D
:102310000F900FBE0F901F901895CF92DF92EF9203
:10232000FF920F931F93CF93DF93EC017A018B0100
:102330001E8A1D8A1C8A1B8A1A8A198A188A1F8675
:1023400020E030E06901CC0CDD1CC20ED31EB601CA
:10235000660F771F660F771FAB0144555F4FFA0179
:1023600085919591A591B4918E159F05A007B10710
:10237000E9F4FB01E055FF4F85919491988B8F878D
:10238000FB01EE54FF4F859194919A8B898BFB0151
:10239000EC54FF4F859194919C8B8B8BFB01EA54FD
:1023A000FF4F859194919E8B8D8B06C02F5F3F4F81
:1023B0002D30310509F0C6CF8B899C89892BA1F17D
:1023C0002885253020F0822F8D50833028F580918C
:1023D0006800816080936800253028F0822F8D503E
:1023E000833008F039C0EBE6F0E0ABE6B0E04081C6
:1023F000243048F0822F8D50833010F080E80AC0DE
:1024000030E02950304081E090E002C0880F991FF1
:102410002A95E2F7842B8C938D899E8920E0019781
:102420002FEF8F3F9207D9F780916408909165084C
:102430008C179D07B1F08F898E7F8F8B9FB7F89493
:102440001092A6088091A6088093A708D0936508EB
:10245000C09364089FBF05C0E0E0F0E0A0E0B0E0FA
:10246000C6CFDF91CF911F910F91FF90EF90DF903A
:10247000CF900895FC012085253020F0822F8D50CB
:102480008330C0F440916B00243048F0822F8D508F
:10249000833010F08FE70BC030E02950304081E0EE
:1024A00090E002C0880F991F2A95E2F78095842357
:1024B00080936B000895FC0185EF95E09183808304
:1024C000CF01D8CF209164083091650828173907CB
:1024D00031F49091A7088091A608981719F42FEF6E
:1024E0003FEF0FC0E091A708F0E0EA59F74F2081D5
:1024F0008091A70890E001968F7390708093A70851
:1025000030E0C901089520916408309165082817CA
:10251000390719F020E030E00EC08091A608209124
:10252000A70890E0805C9F4F821B910960E470E0F7
:102530000E94591E9C01C90108950F931F93DC014D
:1025400055968D919C915697892B31F481E0129686
:102550008C9320E030E097C00FB7F89457968C9199
:1025600057971D96ED91FC911E971C962C911C97E8
:1025700081FF8DC08081822B808355968D919C91A7
:102580005697059620E001972FEF8F3F9207D9F7D6
:1025900057968C91579781FF35C031E040E050E06D
:1025A00070E010E0832F90E0862397231D96ED9135
:1025B000FC911E971C962C911C97892B29F08081E9
:1025C00020952823208303C08081822B8083559609
:1025D0008D919C915697212F01972FEF8F3F920756
:1025E000D9F7330F4F5F5F4F48305105D9F61D962D
:1025F000ED91FC911E9790811C968C911C97809573
:10260000892333C031E040E050E070E010E0832FD8
:1026100090E0862397231D96ED91FC911E971C96C2
:102620002C911C97892B21F08081822B808304C000
:10263000808120952823208355968D919C915697D3
:10264000212F01972FEF8F3F9207D9F7330F4F5F5D
:102650005F4F48305105D9F61D96ED91FC911E97BC
:1026600080811C969C911C97892B80830FBF559667
:102670008D919C91569720E001972FEF8F3F920705
:10268000D9F721E030E0C9011F910F9108958081B1
:1026900020952823208371CF20916408309165080C
:1026A0002817390749F49FB7F8941092A60880912B
:1026B000A6088093A7089FBF0895209164083091D1
:1026C00065082817390731F49091A7088091A6086A
:1026D000981719F42FEF3FEF0AC0E091A708F0E038
:1026E000EA59F74F8081282F332727FD3095C901FC
:1026F0000895EF92FF920F931F937C01062F862F70
:102700006ED0E02FF0E0A4D010E0000F111F88E49D
:1027100091E0FC01E00FF11FE491D7011C96EC93CE
:102720001C970F5F1F4F800F911FFC01849190E059
:1027300002961E969C938E931D971F910F91FF906A
:10274000EF9008951F93CF93DF93EC01162F862F00
:1027500057D08F8981FD03C0E12FF0E079D0188731
:10276000812F90E0880F991FFC01E85BFE4FE491F8
:10277000E987875B9E4FFC0164916A871B86DF9126
:10278000CF911F910895FF920F931F938C01F62E06
:10279000FC01128288EE93E0A0E0B0E08383948392
:1027A000A583B683178285EF95E091838083108A95
:1027B0001786128A118A148A138A168A158A8789BB
:1027C0002170220F8C7F822B878BC801642F91DFB1
:1027D000C8016F2DB7DF1F910F91FF9008958931C8
:1027E00070F4E8E4F1E0880FE80FF11D9591E491B1
:1027F000F0E02FB7F8948181892B81832FBF089552
:10280000893128F5982F9B509C3020F0A0E0B0E053
:102810003FEF08C0EAE7F1E0990FE90FF11DA5913C
:10282000B0E03591E8E4F1E0880FE80FF11D9591F3
:10283000E491F0E02FB7F89481819095892381830A
:102840008281892382838C9183238C932FBF089567
:10285000E93150F4EE0FEB5CFB4E0994E93120F4C2
:10286000EE0FE959FB4E09940895289A0895299A84
:1028700008952A9A08952B9A08952F9A6AC0589A13
:1028800058C0599A08955A9A08955B9A0895469A9D
:1028900066C0479A6AC05E9A08955F9A6CC02C9A87
:1028A00008952D9A4AC02E9A4EC08F9A08958E9AF6
:1028B00008958D9A08958C9A0895899A0895889A12
:1028C00008955C9A08955D9A0895769A08952898D7
:1028D0000895299808952A9808952B9808952F9877
:1028E00038C0589826C0599808955A9808955B980A
:1028F0000895469834C0479838C05E9808955F9808
:102900003AC02C9808952D9818C02E981CC08F9806
:1029100008958E9808958D9808958C9808958998B3
:102920000895889808955C9808955D98089576981C
:102930000895E4B5EF7DE4BD0895E0918000EF7760
:10294000E09380000895E0918000EF7DE0938000A7
:102950000895E0918000E77FE09380000895E09182
:102960009000EF77E09390000895E091C000EF773A
:10297000E093C0000895E091C200E77FE093C200B9
:1029800008951DBA109268001CBC10BE1FBA1092A8
:102990007A0010926E0010926F00109271001092E7
:1029A00072001092C900ECEBF0E0108214B817B876
:1029B0001AB81DB810BA108215B818B81BB81EB8CE
:1029C00011BA0895F89484B7877F84BF809160001E
:1029D0008061809360001092600080E29EE4019725
:1029E000F1F781E08093E00080E28093D80080E6F8
:1029F0009AEE0197F1F7C5DF0C94003FFFCFF894F2
:102A0000C0DF80E69AEE0197F1F70C940000FFCF4B
:102A10008F938FB78F938091B0088D5F8D37D0F4EF
:102A20008093B0088091AC088F5F8093AC08D8F099
:102A30008091AD088F4F8093AD08A8F08091AE08CB
:102A40008F4F8093AE0878F08091AF088F4F8093BE
:102A5000AF0809C08D578093B0088091AC088E5F95
:102A60008093AC0828F78091A8088C5F8093A80811
:102A700058F08091A9088F4F8093A90828F0809181
:102A8000AA088F4F8093AA088F918FBF8F911895B6
:102A90009B01AC0114D0FB010CC011D06E1B7F0B4D
:102AA000685E7340D0F32150304040405040E851C0
:102AB000FC4F211531054105510579F708950FB6F1
:102AC000F89466B515B27091A8088091A908909104
:102AD000AA080FBE10FE05C06F3F19F07C5F8F4F34
:102AE0009F4F11240024660F001C660F001C7029E4
:102AF0000895F894E1E6F0E020E82083108283E076
:102B000084BD85BDEEE6F0E080818160808391E048
:102B10009093800082E08093810090939000809356
:102B200091008093C00084E08093C1009093C20024
:102B30009093C3001092C40086E880937A0020939B
:102B40007B0010927E0010927D0045D47894089509
:102B5000DC01FB0114968D919C911597892B31F422
:102B600061157105A9F090E0808108C00D90BC91BD
:102B7000A02D6115710529F490E08C91882349F40A
:102B800007C0CD010E94C9019C0190E0232B09F4EC
:102B900091E0892F0895FC01DB0114962D913C9161
:102BA000159784819581821B930B84179507A0F05C
:102BB00080819181009781F06D917C916115710503
:102BC00059F0840F951FA9010E94D9019C0180E052
:102BD000232B19F481E0089580E00895FC01DB01C6
:102BE0002481358114968D919C911597281739076A
:102BF00010F480E00895CF0140E050E0CCCFFC011C
:102C0000808191817AC20F931F93CF93DF93EC0160
:102C10008B016F5F7F4F8881998107D3009711F4F3
:102C200080E005C0998388831B830A8381E0DF915C
:102C3000CF911F910F910895CF93DF93EC018A817B
:102C40009B818617970758F4CE01DDDF882341F07A
:102C50008C819D81892B19F4E881F981108281E0B2
:102C6000DF91CF910895EF92FF920F931F93CF932F
:102C7000DF93EC017B018A014115510531F4E881B4
:102C8000F981309789F010820FC0BA01D5DF288111
:102C90003981882361F42115310521F0C9012DD234
:102CA000198218821B821A821D821C8206C01D8313
:102CB0000C83C901B7010E94D201CE01DF91CF91EF
:102CC0001F910F91FF90EF900895CF93DF93EC0148
:102CD000198218821B821A821D821C821E82611533
:102CE000710549F0DB010D900020E9F71197A61B53
:102CF000B70BAD01B8DFDF91CF9108959091E40853
:102D00008091E508292F30E0482F50E0981710F403
:102D1000205C3F4F241B350BC90108958091E408C6
:102D2000E091E5088E1719F4EFEFFFEF0AC0EF5FAF
:102D3000E03408F0E0E0F0E0EA51F74F8081E82F5E
:102D4000F0E0CF0108959091E4088091E50898178C
:102D500019F42FEF3FEF0FC02091E5082F5F2034CB
:102D600008F020E0E22FF0E0EA51F74F8081209355
:102D7000E508282F30E0C90108958091B90888231B
:102D8000E1F708951F920F920FB60F9211242F931F
:102D90008F939F93EF93FF932091CE009091E4083F
:102DA0009F5F903408F090E08091E508981739F023
:102DB000E92FF0E0EA51F74F20839093E408FF9168
:102DC000EF919F918F912F910F900FBE0F901F90B9
:102DD00018951F920F920FB60F9211248F939F9305
:102DE000EF93FF939091BA088091BB08981721F454
:102DF00088ED8093C9000FC09091BB089F5F983207
:102E000008F090E0E92FF0E0E454F74F80818093E0
:102E1000CE009093BB08FF91EF919F918F910F90FF
:102E20000FBE0F901F9018951092B30888EE93E094
:102E3000A0E0B0E08093B4089093B508A093B608E2
:102E4000B093B7081092B80885E096E09093B20866
:102E50008093B10808951F920F920FB60F9211241C
:102E60008F93EF93FF931092B9088091EA048F3FFC
:102E700029F08091EA04E82FF0E0F0DCFF91EF9177
:102E80008F910F900FBE0F901F901895FC018091AD
:102E9000C90083FD05C081E0828320E030E026C0C8
:102EA0008091EA048F3F49F08091B908882329F482
:102EB0008091EA04E82FF0E0CBDC9091BA089F5FA4
:102EC000983208F090E08091BB088917E1F3E92F70
:102ED000F0E0E454F74F608381E08093B908909369
:102EE000BA0888EF8093C90021E030E0C901089555
:102EF0001F93CF93DF93EB01142F4093EA044F3FCE
:102F000029F0842F6CDCE12FF0E0A8DCC0FF08C0C2
:102F100080E1C130D80720F482E08093C80004C06B
:102F20001092C800D695C7952197D093CD00C09335
:102F3000CC008091C90083FD10C01092E40810926B
:102F4000E5081092BA081092BB081092B90886E002
:102F50008093CA0088ED8093C900DF91CF911F91C3
:102F60000895CF92DF92EF92FF920F931F93CF932A
:102F7000DF937C016B018A01C0E0D0E00FC0D60175
:102F80006D916D01D701ED91FC910190F081E02DE3
:102F9000C7010995C80FD91F01501040011511052F
:102FA00071F7CE01DF91CF911F910F91FF90EF90BC
:102FB000DF90CF9008959DDDD5D80E94D00FFDCF32
:102FC0000F931F93CF93DF93BC018230910510F4D0
:102FD00062E070E0E0912809F0912909A0E0B0E0FA
:102FE00040E050E024C08081918186179707D0F09F
:102FF0008617970771F482819381109729F01396B1
:103000009C938E9312972CC0909329098093280942
:1030100027C04115510519F08417950718F4EF01E1
:103020008D01AC01DF01828193819C01F901309710
:10303000D1F641155105F9F0CA01861B970B843072
:10304000910580F48A819B810115110521F0F80119
:103050009383828304C09093290980932809FE01F9
:10306000329645C0FE01E80FF91F619371930297F4
:10307000998388833CC08091260990912709892BE8
:1030800041F48091ED049091EE0490932709809390
:1030900026094091EF045091F0044115510541F487
:1030A0004DB75EB78091EB049091EC04481B590B2F
:1030B000209126093091270924173507B0F4CA0159
:1030C000821B930B8617970780F0AB014E5F5F4F13
:1030D0008417950750F0420F531F509327094093D0
:1030E0002609F9016193719302C0E0E0F0E0CF019D
:1030F000DF91CF911F910F910895CF93DF939C01A2
:10310000009709F48FC0EC0122971B821A8260910C
:103110002809709129096115710581F488819981C7
:10312000820F931F2091260930912709281739070C
:1031300039F5D0932709C093260974C0DB0140E01C
:1031400050E0AC17BD0708F1BB83AA83FE012191B3
:103150003191E20FF31FAE17BF0779F48D919C9167
:103160001197280F391F2E5F3F4F398328831296FE
:103170008D919C9113979B838A834115510571F41E
:10318000D0932909C09328094DC012968D919C9126
:103190001397AD01009711F0DC01D3CFDA0113963C
:1031A000DC93CE931297FA0121913191E20FF31F34
:1031B000CE17DF0769F488819981280F391F2E5FA8
:1031C0003F4FFA01318320838A819B8193838283DD
:1031D000E0E0F0E0DB0112968D919C91139700974F
:1031E00019F0BC01FD01F6CFAB014E5F5F4FDB0173
:1031F0008D919C91840F951F20912609309127096C
:103200002817390779F4309729F410922909109278
:10321000280902C01382128242505040509327095D
:1032200040932609DF91CF9108956F927F928F92FC
:103230009F92AF92BF92CF92DF92EF92FF920F9345
:103240001F93CF93DF938C01009721F4CB01B8DE5D
:103250008C01B1C08EEFE82E8FEFF82EE00EF11E3C
:103260004801860E971E8E149F0408F4A2C0D70151
:103270004D915C91119746175707B0F045305105B5
:1032800008F499C0CA0104978617970708F493C0F9
:1032900042505040461B570BF401419351936D939C
:1032A0007C93CF012ADF87C05B01A41AB50A3801DD
:1032B000640E751EA0912809B0912909E0E0F0E0A4
:1032C000CC24DD2447C0A615B705A9F5CD91DC9126
:1032D0001197CE0102968A159B0568F1CE018A19D5
:1032E0009B09029612962C91129713963C91059782
:1032F00058F0F40122833383CA19DB09D183C083D8
:10330000D7016D937C9309C04E5F5F4F4C0F5D1FDB
:10331000F70151834083C901FC01C114D10431F08C
:10332000D6011396FC93EE93129745C0F0932909AA
:10333000E093280940C08D919C911197E817F907F7
:1033400008F4FC016D0112968C91129713969C91D2
:103350009C01D901109709F0B6CF80912609909170
:10336000270986159705B1F4E617F70798F48DB786
:103370009EB72091EB043091EC04821B930B8816CE
:103380009906B8F49092270980922609F701718373
:10339000608311C0CB0114DEEC01009751F0D7011E
:1033A0004D915C91B8010E94C001C801A6DE8E015A
:1033B00002C000E010E0C801DF91CF911F910F9192
:1033C000FF90EF90DF90CF90BF90AF909F908F9045
:1033D0007F906F9008958091D80087FF02C085FF8D
:1033E00023C081E08093D70080EA8093D80082E1F7
:1033F00089BD09B400FEFDCF80E98093D80010920A
:10340000E00010922A0910922B0910922C091092B8
:103410002E0910922D091092300910922F09109246
:10342000E1008CE08093E20008951F920F920FB6A6
:103430000F9211242F938F939F938091E10010920C
:10344000E100282F83FF0FC01092E90081E08093F4
:10345000EB001092EC0082E38093ED0088E0809313
:10346000F00010922A0922FF36C080912A09882391
:1034700091F180912C09882391F0815080932C093F
:10348000882369F481E08093E90002C01092F10082
:103490008091E80085FDFACF8AE38093E80080916F
:1034A0002D0990912E09982F882339F09150892F5A
:1034B00090E090932E0980932D0980912F0990918F
:1034C0003009982F882339F09150892F90E09093FC
:1034D000300980932F0920FF0CC080E18093E20027
:1034E00010922A0981E080932B0980EA8093D8000A
:1034F00019BC80912B09882379F024FF0DC082E14B
:1035000089BD09B400FEFDCF80E98093D8008DE02D
:103510008093E20010922B099F918F912F910F9031
:103520000FBE0F901F9018951F920F920FB60F921B
:1035300011242F933F934F935F936F937F938F93B8
:103540009F93AF93BF93EF93FF931092E900809105
:10355000E80083FF78C13091F1009091F100609113
:10356000F1007091F1004091F1005091F100A091B3
:10357000F100B091F10082EF8093E800963009F0FD
:1035800044C0E9EAF1E020E085919591861797071C
:1035900011F0359617C0859195918417950711F014
:1035A000339610C0259135914491CD01AF3FB105BF
:1035B00019F010F08FEF90E0841708F4482FF9010C
:1035C0005EEF04C02F5F2A30F9F63DC18091E8001C
:1035D000282F30E0C90185709070892BB9F322FD46
:1035E00035C1242F413408F020E4922F04C0859186
:1035F0008093F10091509923D1F7421B5093E8003A
:10360000442321F7203411F321C1953061F48EEF6A
:103610008093E8008091E80080FFFCCF862F8068CF
:103620008093E30013C19930F9F4332309F06CC09F
:1036300060932A0910922C098EEF8093E800EFEE38
:10364000F1E091E09093E90085918093EB0088236D
:1036500031F085918093EC0085918093ED009F5F20
:10366000953081F78EE14BC0983061F4303809F025
:103670004BC08091E80080FFFCCF80912A098093A5
:10368000F1007BC09923D1F48091E80080FFFCCF4A
:10369000323811F080E00DC04093E9008091EB00DA
:1036A00090E025E0969587952A95E1F78170109234
:1036B000E9008093F1001092F1005FC0913011F0A9
:1036C000933011F5323001F561157105E9F4242FBD
:1036D0002F77822F81508530B8F48EEF8093E800E9
:1036E0002093E900933009F4AEC089E18093EB00A8
:1036F00081E090E002C0880F991F2A95E2F780933D
:10370000EA001092EA00A2C041155105D1F5313A04
:1037100019F5913009F08BC040E45EEF8091E8002C
:10372000282F30E0C90185709070892BB9F322FDF4
:103730008DC0942F413408F090E4892F03C010927B
:10374000F10081508823D9F7491B5093E8004423A6
:1037500029F7903419F37AC0313209F068C09930F2
:1037600009F065C08091E80082FFFCCF8BEF809369
:10377000E8008091E80080FFFCCF8EEF8093E800A6
:1037800065C04130510509F052C0913019F5313A08
:1037900009F059C04A2F5EEF8091E800282F30E0F1
:1037A000C90185709070892BB9F322FD4FC0942F09
:1037B000413408F090E4892F03C01092F100815049
:1037C0008823D9F7491B5093E800442329F7903404
:1037D00019F33CC0993059F53132A9F56050734066
:1037E00091F5149781F58091E80082FFFCCF9091CC
:1037F000F1002091F1003091F1004091F1008BEF48
:103800008093E8008EEF8093E800993A39F42534EC
:10381000D1F4323CC1F44B36B1F4D4D89B3899F48E
:10382000253C89F43D3179F4403769F40BC0993C6B
:1038300051F4303441F48EEF8093E8008091E80039
:1038400080FFFCCFDCD881E28093EB00FF91EF9109
:10385000BF91AF919F918F917F916F915F914F91A8
:103860003F912F910F900FBE0F901F9018955058B9
:10387000BB27AA270ED04DC13ED130F043D120F056
:1038800031F49F3F11F41EF433C10EF4E095E7FBD1
:1038900029C1E92F4FD180F3BA1762077307840754
:1038A000950718F071F49EF567C10EF4E0950B2EA4
:1038B000BA2FA02D0B01B90190010C01CA01A00182
:1038C0001124FF27591B99F0593F50F4503E68F1DD
:1038D0001A16F040A22F232F342F4427585FF3CF1E
:1038E000469537952795A795F0405395C9F77EF4EF
:1038F0001F16BA0B620B730B840BBAF09150A1F038
:10390000FF0FBB1F661F771F881FC2F70EC0BA0FBD
:10391000621F731F841F48F4879577956795B79545
:10392000F7959E3F08F0B3CF9395880F08F099273D
:10393000EE0F9795879508950CD0EBC0E3D040F03B
:10394000DAD030F021F45F3F19F0CCC0511115C12D
:10395000CFC0F0D098F39923C9F35523B1F3951B49
:10396000550BBB27AA2762177307840738F09F5FA0
:103970005F4F220F331F441FAA1FA9F333D00E2E0F
:103980003AF0E0E830D091505040E695001CCAF77C
:1039900029D0FE2F27D0660F771F881FBB1F261741
:1039A00037074807AB07B0E809F0BB0B802DBF0114
:1039B000FF2793585F4F2AF09E3F510568F092C051
:1039C000DCC05F3FECF3983EDCF386957795679516
:1039D000B795F7959F5FC9F7880F911D96958795C5
:1039E00097F90895E1E0660F771F881FBB1F6217E4
:1039F00073078407BA0720F0621B730B840BBA0BA2
:103A0000EE1F88F7E095089504D06894B111B5C011
:103A1000089598D088F09F5790F0B92F9927B75103
:103A2000A0F0D1F0660F771F881F991F1AF0BA9582
:103A3000C9F712C0B13081F09FD0B1E008959CC0A9
:103A4000672F782F8827B85F39F0B93FCCF3869578
:103A500077956795B395D9F73EF4909580957095D5
:103A600061957F4F8F4F9F4F0895E89409C097FB52
:103A70003EF490958095709561957F4F8F4F9F4F45
:103A80009923A9F0F92F96E9BB279395F695879589
:103A900077956795B795F111F8CFFAF4BB0F11F44C
:103AA00060FF1BC06F5F7F4F8F4F9F4F16C08823F3
:103AB00011F096E911C0772321F09EE8872F762F29
:103AC00005C0662371F096E8862F70E060E02AF06A
:103AD0009A95660F771F881FDAF7880F9695879556
:103AE00097F9089597F99F6780E870E060E008957E
:103AF0009FEF80EC089500240A9416161706180606
:103B00000906089500240A941216130614060506E1
:103B10000895092E0394000C11F4882352F0BB0F72
:103B200040F4BF2B11F460FF04C06F5F7F4F8F4FD5
:103B30009F4F089557FD9058440F551F59F05F3F10
:103B400071F04795880F97FB991F61F09F3F79F0BF
:103B500087950895121613061406551FF2CF469541
:103B6000F1DF08C0161617061806991FF1CF8695C3
:103B70007105610508940895E894BB2766277727A7
:103B8000CB0197F908950BD0C4CFB5DF28F0BADF89
:103B900018F0952309F0A6CFABCF1124EECFCADFE2
:103BA000A0F3959FD1F3950F50E0551F629FF00150
:103BB000729FBB27F00DB11D639FAA27F00DB11DA9
:103BC000AA1F649F6627B00DA11D661F829F222732
:103BD000B00DA11D621F739FB00DA11D621F839FB9
:103BE000A00D611D221F749F3327A00D611D231F8F
:103BF000849F600D211D822F762F6A2F11249F57DD
:103C000050408AF0E1F088234AF0EE0FFF1FBB1FFF
:103C1000661F771F881F91505040A9F79E3F51059E
:103C200070F060CFAACF5F3FECF3983EDCF386954F
:103C300077956795B795F795E7959F5FC1F7FE2B49
:103C4000880F911D9695879597F90895629FD001E9
:103C5000739FF001829FE00DF11D649FE00DF11D47
:103C6000929FF00D839FF00D749FF00D659FF00DF6
:103C70009927729FB00DE11DF91F639FB00DE11DE3
:103C8000F91FBD01CF0111240895AA1BBB1B51E1EF
:103C900007C0AA1FBB1FA617B70710F0A61BB70BBC
:103CA000881F991F5A95A9F780959095BC01CD0161
:103CB000089597FB092E07260AD077FD04D0E5DF8B
:103CC00006D000201AF4709561957F4F0895F6F79D
:103CD000909581959F4F0895A1E21A2EAA1BBB1BB8
:103CE000FD010DC0AA1FBB1FEE1FFF1FA217B307C8
:103CF000E407F50720F0A21BB30BE40BF50B661FDE
:103D0000771F881F991F1A9469F7609570958095A1
:103D100090959B01AC01BD01CF01089597FB092E41
:103D200005260ED057FD04D0D7DF0AD0001C38F48A
:103D300050954095309521953F4F4F4F5F4F0895D7
:103D4000F6F790958095709561957F4F8F4F9F4FB7
:103D50000895EE0FFF1F0590F491E02D099413E0F4
:103D6000CCE2D3E003C0FE01F6DF2296CE32D107CB
:063D7000D1F7F894FFCF2B
:103D760041524D494E47204D4F544F5253005072B9
:103D86006541726D3A205243206E6F742063616CF8
:103D9600696272617465640050726541726D3A20A1
:103DA6004261726F206E6F74206865616C74687909
:103DB6000050726541726D3A20416C7420646973DB
:103DC6007061726974790050726541726D3A204370
:103DD6006F6D70617373206E6F74206865616C74AB
:103DE60068790050726541726D3A20436F6D70615B
:103DF6007373206E6F742063616C6962726174659F
:103E0600640050726541726D3A20436F6D70617344
:103E160073206F66667365747320746F6F206869AC
:103E260067680050726541726D3A20436865636B3E
:103E3600206D6167206669656C6400507265417229
:103E46006D3A20494E53206E6F742063616C69622F
:103E560072617465640050726541726D3A20494E14
:103E660053206E6F74206865616C746879005072B7
:103E76006541726D3A20436865636B20426F6172DB
:103E86006420566F6C746167650050726541726D8F
:103E96003A20436865636B2046535F5448525F5629
:103EA600414C55450050726541726D3A2043686534
:103EB600636B20414E474C455F4D4158005072653B
:103EC60041726D3A204143524F5F42414C5F524F1F
:103ED6004C4C2F50495443480050726541726D3A1C
:103EE6002047505320476C697463680050726541DF
:103EF600726D3A204E656564203344204669780029
:103F060050726541726D3A204261642056656C6F4D
:103F1600636974790050726541726D3A2048696729
:103F260068204750532048444F50005072654172F4
:103F36006D3A20416363656C7320696E636F6E73BF
:103F4600697374656E740050726541726D3A2041F2
:103F56006363656C73206E6F74206865616C74684A
:103F6600790050726541726D3A2042616420475073
:103F76005320506F730050726541726D3A20426152
:103F86007474657279206661696C73616665206F09
:103F96006E2E0050726541726D3A20636F6D7061CE
:103FA6007373657320696E636F6E73697374656E80
:103FB600740050726541726D3A204779726F2063C2
:103FC600616C206661696C65640050726541726D52
:103FD6003A204779726F7320696E636F6E736973E7
:103FE60074656E740050726541726D3A204779723D
:103FF6006F73206E6F74206865616C746879005009
:10400600726541726D3A20526164696F206661691A
:104016006C73616665206F6E2E0041726D3A2041A9
:104026006C74206469737061726974790041726D91
:104036003A205468722062656C6F772046530041BF
:10404600726D3A204D6F6465206E6F742061726DDB
:1040560061626C650041726D3A20526F746F722016
:104066006E6F74207370696E6E696E670041726D53
:104076003A2054687220746F6F206869676800443C
:10408600495341524D494E47204D4F544F525300CC
:104096005468726F74746C652061726D656421007A
:1040A6005468726F74746C652064697361726D65AF
:1040B60064210043616C6962726174696E67206293
:1040C60061726F6D65746572006261726F6D6574A1
:1040D60065722063616C6962726174696F6E2063D8
:1040E6006F6D706C657465004C6F772042617474F7
:1040F60065727921004C6F7374204750532100522A
:1041060065616368656420436F6D6D616E6420232D
:1041160000666C6967687420706C616E20757064E7
:104126006174652072656A656374656400666C69AE
:1041360067687420706C616E207265636569766568
:1041460064004672616D653A2000FFFFFFFF03FFC2
:1041560000FF000B006B01B33F40FF8000310900F8
:1041660000327C8900EDD968770000005900000014
:104176000000000000D69FDCA81817AA90437327FA
:10418600F6B968EDF4DED409FEE61C1C84DDE80B06
:10419600992927D6DF8D210F036418EFEE1EF0B79D
:1041A600828200941500347C0000001400988F0071
:1041B60000000000000000000000E7B73F360000E6
:1041C6000000000000AF669ED0380000000000002E
:1041D60000000000000000000000000000000000D9
:1041E60000000000000000000000000000000000C9
:1041F6000000000000000086DBD0BC5416131586B4
:10420600004E44BD7F6F15159001000000000000B0
:104216000000000000000000000000000000000098
:104226000000000000000000000000000000000088
:104236000000000000000000000000000000000078
:104246000000000000000000000000000000000068
:1042560000000000000000000000CC31AA2C532E04
:1042660000000000009D12B117831262125D134C0C
:1042760013000000004617B1177E16A3168E16BD52
:02428600160020
:00000001FF
