:100000003DC1000063C1000061C100005FC100008C
:100010005DC100005BC1000059C1000057C1000074
:1000200055C100000C9407110C941B1C0C94991AD8
:100030004DC100004BC1000049C1000047C1000094
:1000400045C1000043C1000041C100003FC10000A4
:100050003DC100003BC1000039C100000C94AB144D
:1000600035C1000033C1000031C100002FC10000C4
:100070002DC100002BC1000029C1000027C10000D4
:1000800025C1000023C1000021C100001FC10000E4
:100090001DC100001BC1000019C1000017C10000F4
:1000A00015C1000013C1000011C1000000C2010011
:1000B0000100110011000C0000E100000A00250001
:1000C0002500210000960000190039003900360093
:1000D000127A00001F0046004600440080700000B5
:1000E00022004D004D004A00004B00003600750014
:1000F00075007200403800004A009C009C00990086
:10010000802500007200EC00EC00E900C012000045
:10011000E900DA01DA01D70160090000D701B6036E
:10012000B603B303B0040000B3036E076E076B079A
:10013000580200006E07DC0EDC0ED80E2C01000009
:10014000DC0EC11DC11DBE1D012302230423082393
:1001500080230129022904290829402680264029D4
:100160008029102320234023802F402F202F102F61
:10017000022F012F10292029402C7DFD7DFB7DF7CA
:100180007DEF7DDF7E7F7EBF7EDF7EEF7EFD7EFEAC
:100190007DFE0001040506070D0C0B0A09080A0B79
:1001A0000C0D0706050401000800010000DD011226
:1001B00000020000EF0143000300003202040103CB
:1001C0000904360218020309045002160303090445
:1001D00068020C0001C10201803601813612010063
:1001E0000202000020C0168304000101020301097D
:1001F000024300020100C0320904000001020201B2
:100200000005240010010524010001042402060554
:1002100024060001070582030800400904010002CA
:100220000A000000070503024000000705840240A1
:1002300000000403090418035400650065006E0003
:10024000730079006400750069006E006F000000A3
:100250001603550053004200200053006500720051
:10026000690061006C0000000C03310032003300B3
:100270003400350000004202F6173D0211241FBE73
:10028000CFEFDAE0DEBFCDBF16E0A0E0B1E0E2E301
:10029000FEE302C005900D92A831B107D9F718E02E
:1002A000A8E1B6E001C01D92A83CB107E1F712E059
:1002B000CAE7D2E004C02297FE010E94091FC63798
:1002C000D107C9F70E9466180C940D1F99CEFB0147
:1002D000DC0102C001900D9241505040D8F70895C2
:1002E000FB01DC018D91019080190110D9F3990B6C
:1002F0000895FB01DC0101900D920020E1F70895C3
:10030000FB01DC014150504030F08D91019080198B
:1003100019F40020B9F7881B990B0895BC0180914E
:10032000C1078823C1F42BE0693B720778F0809104
:10033000C2079091C3079B01281B390BC901845F39
:10034000914020F481E08093C10708957093C30722
:100350006093C2070895CB01A0E0B0E02091B907F7
:100360003091BA074091BB075091BC07280F391F45
:100370004A1F5B1F2093B9073093BA074093BB070E
:100380005093BC078091BD079091BE070196909352
:10039000BE078093BD078091BF079091C00700976B
:1003A00019F06817790720F47093C0076093BF07AE
:1003B00008952091BD073091BE072115310519F42C
:1003C00020E030E018C040E050E06091B907709143
:1003D000BA078091BB079091BC070E94CA1E109279
:1003E000B9071092BA071092BB071092BC0710927F
:1003F000BE071092BD07C90108952091B70730913B
:10040000B8072115310519F420E030E01DC06091D6
:10041000B3077091B4078091B5079091B60797FF25
:1004200003C020E030E004C040E050E00E94EC1E39
:100430001092B3071092B4071092B5071092B60746
:100440001092B8071092B707C9010895813091053D
:1004500051F46F5F7F4F81F484EC97E061E041E0FD
:1004600021E00C946613892B39F46F5F7F4F21F4E0
:1004700084EC97E00C94FE11089580E090E06FEF1B
:100480007FEFE4CF81E090E06FEF7FEFDFCF60910F
:10049000DC07609584EC97E00E9440121092DD0723
:1004A0001092DC0708951F93182F84EC97E0612FBA
:1004B0000E9440122091DC073091DD07210F311D91
:1004C000832F992787FD9A95820F931F90709093A1
:1004D000DD078093DC071F9108950F931F93DF932F
:1004E000CF9300D000D000D0CDB7DEB79A838983F8
:1004F0004B835C836D837E8380918906882331F0F2
:100500008091E304E82FF0E00E94CB1380E1CBDF81
:100510008981C9DFFE0131968181C5DF8E010D5FC2
:100520001F4F8B81C0DFF8018181BDDFF80182811F
:10053000BADFF8018381B7DFAADF84EC97E00E947D
:10054000EF128091E304E82FF0E00E94D113269689
:100550000FB6F894DEBF0FBECDBFCF91DF911F91D4
:100560000F910895EF92FF920F931F93CF93DF9314
:10057000833809F49BC1843850F4823209F450C1A5
:10058000853409F49BC2882309F422C10AC4863C3D
:1005900009F494C2843E09F474C2813A09F001C49A
:1005A000E0918806EE2309F4FCC32091E30722239F
:1005B00061F48091BF079091C0071092C00710921C
:1005C000BF079093E9078093E8078091E80790912F
:1005D000E907009709F4E5C3223009F453C023303A
:1005E00030F4222371F0213009F0E7C027C0243015
:1005F00009F490C0243008F469C0253009F0DDC04A
:10060000ADC0F0E0BF01660F771F0E94A31E80E01F
:1006100090E07F70807090702227362F472F582FE0
:1006200004E1660F771F881F991F0A95D1F7262BC3
:10063000372B482B592BE295E07FB2C0E33008F40A
:10064000BCC0F0E0EE0FFF1FBF010E94A31E80E0C0
:1006500090E07F70807090702227362F472F582FA0
:10066000A4E1660F771F881F991FAA95D1F7262B43
:10067000372B482B592B03E0EE0FFF1F0A95E1F7AC
:10068000E2608EC0E53008F498C0F0E0EE0FFF1F86
:10069000BF010E94A31E80E090E07F708070907088
:1006A0002227362F472F582FA4E1660F771F881F68
:1006B000991FAA95D1F7262B372B482B592B03E0EE
:1006C000EE0FFF1F0A95E1F7E4606AC0E73008F417
:1006D00074C0F0E0EE0FFF1FBF010E94A31E80E078
:1006E00090E07F70807090702227362F472F582F10
:1006F000A4E1660F771F881F991FAA95D1F7262BB3
:10070000372B482B592B03E0EE0FFF1F0A95E1F71B
:10071000E66046C0E93008F450C0F0E0EE0FFF1F7D
:10072000BF010E94A31E80E090E07F7080709070F7
:100730002227362F472F582FA4E1660F771F881FD7
:10074000991FAA95D1F7262B372B482B592B63E0FD
:10075000EE0FFF1F6A95E1F7E86022C0EB3068F109
:10076000F0E0EE0FFF1FBF010E94A31E80E090E0AB
:100770007F70807090702227362F472F582F14E1FA
:10078000660F771F881F991F1A95D1F7262B372BD5
:10079000482B592BB3E0EE0FFF1FBA95E1F7EA6043
:1007A0008E2F90E0A0E0B0E0282B392B4A2B5B2B5A
:1007B00080E093E0BA01A90190DE8091E3078F5FAA
:1007C0008093E307833008F4ECC21092E307E9C298
:1007D0008091E507882319F08130B9F40BC040916E
:1007E0003D0650913E0660913F067091400680E1C3
:1007F00091E00AC04091390650913A0660913B065B
:1008000070913C0680E091E068DE8091E5078F5FA3
:100810008093E507823008F4C4C21092E507C1C294
:100820008091B7079091B807029708F4BAC28091F7
:10083000E407882351F4BDDD9093ED078093EC0726
:10084000DCDD9093EB078093EA078091EC079091B1
:10085000ED07009709F4A5C22091E407222319F0BF
:100860002130C9F40AC06AE070E00E94A31EAB0107
:1008700060E070E080E192E00DC08091EA07909125
:10088000EB076AE070E00E94A31EAB0160E070E03D
:1008900080E092E022DE8091E4078F5F8093E4079E
:1008A000823008F47EC21092E4077BC28091E60792
:1008B000823009F49AC0833030F4882359F08130B3
:1008C00009F0D4C044C0833009F4A6C0843009F0D4
:1008D000CDC0B9C08091DE04833009F0C7C020913B
:1008E000230630912406409125065091260657FF95
:1008F00017C0C90137FF03C0909581959F4F64E6EB
:1009000070E00E94B71ECB01880F991F860F971FBA
:10091000880F991FAA2797FDA095BA2FB06C52C0D7
:10092000C90137FF03C0909581959F4F64E670E041
:100930000E94B71ECB01880F991F860F971F880F43
:10094000991FAA2797FDA095BA2FB0683BC0809148
:10095000DE04833009F08AC020911F063091200602
:10096000409121065091220657FF17C0C90137FF59
:1009700003C0909581959F4F64E670E00E94B71E7A
:10098000CB01880F991F860F971F880F991FAA27E1
:1009900097FDA095BA2FB06415C0C90137FF03C0F9
:1009A000909581959F4F64E670E00E94B71ECB0141
:1009B000880F991F860F971F880F991FAA2797FDE9
:1009C000A095BA2F8093DF079093E007A093E107EB
:1009D000B093E2074091DF075091E0076091E10793
:1009E0007091E20780E098E040C08091DE0483309F
:1009F000E9F560912706709128068091290690916B
:100A00002A062AE030E040E050E00E94EC1E80E23E
:100A100098E0BA01A90129C08091DE04833031F544
:100A200060912B0670912C0680912D0690912E06D8
:100A300024E130E040E050E00E94841EAB01BC01A4
:100A400080E398E012C06091330670913406809183
:100A500035069091360624E630E040E050E00E94F2
:100A6000841EAB01BC0180E498E037DD8091E6078D
:100A70008F5F8093E607853008F493C11092E607F4
:100A800090C140911D06552747FD5095209137068E
:100A90003091380684E690E0BC01269FC001279F74
:100AA000900D369F900D1124480F591F440F551F6C
:100AB00060E070E080E095E010DD73C18091E707B1
:100AC000843009F4B0C0853058F48130C1F18130F0
:100AD00008F446C0823011F1833009F059C10DC0CD
:100AE000863009F4D8C0863008F4A8C0873009F4ED
:100AF00001C1883009F04CC13EC1E090B107F090CF
:100B0000B207C9E9D7E000E01DE720E030E0E0E00F
:100B1000F0E040E053E86FEF7FEF7BC0E090AF077D
:100B2000F090B007C5E8D7E0E0E0F0E040E053E83F
:100B30006FEF7FEF00E01DE720E030E04CC0E09079
:100B4000AD07F090AE07C1E7D7E0E0E0F0E040E0AD
:100B500053E86FEF7FEF00E01DE720E030E01DC0BD
:100B60004091DF045091E00460E070E083E091EF99
:100B70000EC188819981AA81BB8180179107A20744
:100B8000B30714F48C019D01481759076A077B07C6
:100B900014F4AC01BD0131962496EE15FF054CF31B
:100BA000401B510B620B730B80E097E0F0C0888113
:100BB0009981AA81BB8180179107A207B30714F41A
:100BC0008C019D01481759076A077B0714F4AC0193
:100BD000BD0131962496EE15FF054CF3401B510BD9
:100BE000620B730B80E197E0D2C088819981AA8162
:100BF000BB8180179107A207B30714F48C019D01F4
:100C0000481759076A077B0714F4AC01BD013196F8
:100C10002496EE15FF054CF3401B510B620B730B32
:100C200080E297E0B4C040918406509185066091BF
:100C300086067091870680E094E0A9C06091410625
:100C40007091420680914306909144066C547F4F08
:100C50008F4F9F4F0E94951D2091E5043091E6042F
:100C60004091E7045091E8040E94FA1C0E94671D1D
:100C70002AE431E040E050E00E94841E655A704052
:100C8000804090402FEF30E040E050E00E94CA1ECC
:100C900080E099E02CC060914506709146068091F5
:100CA0004706909148066C547F4F8F4F9F4F0E948C
:100CB000951D2091E5043091E6044091E7045091A0
:100CC000E8040E94FA1C0E94671D2AE431E040E01B
:100CD00050E00E94841E655A7040804090402FEF83
:100CE00030E040E050E00E94CA1E80E199E0BA0185
:100CF000A9014DC080911806482F50E060E070E0D7
:100D00004170507060707070E0914D06F0914E0629
:100D1000309771F120914F06309150062115310521
:100D200039F18091E1049091E20401968F70907006
:100D3000880F991F3370A5E0220F331FAA95E1F7A2
:100D4000822B932BA0E0B0E0482B592B6A2B7B2BF6
:100D5000CF01019790934E0680934D06892B41F465
:100D60001092E2041092E1041092500610924F0685
:100D700080E194E00CC04091DA045091DB04609172
:100D8000DC047091DD0477FD03C080E096E0A5DB14
:100D90008091E7078F5F8093E707893010F010920A
:100DA000E707DF91CF911F910F91FF90EF9008958A
:100DB0001F9311E012C084EC97E00E940512982F57
:100DC0008E3719F41093DE0708C08091DE07882360
:100DD00021F0892FC7DB1092DE0784EC97E00E9498
:100DE0002612892B41F71F91089584EC97E040E08B
:100DF00051EE60E070E00C943011CF92DF92FF92E0
:100E00000F931F93DF93CF93CDB7DEB76C970FB6D9
:100E1000F894DEBF0FBECDBF6A01CA0160E071E089
:100E20000E944B15882319F081E090E0D2C1C601E1
:100E30006EE071E00E944B15882319F082E090E08B
:100E4000C8C18E010F5F1F4FC80168E271E00E94A8
:100E50000816C601B8010E949115F82EC8010E941B
:100E6000A215FF2019F083E090E0B3C1C60161E450
:100E700071E00E944B15882319F084E090E0A9C12D
:100E80008E01085F1F4FC80167E571E00E940816D8
:100E9000C601B8010E949115F82EC8010E94A21542
:100EA000FF2019F085E090E094C1C60163E771E08E
:100EB0000E944B15882319F086E090E08AC1C60194
:100EC00062E971E00E944B15882319F087E090E0F9
:100ED00080C1C60163EB71E00E944B15882319F0B5
:100EE00088E090E076C1C6016BEC71E00E944B1582
:100EF000882319F089E090E06CC1C60166EE71E0CC
:100F00000E944B15882319F08AE090E062C1C60167
:100F10006EEF71E00E944B15882319F08BE090E092
:100F200058C1C6016AE172E00E944B15882319F08E
:100F30008DE090E04EC1C60165E372E00E944B1562
:100F4000882319F08EE090E044C1C6016DE472E0A0
:100F50000E944B15882319F08FE090E03AC1C6013A
:100F600069E672E00E944B15882319F080E190E059
:100F700030C1C6016CE772E00E944B15882319F05E
:100F800081E190E026C1C60160E972E00E944B1544
:100F9000882319F082E190E01CC1C60165EA72E085
:100FA0000E944B15882319F083E190E012C1C6011D
:100FB0006BEB72E00E944B15882319F08FE690E0EE
:100FC00008C1C60167ED72E00E944B15882319F035
:100FD00080E790E0FEC0C60162EF72E00E944B1510
:100FE000882319F081E790E0F4C0C60166E073E061
:100FF0000E944B15882319F082E790E0EAC0C601F1
:1010000063E273E00E944B15882319F083E790E0B8
:10101000E0C0C60162E473E00E944B15882319F01A
:1010200084E790E0D6C0C6016AE573E00E944B15E4
:10103000882319F085E790E0CCC0C60165E773E02E
:101040000E944B15882319F086E790E0C2C0C601C4
:101050006FE873E00E944B15882319F087E790E052
:10106000B8C0C6016AEA73E00E944B15882319F0E4
:1010700084E190E0AEC0C6016DEB73E00E944B15B9
:10108000882319F085E190E0A4C0C6016FEC73E0FD
:101090000E944B15882319F084E690E09AC0C6019F
:1010A00065EE73E00E944B15882319F085E690E009
:1010B00090C0C6016DEF73E00E944B15882319F0B4
:1010C00086E690E086C0C6016FE074E00E944B1592
:1010D000882319F089E590E07CC0C60160E274E0E5
:1010E0000E944B15882319F088E790E072C0C60172
:1010F00060E374E00E944B15882319F089E790E0C3
:1011000068C0C60163E474E00E944B15882319F09F
:101110008AE590E05EC0C60169E574E00E944B1567
:10112000882319F08BE590E054C0C60168E774E0AD
:101130000E944B15882319F080E290E04AC0C60156
:1011400065E874E00E944B15882319F081E290E075
:1011500040C08E01015F1F4FC8016FE874E00E941C
:101160000816C601B8010E949115F82EC8010E9408
:10117000A215FF2019F088E590E02BC0C60161EAB6
:1011800074E00E944B15882319F086E590E021C099
:10119000C6016DEB74E00E944B15882319F087E5BA
:1011A00090E017C08E010A5E1F4FC80162ED74E027
:1011B0000E940816C601B8010E949115F82EC801B8
:1011C0000E94A215FF2019F48FEF93E002C080E087
:1011D00090E09093500680934F066C960FB6F8946B
:1011E000DEBF0FBECDBFCF91DF911F910F91FF905A
:1011F000DF90CF9008958F929F92AF92BF92CF923F
:10120000DF92FF920F931F93CF93DF93F62E490146
:10121000C82EDD248601000F111F5801AC0CBD1C27
:10122000E501CC0FDD1FCC0FDD1FC25AD74F18824E
:101230008B819C818430910509F48EC085309105A5
:101240005CF48230910509F443C0833091050CF0C1
:10125000BFC09923C4F44FC28730910509F443C13C
:101260008830910544F48530910509F4DEC0069775
:1012700009F041C207C18830910509F47AC1099784
:1012800009F039C2E7C18EEF681709F034C282E075
:1012900090E09C838B8380E790E0C89ED001C99E3C
:1012A000B00DD89EB00D1124A251B84F13961C92C8
:1012B000139788E390E0C89EF001C99EF00DD89E78
:1012C000F00D1124EE0FFF1FE051F84F6083A4C111
:1012D000E5E6E61788F489818F5F8983F501EE0FD3
:1012E000FF1FEE0FFF1FE05AF74F80818F5F808353
:1012F000188281E090E02DC080E790E0C89EF00168
:10130000C99EF00DD89EF00D1124E251F84F638371
:101310001D8280818627282F2295207F282730E074
:10132000522F4427C90163E0880F991F6A95E1F79E
:1013300048275927818190E04827592784E035952F
:1013400027958A95E1F7422753275183408384E00C
:1013500090E09C838B83CFC18CE190E0C89EF0012C
:10136000C99EF00DD89EF00D1124EE0FFF1FEE0F59
:10137000FF1FEE50F84F608380E790E0C89EF001B9
:10138000C99EF00DD89EF00D1124E251F84F8081D6
:101390008627282F2295207F282730E0522F4427A8
:1013A000C901B3E0880F991FBA95E1F7482759277B
:1013B000818190E048275927A4E035952795AA9583
:1013C000E1F7422753275183408383E090E0C1CF68
:1013D00080E790E0C89EF001C99EF00DD89EF00D08
:1013E0001124E251F84F658380818627282F2295AA
:1013F000207F282730E0522F4427C90163E0880F5F
:10140000991F6A95E1F748275927818190E048277D
:10141000592704E0359527950A95E1F74227532788
:101420005183408385E090E094CF80E790E0C89EB0
:10143000F001C99EF00DD89EF00D1124E251F84F35
:10144000668380818627282F2295207F282730E0F9
:10145000522F4427C901B3E0880F991FBA95E1F7CD
:1014600048275927818190E048275927A4E03595DE
:101470002795AA95E1F7422753275183408386E0B9
:1014800090E067CF80E790E0C89EF001C99EF00D24
:10149000D89EF00D1124E251F84F67838081862792
:1014A000282F2295207F282730E0522F4427C9017A
:1014B00063E0880F991F6A95E1F7482759278181D2
:1014C00090E04827592794E0359527959A95E1F7BC
:1014D00042275327518340838381882309F446C0E0
:1014E00087E090E036CF6D81F80183E0EE0FFF1FBB
:1014F0008A95E1F7E01BF10B319603E0EE0FFF1F39
:101500000A95E1F7E60FF11DE251F84FF0826F5FA7
:101510006D8380E790E0C89EF001C99EF00DD89ED3
:10152000F00D1124E251F84F80818F25282F22954C
:10153000207F282730E0522F4427C901B3E0880FCD
:10154000991FBA95E1F748275927818190E04827EC
:101550005927A4E035952795AA95E1F74227532707
:10156000518340838381681709F0C5C088E090E00B
:10157000F0CE80E790E0C89ED001C99EB00DD89E05
:10158000B00D1124A251B84F9C911796EC9117976A
:10159000F0E0E950FB4F80818927482F4295407F3A
:1015A000482750E0342F2227CA01E3E0880F991F13
:1015B000EA95E1F72827392711968C91119790E049
:1015C0002827392774E0559547957A95E1F7242720
:1015D000352711963C932E93862F90E0307082171A
:1015E0009307F9F0F501EE0FFF1FEE0FFF1FE05A12
:1015F000F74F80818F5F8083188281E090E09C8329
:101600008B83FEEFFF1609F076C082E090E09C83AA
:101610008B8313961C9213978FEF9FEF8D939C9360
:101620006AC089E090E09C838B83F80153E0EE0F61
:10163000FF1F5A95E1F7E01BF10B319643E0EE0FE7
:10164000FF1F4A95E1F78D81E80FF11DE251F84F38
:10165000608351C0262F30E080E790E0C89EB00143
:10166000C99E700DD89E700D11246251784FFB01F8
:10167000818190E028173907E9F0F501EE0FFF1F8F
:10168000EE0FFF1FE05AF74F80818F5F8083188233
:1016900081E090E09C838B83FEEFFF1661F582E092
:1016A00090E09C838B83EB011B828FEF9FEF9983EC
:1016B000888321C081E0888381E090E09C838B83D4
:1016C000F80123E0EE0FFF1F2A95E1F7E01BF10B75
:1016D000319693E0EE0FFF1F9A95E1F78D81E80FA9
:1016E000F11DE151F84FF082DA01FB0180E7019032
:1016F0000D928150E1F7D601AA0FBB1FAC0DBD1DA5
:10170000AA0FBB1FAA0FBB1FA25AB74F8C918130E3
:1017100069F58CE190E0C89EF001C99EF00DD89E5D
:10172000F00D1124EE0FFF1FEE0FFF1FEE50F84FCC
:10173000808116968C93169718968D919C91199787
:10174000892B21F41B961C921E921A97F601EE0F1C
:10175000FF1FEC0DFD1DEE0FFF1FEE0FFF1FE25AE6
:10176000F74F80859185019691878087F601EE0F6E
:10177000FF1FEC0DFD1DEE0FFF1FEE0FFF1FDF0122
:10178000A25AB74F16968C9116978F5FE4018E83FD
:1017900018968D919C91199799878887E05AF74FF1
:1017A00080818A871B8610828C91DF91CF911F9157
:1017B0000F91FF90DF90CF90BF90AF909F908F9050
:1017C00008952F923F924F925F926F927F928F92E5
:1017D0009F92AF92BF92CF92DF92EF92FF920F93C0
:1017E0001F93DF93CF93CDB7DEB7C358D0400FB66A
:1017F000F894DEBF0FBECDBFE4E1CE2ED12CCC0ECF
:10180000DD1E78E0272E312C2C0E3D1E6CE1A62E1D
:10181000B12CAC0EBD1E55E0452E512C4E01089446
:10182000811C911C4FEF642E712C9EC287EB98E0B7
:101830000E949C16682F80E0A6019101DCDC8823C1
:1018400009F492C28B8D8B3109F44CC18C3148F470
:10185000813009F478C0813070F0883109F084C299
:10186000D8C08A3409F433C28D3F09F44AC08E319E
:1018700009F07AC2B9C120E0F601868590E080784F
:10188000907008970CF021E020931806F6018085EF
:101890009185A285B3858093DA049093DB04A093AD
:1018A000DC04B093DD040FB6F8948091B2089091F7
:1018B000B308A091B408B091B5080FBE8093F906A3
:1018C0009093FA06A093FB06B093FC068091F7066E
:1018D0009091F806019601969093F8068093F7068A
:1018E00001970B9708F440C2F1E0F093890610923B
:1018F000F8061092F7068091E304E82FF0E04BD74A
:1019000033C2A1E5B6E0F50183E301900D92815069
:10191000E1F7E0905106E092E1041092E204509267
:101920004E0640924D06C40162E576E00E9408161C
:10193000FF2400E010E0C801B701A4015EDAC40191
:101940000E94A21511C2F6018689978990931A0602
:1019500080931906208D318D30931C0620931B0631
:1019600026A120931D060E948E0120911B06309116
:101970001C068091C107882311F1C901AA2797FD90
:10198000A095BA2F2091B3073091B4074091B507C5
:101990005091B607280F391F4A1F5B1F2093B307CA
:1019A0003093B4074093B5075093B6078091B707BB
:1019B0009091B80701969093B8078093B7078091EC
:1019C000190690911A06F2E589309F0710F096E00B
:1019D00018C024E48D35920710F095E012C031E371
:1019E0008F3C930710F094E00CC0E1E285339E0732
:1019F00010F093E006C08B59904110F490E001C0C4
:101A000092E080918806891708F0AEC1909388060D
:101A1000ABC1F501248D2093DE04858D80931E06D5
:101A2000FAE08F9FC0011124820F911DAA2797FD14
:101A3000A095BA2F8093840690938506A09386067E
:101A4000B0938706F601848D958D9695879596952A
:101A500087959093E0048093DF0401978F3F910571
:101A600020F07092E0046092DF04233091F5F601DB
:101A700080899189A289B38980931F06909320065B
:101A8000A0932106B093220684899589A689B789F7
:101A90008093230690932406A0932506B0932606F0
:101AA000808D918DA28DB38D80932706909328060B
:101AB000A0932906B0932A0680A191A1A0E0B0E0EE
:101AC00080932B0690932C06A0932D06B0932E06A0
:101AD0004BC110922B0610922C0610922D061092DC
:101AE0002E0642C1F601208931898091AD0790917F
:101AF000AE07853091052CF401969093AE07809344
:101B0000AD07EDE7F7E080819181A281B381848305
:101B10009583A683B783349787E0ED36F80799F766
:101B2000C9016AE070E00E94B71E882777FD8095A2
:101B3000982F6483758386839783F5012285338587
:101B40008091AF079091B007853091052CF40196F4
:101B50009093B0078093AF07E1E9F7E0808191812E
:101B6000A281B38184839583A683B783349787E06A
:101B7000E138F80799F7C9016AE070E00E94B71EE2
:101B8000882777FD8095982F648375838683978354
:101B9000F501248535858091B1079091B207853094
:101BA00091052CF401969093B2078093B107E5EA72
:101BB000F7E080819181A281B38184839583A6839C
:101BC000B783349787E0E539F80799F7C9016AE0E8
:101BD00070E00E94B71E882777FD8095982F648358
:101BE000758386839783C0C0F50164817581868182
:101BF000978120E030E044E353E40E94211E29EF66
:101C00003FE049E450E40E94FA1C0E94621D609388
:101C10004106709342068093430690934406665AA9
:101C20007F4F8F4F9F4F653B71058105910590F464
:101C3000F601608971898289938920E030E044E36C
:101C400053E40E94211E29EF3FE049E450E40E9442
:101C5000FA1C17C0F601608971898289938920E096
:101C600030E044E353E40E94211E29EF3FE049E4C1
:101C700050EC0E94FA1C20E030E044E353E40E9460
:101C8000961C0E94621D60934506709346068093E1
:101C9000470690934806F501648575858685978586
:101CA00029EF3FE049E450E40E94961C26E839EF12
:101CB00042E253E40E94211E0E94671D6093490680
:101CC00070934A0680934B0690934C064DC0F501E5
:101CD00064817581868197810E94671D60932F06BC
:101CE000709330068093310690933206F601808D12
:101CF000918DAA2797FDA095BA2F809333069093D4
:101D00003406A0933506B0933606828D938D90935A
:101D1000380680933706608971898289938920E02B
:101D200030E048EC52E40E94211E0E94621D609344
:101D3000390670933A0680933B0690933C06F50172
:101D4000648575858685978520E030E048EC52E40F
:101D50000E94211E0E94621D60933D0670933E0604
:101D600080933F069093400687EB98E0ACD7892B91
:101D700009F05CCDCD57DF4F0FB6F894DEBF0FBE34
:101D8000CDBFCF91DF911F910F91FF90EF90DF902A
:101D9000CF90BF90AF909F908F907F906F905F900B
:101DA0004F903F902F900895AF92CF92DF92EF9295
:101DB0000F931F93DF93CF9300D000D000D0CDB707
:101DC000DEB7982FDA01DA82C9822B830C83ED8289
:101DD000AE8228E0C22ED12CC40ED51E9601AE01D3
:101DE0004F5F5F4F86E0FA010190AF01F901019268
:101DF0009F018150C1F782E417968C9317978EEF5D
:101E000012968C93129786E013968C9313971596DF
:101E10009C93159716966C93169780916508149667
:101E20008C9314978F5F80936508FD0133964FEF75
:101E30005FEF6BE070E01BC081918427282F229513
:101E4000207F282730E0522F4427C901880F991F8F
:101E5000880F991F880F991F482759274027512716
:101E600004E0359527950A95E1F7422753276150FD
:101E70007040052F11278FEF6F3F7807E9F624E9AF
:101E80002427822F8295807F822790E0382F222777
:101E9000AC0163E0440F551F6A95E1F7242735270D
:101EA00020273127F4E095958795FA95E1F72827C3
:101EB000392713968C911397F601E80FF11D2083B3
:101EC00013968C91C80ED11CF60131838EE090E000
:101ED00026960FB6F894DEBF0FBECDBFCF91DF912F
:101EE0001F910F91EF90DF90CF90AF9008956F9278
:101EF0007F928F929F92AF92CF92DF92EF920F9349
:101F00000FB6F8948091B2089091B308A091B408EC
:101F1000B091B5080FBE2091FD063091FE064091AC
:101F2000FF0650910007821B930BA40BB50B8D5D30
:101F30009540A040B04008F48DC00FB6F894809151
:101F4000B2089091B308A091B408B091B5080FBE43
:101F50008093FD069093FE06A093FF06B0930007C2
:101F600080918906882309F075C08091E304E82FE9
:101F7000F0E011D48FEF6EEB41E057E021E001E09B
:101F8000E2E0EE2E7AE0C72ED12CAA24A3940CDF37
:101F90005AE8652E56E0752E2091040730E0285F40
:101FA0003F4F43E0842E47E0942EC301B401A901C2
:101FB0000E9467014091040750E0485F5F4F87EB44
:101FC00098E0B301FCD66AE070E080E090E003D5D1
:101FD0008FEF6EEBA4014250504021E03BE0E32E36
:101FE000E3DE2091040730E0285F3F4FC301B401D6
:101FF000A9010E9467014091040750E0485F5F4FCC
:1020000087EB98E0B301DBD66AE070E080E090E017
:10201000E2D48FEF6EEBA4014250504021E0EE2459
:10202000E394C2DE2091040730E0285F3F4FC301F4
:10203000B401A9010E9467014091040750E0485F84
:102040005F4F87EB98E0B301BAD68091E304E82FA5
:10205000F0E0A7D30FB6F8948091B2089091B3083E
:10206000A091B408B091B5080FBE2091F906309147
:10207000FA064091FB065091FC06821B930BA40BC1
:10208000B50B8D5D9540A040B04030F010928906B0
:102090001092F8061092F70694DB0E94D8060F9172
:1020A000EF90DF90CF90AF909F908F907F906F9048
:1020B00008950E94F50687EB98E040E051EE60E05D
:1020C00070E0B2D7109289060FB6F8948091B208EA
:1020D0009091B308A091B408B091B5080FBE809359
:1020E000F9069093FA06A093FB06B093FC060FB690
:1020F000F8948091B2089091B308A091B408B0917F
:10210000B5080FBE8093FD069093FE06A093FF06D0
:10211000B09300071092F8061092F7068091E3043E
:1021200001D3579A25982D98EDE7F0E080818F7EB6
:10213000808380E48093E90408950F931F93CF93E5
:10214000DF93FC01778976957170A285B3859185BF
:10215000772329F08C91892309F454C004C08C9111
:10216000892309F04FC08785908920E001972FEFE0
:102170008F3F9207D9F7C189D289A285B38511858E
:1021800060E031E040E050E000E0CE01202F019718
:102190002FEF8F3F9207D9F78C91812311F0632B9A
:1021A00003C0832F80956823330F4F5F5F4F483004
:1021B000510559F78389948920E001972FEF8F3FCC
:1021C0009207D9F7711160958091AC082091AD0804
:1021D00090E001968F73907030E08217930779F04A
:1021E000E091AC08F0E0E459F74F60838091AC08CF
:1021F00090E001968F7390708093AC0803C087893C
:102200008160878BDF91CF911F910F9108951F926D
:102210000F920FB60F9211242F933F934F935F931A
:102220006F937F938F939F93AF93BF93EF93FF939E
:1022300080916A0890916B08009709F07EDFFF910A
:10224000EF91BF91AF919F918F917F916F915F912E
:102250004F913F912F910F900FBE0F901F901895A7
:10226000CF92DF92EF92FF920F931F93CF93DF9362
:10227000EC017A018B011E8A1D8A1C8A1B8A1A8A2C
:10228000198A188A1F8620E030E06901CC0CDD1C19
:10229000C20ED31EB601660F771F660F771FAB0104
:1022A00044555F4FFA0185919591A591B4918E1592
:1022B0009F05A007B107E9F4FB01E055FF4F8591A9
:1022C0009491988B8F87FB01EE54FF4F85919491E9
:1022D0009A8B898BFB01EC54FF4F859194919C8BD9
:1022E0008B8BFB01EA54FF4F859194919E8B8D8BD4
:1022F00006C02F5F3F4F2D30310509F0C6CF8B89C7
:102300009C89892BA1F12885253020F0822F8D50C2
:10231000833028F5809168008160809368002530C3
:1023200028F0822F8D50833008F039C0EBE6F0E0C2
:10233000ABE6B0E04081243048F0822F8D508330EE
:1023400010F080E80AC030E02950304081E090E091
:1023500002C0880F991F2A95E2F7842B8C938D89F0
:102360009E8920E001972FEF8F3F9207D9F7809148
:102370006A0890916B088C179D07B1F08F898E7F4A
:102380008F8B9FB7F8941092AC088091AC08809323
:10239000AD08D0936B08C0936A089FBF05C0E0E00A
:1023A000F0E0A0E0B0E0C6CFDF91CF911F910F9198
:1023B000FF90EF90DF90CF900895FC0120852530AD
:1023C00020F0822F8D508330C0F440916B00243078
:1023D00048F0822F8D50833010F08FE70BC030E033
:1023E0002950304081E090E002C0880F991F2A9563
:1023F000E2F78095842380936B000895FC018BEFB6
:1024000095E091838083CF01D8CF20916A083091E5
:102410006B082817390731F49091AD088091AC080A
:10242000981719F42FEF3FEF0FC0E091AD08F0E0DF
:10243000E459F74F20818091AD0890E001968F73A9
:1024400090708093AD0830E0C901089520916A082A
:1024500030916B082817390719F020E030E00EC0E2
:102460008091AC082091AD0890E0805C9F4F821B6A
:10247000910960E470E00E94B71E9C01C9010895B3
:102480000F931F93DC0155968D919C915697892B44
:1024900031F481E012968C9320E030E097C00FB7C2
:1024A000F89457968C9157971D96ED91FC911E9735
:1024B0001C962C911C9781FF8DC08081822B80837C
:1024C00055968D919C915697059620E001972FEF98
:1024D0008F3F9207D9F757968C91579781FF35C058
:1024E00031E040E050E070E010E0832F90E0862380
:1024F00097231D96ED91FC911E971C962C911C978D
:10250000892B29F0808120952823208303C0808196
:10251000822B808355968D919C915697212F019700
:102520002FEF8F3F9207D9F7330F4F5F5F4F483040
:102530005105D9F61D96ED91FC911E9790811C9640
:102540008C911C978095892333C031E040E050E0A6
:1025500070E010E0832F90E0862397231D96ED9185
:10256000FC911E971C962C911C97892B21F0808141
:10257000822B808304C08081209528232083559658
:102580008D919C915697212F01972FEF8F3F9207A6
:10259000D9F7330F4F5F5F4F48305105D9F61D967D
:1025A000ED91FC911E9780811C969C911C97892B24
:1025B00080830FBF55968D919C91569720E001978F
:1025C0002FEF8F3F9207D9F721E030E0C9011F912B
:1025D0000F910895808120952823208371CF209129
:1025E0006A0830916B082817390749F49FB7F894A7
:1025F0001092AC088091AC088093AD089FBF0895FD
:1026000020916A0830916B082817390731F49091AE
:10261000AD088091AC08981719F42FEF3FEF0AC06E
:10262000E091AD08F0E0E459F74F8081282F33277F
:1026300027FD3095C9010895EF92FF920F931F93E4
:102640007C01062F862F6ED0E02FF0E0A4D010E0A2
:10265000000F111F88E491E0FC01E00FF11FE491ED
:10266000D7011C96EC931C970F5F1F4F800F911F93
:10267000FC01849190E002961E969C938E931D9788
:102680001F910F91FF90EF9008951F93CF93DF93C9
:10269000EC01162F862F57D08F8981FD03C0E12FC3
:1026A000F0E079D01887812F90E0880F991FFC0106
:1026B000E85BFE4FE491E987875B9E4FFC016491E4
:1026C0006A871B86DF91CF911F910895FF920F9328
:1026D0001F938C01F62EFC01128288EE93E0A0E09D
:1026E000B0E083839483A583B68317828BEF95E054
:1026F00091838083108A1786128A118A148A138A1A
:10270000168A158A87892170220F8C7F822B878BEE
:10271000C801642F91DFC8016F2DB7DF1F910F91A2
:10272000FF900895893170F4E8E4F1E0880FE80F34
:10273000F11D9591E491F0E02FB7F8948181892BF8
:1027400081832FBF0895893128F5982F9B509C30A5
:1027500020F0A0E0B0E03FEF08C0EAE7F1E0990F19
:10276000E90FF11DA591B0E03591E8E4F1E0880FA3
:10277000E80FF11D9591E491F0E02FB7F894818175
:102780009095892381838281892382838C918323FD
:102790008C932FBF0895E93150F4EE0FE852FC4EB0
:1027A0000994E93120F4EE0FE65FFB4E0994089599
:1027B000289A0895299A08952A9A08952B9A089597
:1027C0002F9A6AC0589A58C0599A08955A9A0895EB
:1027D0005B9A0895469A66C0479A6AC05E9A0895C1
:1027E0005F9A6CC02C9A08952D9A4AC02E9A4EC0BA
:1027F0008F9A08958E9A08958D9A08958C9A0895C7
:10280000899A0895889A08955C9A08955D9A089522
:10281000769A089528980895299808952A980895F1
:102820002B9808952F9838C0589826C05998089525
:102830005A9808955B980895469834C0479838C0D0
:102840005E9808955F983AC02C9808952D9818C006
:102850002E981CC08F9808958E9808958D9808958D
:102860008C98089589980895889808955C9808959B
:102870005D98089576980895E4B5EF7DE4BD0895D8
:10288000E0918000EF77E09380000895E091800070
:10289000EF7DE09380000895E0918000E77FE09372
:1028A00080000895E0919000EF77E0939000089504
:1028B000E091C000EF77E093C0000895E091C2007E
:1028C000E77FE093C20008951DBA109268001CBC17
:1028D00010BE1FBA10927A0010926E0010926F0014
:1028E00010927100109272001092C900ECEBF0E0AF
:1028F000108214B817B81AB81DB810BA108215B8DB
:1029000018B81BB81EB811BA0895F89484B7877F19
:1029100084BF8091600080618093600010926000AD
:1029200080E29EE40197F1F781E08093E00080E28D
:102930008093D80080E69AEE0197F1F7C5DF0C94FA
:10294000003FFFCFF894C0DF80E69AEE0197F1F7E1
:102950000C940000FFCF8F938FB78F938091B608B0
:102960008D5F8D37D0F48093B6088091B2088F5F69
:102970008093B208D8F08091B3088F4F8093B3084A
:10298000A8F08091B4088F4F8093B40878F08091BC
:10299000B5088F4F8093B50809C08D578093B6084E
:1029A0008091B2088E5F8093B20828F78091AE08BC
:1029B0008C5F8093AE0858F08091AF088F4F809362
:1029C000AF0828F08091B0088F4F8093B0088F91A6
:1029D0008FBF8F9118959B01AC0114D0FB010CC0E7
:1029E00011D06E1B7F0B685E7340D0F321503040D6
:1029F00040405040E851FC4F21153105410551053B
:102A000079F708950FB6F89466B515B27091AE08CF
:102A10008091AF089091B0080FBE10FE05C06F3FC7
:102A200019F07C5F8F4F9F4F11240024660F001C0C
:102A3000660F001C70290895F894E1E6F0E020E8A4
:102A40002083108283E084BD85BDEEE6F0E08081C6
:102A50008160808391E09093800082E08093810088
:102A600090939000809391008093C00084E08093C5
:102A7000C1009093C2009093C3001092C40086E8F6
:102A800080937A0020937B0010927E0010927D004C
:102A90002ED578940895DC01FB0114968D919C91BC
:102AA0001597892B31F461157105A9F090E08081AB
:102AB00008C00D90BC91A02D6115710529F490E01E
:102AC0008C91882349F407C0CD010E9470019C01BC
:102AD00090E0232B09F491E0892F0895FC01DB019C
:102AE00014962D913C91159784819581821B930BAF
:102AF00084179507A0F080819181009781F06D91F6
:102B00007C916115710559F0840F951FA9010E94F0
:102B100080019C0180E0232B19F481E0089580E07E
:102B20000895FC01DB012481358114968D919C91DF
:102B300015972817390710F480E00895CF0140E079
:102B400050E0CCCFFC018081918163C30F931F9330
:102B5000CF93DF93EC018B016F5F7F4F8881998169
:102B6000F0D3009711F480E005C0998388831B831C
:102B70000A8381E0DF91CF911F910F910895CF9348
:102B8000DF93EC018A819B818617970758F4CE0169
:102B9000DDDF882341F08C819D81892B19F4E88148
:102BA000F981108281E0DF91CF910895EF92FF9239
:102BB0000F931F93CF93DF93EC017B018A014115A3
:102BC000510531F4E881F981309789F010820FC006
:102BD000BA01D5DF28813981882361F421153105B7
:102BE00021F0C90116D3198218821B821A821D8214
:102BF0001C8206C01D830C83C901B7010E947901A4
:102C0000CE01DF91CF911F910F91FF90EF9008952A
:102C1000CF93DF93EC01198218821B821A821D82E6
:102C20001C821E826115710549F0DB010D900020A8
:102C3000E9F71197A61BB70BAD01B8DFDF91CF9174
:102C40000895CF92DF92EF92FF920F931F93CF934D
:102C5000DF937C016B018A01C0E0D0E00FC0D60198
:102C60006D916D01D701ED91FC910190F081E02D06
:102C7000C7010995C80FD91F015010400115110552
:102C800071F7CE01DF91CF911F910F91FF90EF90DF
:102C9000DF90CF900895DF93CF930F92CDB7DEB73B
:102CA000FC016983A081B18112962D913C9113970B
:102CB000BE016F5F7F4F41E050E0F90109950F9031
:102CC000CF91DF910895FC019FB7F8948091C808D7
:102CD000882311F420E010C083E08093E900209164
:102CE000F200222349F48091E80082FF05C085FDAF
:102CF00003C08BE68093E8009FBF8085918597FD98
:102D000003C02F3F09F02F5F822F90E00895CF93EB
:102D1000DF93EC018885998597FF09C0E881F981E7
:102D20000680F781E02DCE010995998788878885EF
:102D30009985DF91CF910895FC012085318537FD7C
:102D400005C08FEF9FEF9187808722C02FB7F8943F
:102D50008091C808882369F083E08093E9009BE6AE
:102D60008091E80085FD09C082FF03C09093E800D0
:102D7000F7CF2FBF2FEF3FEF0CC09091F100809164
:102D8000E80085FD03C08BE68093E8002FBF292F64
:102D900030E0C90108959FB7F8948091C80888234E
:102DA00061F08091C308882341F084E08093E900BA
:102DB0008AE38093E8001092C3089FBF08956F9242
:102DC0007F928F929F92AF92BF92CF92DF92EF92BB
:102DD000FF920F931F93CF93DF933C018B01809160
:102DE000C808882329F481E0D30112968C9311C07E
:102DF0003FB7F89484E08093E9008091C508882368
:102E000069F08091E80085FD07C03FBF81E0E301E4
:102E10008A8388249924DAC01092C50888249924CA
:102E2000F4E0AF2EE0E4BE2E71EFE72EF12C6AE362
:102E3000C62E23E0D22EC5C09091E400915F809110
:102E4000E80085FD19C03FBF8091E400891731F487
:102E500081E08093C508F3018283B8C08091C808DF
:102E6000882329F481E0D30112968C93AFC03FB739
:102E7000F894A092E900E3CF8091F2002B2D281B5B
:102E8000822F90E04817590708F4242F622F70E032
:102E9000E801D701E0E4E21BE03428F4EE0FFF275D
:102EA000EC5AF84E099480C089918C9389918C9347
:102EB00089918C9389918C9389918C9389918C932E
:102EC00089918C9389918C9389918C9389918C931E
:102ED00089918C9389918C9389918C9389918C930E
:102EE00089918C9389918C9389918C9389918C93FE
:102EF00089918C9389918C9389918C9389918C93EE
:102F000089918C9389918C9389918C9389918C93DD
:102F100089918C9389918C9389918C9389918C93CD
:102F200089918C9389918C9389918C9389918C93BD
:102F300089918C9389918C9389918C9389918C93AD
:102F400089918C9389918C9389918C9389918C939D
:102F500089918C9389918C9389918C9389918C938D
:102F600089918C9389918C9389918C9389918C937D
:102F700089918C9389918C9389918C9389918C936D
:102F800089918C9389918C9389918C9389918C935D
:102F900089918C9389918C9389918C9389918C934D
:102FA00089918C9389918C938E018091E80085FDA5
:102FB00002C0C092E800461B570B860E971ED092A7
:102FC000C3084115510509F037CF3FBFC401DF9158
:102FD000CF911F910F91FF90EF90DF90CF90BF9016
:102FE000AF909F908F907F906F900895E7EBF8E0FF
:102FF0008AE0DF011D928A95E9F71092B90888EE00
:1030000093E0A0E0B0E08093BA089093BB08A0934F
:10301000BC08B093BD081092BE088BE096E0909378
:10302000B8088093B70808952FEF3FEFFC01318770
:1030300020875DD20FB6F8948091B2089091B308C2
:10304000A091B408B091B5080FBEAC018091C8083A
:10305000882329F068EC70E080E090E0BCCC80919F
:10306000C908882309F10FB6F8948091B2089091AD
:10307000B308A091B408B091B5080FBE9C0110C070
:103080000FB6F8948091B2089091B308A091B4085B
:10309000B091B5080FBE821B930B8B3F9105A8F42E
:1030A0008091C908882361F70FB6F8948091B2081F
:1030B0009091B308A091B408B091B5080FBE841BDD
:1030C000950B855C994008F4C1CF0895B5DC0E944A
:1030D00059100E94770FFDCF0F931F93CF93DF936B
:1030E000BC018230910510F462E070E0E091C60806
:1030F000F091C708A0E0B0E040E050E024C080813B
:10310000918186179707D0F08617970771F482810F
:103110009381109729F013969C938E9312972CC04D
:103120009093C7088093C60827C04115510519F030
:103130008417950718F4EF018D01AC01DF0182813E
:1031400093819C01F9013097D1F641155105F9F0B1
:10315000CA01861B970B8430910580F48A819B817C
:103160000115110521F0F8019383828304C0909327
:10317000C7088093C608FE01329645C0FE01E80FDD
:10318000F91F619371930297998388833CC0809162
:10319000C1089091C208892B41F48091EC04909170
:1031A000ED049093C2088093C1084091EE045091C1
:1031B000EF044115510541F44DB75EB78091EA0423
:1031C0009091EB04481B590B2091C1083091C20823
:1031D00024173507B0F4CA01821B930B8617970793
:1031E00080F0AB014E5F5F4F8417950750F0420FA0
:1031F000531F5093C2084093C108F9016193719322
:1032000002C0E0E0F0E0CF01DF91CF911F910F917C
:103210000895CF93DF939C01009709F48FC0EC01D0
:1032200022971B821A826091C6087091C7086115A7
:10323000710581F488819981820F931F2091C108C3
:103240003091C2082817390739F5D093C208C093C6
:10325000C10874C0DB0140E050E0AC17BD0708F1C5
:10326000BB83AA83FE0121913191E20FF31FAE17B8
:10327000BF0779F48D919C911197280F391F2E5F0C
:103280003F4F3983288312968D919C9113979B838E
:103290008A834115510571F4D093C708C093C608BD
:1032A0004DC012968D919C911397AD01009711F02E
:1032B000DC01D3CFDA011396DC93CE931297FA0197
:1032C00021913191E20FF31FCE17DF0769F4888156
:1032D0009981280F391F2E5F3F4FFA0131832083D8
:1032E0008A819B8193838283E0E0F0E0DB01129688
:1032F0008D919C911397009719F0BC01FD01F6CFB9
:10330000AB014E5F5F4FDB018D919C91840F951F48
:103310002091C1083091C2082817390779F43097F5
:1033200029F41092C7081092C60802C013821282B4
:10333000425050405093C2084093C108DF91CF9152
:1033400008956F927F928F929F92AF92BF92CF9289
:10335000DF92EF92FF920F931F93CF93DF938C0135
:10336000009721F4CB01B8DE8C01B1C08EEFE82EBE
:103370008FEFF82EE00EF11E4801860E971E8E1478
:103380009F0408F4A2C0D7014D915C911197461794
:103390005707B0F04530510508F499C0CA010497A9
:1033A0008617970708F493C042505040461B570BAE
:1033B000F401419351936D937C93CF012ADF87C031
:1033C0005B01A41AB50A3801640E751EA091C608E7
:1033D000B091C708E0E0F0E0CC24DD2447C0A6159A
:1033E000B705A9F5CD91DC911197CE0102968A150A
:1033F0009B0568F1CE018A199B09029612962C91C1
:10340000129713963C91059758F0F4012283338369
:10341000CA19DB09D183C083D7016D937C9309C09E
:103420004E5F5F4F4C0F5D1FF70151834083C90111
:10343000FC01C114D10431F0D6011396FC93EE9334
:10344000129745C0F093C708E093C60840C08D911D
:103450009C911197E817F90708F4FC016D01129689
:103460008C91129713969C919C01D901109709F0A9
:10347000B6CF8091C1089091C20886159705B1F426
:10348000E617F70798F48DB79EB72091EA043091BC
:10349000EB04821B930B88169906B8F49092C2082D
:1034A0008092C108F7017183608311C0CB0114DEE3
:1034B000EC01009751F0D7014D915C91B8010E9449
:1034C0006701C801A6DE8E0102C000E010E0C8015D
:1034D000DF91CF911F910F91FF90EF90DF90CF90F0
:1034E000BF90AF909F908F907F906F900895809144
:1034F000D80087FF02C085FF1BC081E08093D70002
:1035000080EA8093D80082E189BD09B400FEFDCF36
:1035100080E98093D8001092E0001092C8081092C1
:10352000C9081092CA081092E1008DE08093E20071
:1035300008951F920F920FB60F9211242F933F936D
:103540004F935F936F937F938F939F93AF93BF93AB
:10355000EF93FF931092E9008091E80083FF57C139
:103560002091F1009091F1004091F1005091F10013
:103570006091F1007091F100A091F100B091F10023
:1035800082EF8093E800963009F044C0E9EAF1E068
:1035900020E0859195918417950711F0359617C015
:1035A000859195918617970711F0339610C0259154
:1035B00035914491CD01AF3FB10519F010F08FEF77
:1035C00090E0841708F4482FF9015EEF04C02F5FE4
:1035D0002630F9F61CC18091E800282F30E0C9019F
:1035E00085709070892BB9F322FD14C1242F4132CC
:1035F00008F020E2922F04C085918093F100915051
:103600009923D1F7421B5093E800442321F720323D
:1036100011F300C1953061F48EEF8093E800809142
:10362000E80080FFFCCF842F80688093E300F2C025
:10363000993009F5222309F0EAC04093C808109296
:10364000CA081092C3088EEF8093E800E3EDF1E022
:1036500091E09093E90085918093EB00882331F00D
:1036600085918093EC0085918093ED009F5F95306C
:1036700081F78EE1C7C0983061F4203809F0C7C0E7
:103680008091E80080FFFCCF8091C8088093F10012
:1036900096C09132A9F4213A09F0B9C08091E800AE
:1036A00080FFFCCF20E030E0F901E051FB4F80814A
:1036B0008093F1002F5F3F4F27303105A9F77FC07E
:1036C000903209F04BC0213209F0A1C08091E8008E
:1036D00082FFFCCF20E030E0F901E051FB4F809108
:1036E000F10080832F5F3F4F27303105A9F78BEF23
:1036F0008093E8008EEF8093E8008091F004909131
:10370000F104A091F204B091F30486389105A1056B
:10371000B10519F48FE08093C4088091F004909172
:10372000F104A091F204B091F30486399105A1054A
:10373000B10509F06FC084E08093E9002FEF06C067
:103740002093E8008091E80082FDFCCF8091EE009C
:1037500090E083709070892B99F7F4D8923251F4ED
:10376000213209F054C04093CA088091E80080FFDC
:10377000FCCF25C0933241F4213209F048C080913A
:10378000E80080FFFCCF1BC09923E9F48091E8009A
:1037900080FFFCCF223811F080E00DC06093E9007B
:1037A0008091EB0090E025E0969587952A95E1F7CA
:1037B00081701092E9008093F1001092F1008EEF79
:1037C0008093E80027C0913011F0933001F522304A
:1037D000F1F4452BE1F4262F2F77822F815086308C
:1037E000B0F48EEF8093E8002093E900933079F0F5
:1037F00089E18093EB0081E090E002C0880F991F7F
:103800002A95E2F78093EA001092EA0003C081E271
:103810008093EB00FF91EF91BF91AF919F918F91BA
:103820007F916F915F914F913F912F910F900FBEBC
:103830000F901F9018951F920F920FB60F921124A0
:103840002F933F934F935F936F937F938F939F93A8
:10385000AF93BF93EF93FF938091E1001092E1004B
:10386000982F83FF11C01092E90081E08093EB0054
:103870001092EC0082E28093ED0088E08093F000EB
:103880001092C8081092CA0892FF1DC08091C80803
:103890008823C9F08091C308882359F08150809310
:1038A000C308882331F484E08093E9008AE380939D
:1038B000E8008091C408882331F081508093C408C7
:1038C000882309F422D890FF0CC080E18093E200A5
:1038D0001092C80881E08093C90880EA8093D800DC
:1038E00019BC8091C908882379F094FF0DC082E14A
:1038F00089BD09B400FEFDCF80E98093D8008DE03A
:103900008093E2001092C908FF91EF91BF91AF91AF
:103910009F918F917F916F915F914F913F912F91E7
:103920000F900FBE0F901F9018955058BB27AA27D5
:103930000ED04DC13ED130F043D120F031F49F3F45
:1039400011F41EF433C10EF4E095E7FB29C1E92F11
:103950004FD180F3BA17620773078407950718F0F1
:1039600071F49EF567C10EF4E0950B2EBA2FA02DD1
:103970000B01B90190010C01CA01A0011124FF271C
:10398000591B99F0593F50F4503E68F11A16F04017
:10399000A22F232F342F4427585FF3CF4695379516
:1039A0002795A795F0405395C9F77EF41F16BA0BDB
:1039B000620B730B840BBAF09150A1F0FF0FBB1F89
:1039C000661F771F881FC2F70EC0BA0F621F731FD2
:1039D000841F48F4879577956795B795F7959E3F2F
:1039E00008F0B3CF9395880F08F09927EE0F9795BD
:1039F000879508950CD0EBC0E3D040F0DAD030F0DA
:103A000021F45F3F19F0CCC0511115C1CFC0F0D0E7
:103A100098F39923C9F35523B1F3951B550BBB2795
:103A2000AA2762177307840738F09F5F5F4F220F42
:103A3000331F441FAA1FA9F333D00E2E3AF0E0E83B
:103A400030D091505040E695001CCAF729D0FE2F87
:103A500027D0660F771F881FBB1F26173707480719
:103A6000AB07B0E809F0BB0B802DBF01FF279358CF
:103A70005F4F2AF09E3F510568F092C0DCC05F3F67
:103A8000ECF3983EDCF3869577956795B795F795B7
:103A90009F5FC9F7880F911D9695879597F90895AF
:103AA000E1E0660F771F881FBB1F6217730784074B
:103AB000BA0720F0621B730B840BBA0BEE1F88F75A
:103AC000E095089504D06894B111B5C0089598D0D8
:103AD00088F09F5790F0B92F9927B751A0F0D1F0F7
:103AE000660F771F881F991F1AF0BA95C9F712C081
:103AF000B13081F09FD0B1E008959CC0672F782F3E
:103B00008827B85F39F0B93FCCF3869577956795EC
:103B1000B395D9F73EF490958095709561957F4F58
:103B20008F4F9F4F0895E89409C097FB3EF49095FE
:103B30008095709561957F4F8F4F9F4F9923A9F086
:103B4000F92F96E9BB279395F69587957795679515
:103B5000B795F111F8CFFAF4BB0F11F460FF1BC059
:103B60006F5F7F4F8F4F9F4F16C0882311F096E9EC
:103B700011C0772321F09EE8872F762F05C066239A
:103B800071F096E8862F70E060E02AF09A95660F53
:103B9000771F881FDAF7880F9695879597F908950C
:103BA00097F99F6780E870E060E008959FEF80ECF0
:103BB000089500240A941616170618060906089593
:103BC00000240A9412161306140605060895092EF9
:103BD0000394000C11F4882352F0BB0F40F4BF2B68
:103BE00011F460FF04C06F5F7F4F8F4F9F4F0895A8
:103BF00057FD9058440F551F59F05F3F71F047959E
:103C0000880F97FB991F61F09F3F79F08795089582
:103C1000121613061406551FF2CF4695F1DF08C0A1
:103C2000161617061806991FF1CF869571056105BE
:103C300008940895E894BB2766277727CB0197F966
:103C400008950BD0C4CFB5DF28F0BADF18F0952364
:103C500009F0A6CFABCF1124EECFCADFA0F3959F1A
:103C6000D1F3950F50E0551F629FF001729FBB2763
:103C7000F00DB11D639FAA27F00DB11DAA1F649F0F
:103C80006627B00DA11D661F829F2227B00DA11DC2
:103C9000621F739FB00DA11D621F839FA00D611D48
:103CA000221F749F3327A00D611D231F849F600D69
:103CB000211D822F762F6A2F11249F5750408AF0A2
:103CC000E1F088234AF0EE0FFF1FBB1F661F771F2E
:103CD000881F91505040A9F79E3F510570F060CF6A
:103CE000AACF5F3FECF3983EDCF386957795679516
:103CF000B795F795E7959F5FC1F7FE2B880F911D4C
:103D00009695879597F90895629FD001739FF0016A
:103D1000829FE00DF11D649FE00DF11D929FF00D5B
:103D2000839FF00D749FF00D659FF00D9927729F92
:103D3000B00DE11DF91F639FB00DE11DF91FBD011D
:103D4000CF0111240895AA1BBB1B51E107C0AA1F74
:103D5000BB1FA617B70710F0A61BB70B881F991F2C
:103D60005A95A9F780959095BC01CD01089597FBD0
:103D7000092E07260AD077FD04D0E5DF06D0002003
:103D80001AF4709561957F4F0895F6F79095819597
:103D90009F4F0895A1E21A2EAA1BBB1BFD010DC067
:103DA000AA1FBB1FEE1FFF1FA217B307E407F507EB
:103DB00020F0A21BB30BE40BF50B661F771F881FC7
:103DC000991F1A9469F760957095809590959B015D
:103DD000AC01BD01CF01089597FB092E05260ED039
:103DE00057FD04D0D7DF0AD0001C38F45095409519
:103DF000309521953F4F4F4F5F4F0895F6F79095BF
:103E00008095709561957F4F8F4F9F4F0895EE0F6E
:103E1000FF1F0590F491E02D099412E0CAE7D2E06B
:103E200003C0FE01F6DF2296CC37D107D1F7F89414
:023E3000FFCFC2
:103E320041524D494E47204D4F544F5253005072FC
:103E42006541726D3A205243206E6F742063616C3B
:103E5200696272617465640050726541726D3A20E4
:103E62004261726F206E6F74206865616C7468794C
:103E72000050726541726D3A20416C74206469731E
:103E82007061726974790050726541726D3A2043B3
:103E92006F6D70617373206E6F74206865616C74EE
:103EA20068790050726541726D3A20436F6D70619E
:103EB2007373206E6F742063616C696272617465E2
:103EC200640050726541726D3A20436F6D70617388
:103ED20073206F66667365747320746F6F206869F0
:103EE20067680050726541726D3A20436865636B82
:103EF200206D6167206669656C640050726541726D
:103F02006D3A20494E53206E6F742063616C696272
:103F120072617465640050726541726D3A20494E57
:103F220053206E6F74206865616C746879005072FA
:103F32006541726D3A20436865636B20426F61721E
:103F42006420566F6C746167650050726541726DD2
:103F52003A20436865636B2046535F5448525F566C
:103F6200414C55450050726541726D3A2043686577
:103F7200636B20414E474C455F4D4158005072657E
:103F820041726D3A204143524F5F42414C5F524F62
:103F92004C4C2F50495443480050726541726D3A5F
:103FA2002047505320476C69746368005072654122
:103FB200726D3A204E65656420334420466978006C
:103FC20050726541726D3A204261642056656C6F91
:103FD200636974790050726541726D3A204869676D
:103FE20068204750532048444F5000507265417238
:103FF2006D3A20416363656C7320696E636F6E7303
:10400200697374656E740050726541726D3A204135
:104012006363656C73206E6F74206865616C74688D
:10402200790050726541726D3A20426164204750B6
:104032005320506F730050726541726D3A20426195
:104042007474657279206661696C73616665206F4C
:104052006E2E0050726541726D3A20636F6D706111
:104062007373657320696E636F6E73697374656EC3
:10407200740050726541726D3A204779726F206305
:10408200616C206661696C65640050726541726D95
:104092003A204779726F7320696E636F6E7369732A
:1040A20074656E740050726541726D3A2047797280
:1040B2006F73206E6F74206865616C74687900504C
:1040C200726541726D3A20526164696F206661695E
:1040D2006C73616665206F6E2E0041726D3A2041ED
:1040E2006C74206469737061726974790041726DD5
:1040F2003A205468722062656C6F77204653004103
:10410200726D3A204D6F6465206E6F742061726D1E
:1041120061626C650041726D3A20526F746F722059
:104122006E6F74207370696E6E696E670041726D96
:104132003A2054687220746F6F206869676800447F
:10414200495341524D494E47204D4F544F5253000F
:104152005468726F74746C652061726D65642100BD
:104162005468726F74746C652064697361726D65F2
:1041720064210043616C6962726174696E672062D6
:1041820061726F6D65746572006261726F6D6574E4
:1041920065722063616C6962726174696F6E20631B
:1041A2006F6D706C657465004C6F7720426174743A
:1041B20065727921004C6F7374204750532100526D
:1041C20065616368656420436F6D6D616E64202371
:1041D20000666C6967687420706C616E207570642B
:1041E2006174652072656A656374656400666C69F2
:1041F20067687420706C616E2072656365697665AC
:1042020064004672616D653A2000FFFFFFFF03FF05
:1042120000FF000B006B01B33F408000CB080000A1
:1042220000E10000000008327C8900EDD9687700C7
:104232000000590000000000000000D69FDCA81812
:1042420017AA90437327F6B968EDF4DED409FEE6A7
:104252001C1C84DDE80B992927D6DF8D210F03640E
:1042620018EFEE1EF0B7828200941500347C000035
:10427200001400988F000000000000000000000001
:10428200E7B73F3600000000000000AF669ED0385E
:10429200000000000000000000000000000000001C
:1042A200000000000000000000000000000000000C
:1042B2000000000000000000000000000086DBD0CB
:1042C200BC5416131586004E44BD7F6F1515900120
:1042D20000000000000000000000000000000000DC
:1042E20000000000000000000000000000000000CC
:1042F20000000000000000000000000000000000BC
:1043020000000000000000000000000000000000AB
:10431200000000000000000000000000000000009B
:10432200CC31AA2C532E0000000000401221162688
:104332001205120013EF12000000004B16DF166385
:08434200169C168716CB16002D
:00000001FF
