:1000000000800020BD010000AD2D0000AD2D0000DE
:10001000AD2D0000AD2D0000AD2D0000792D0000AC
:10002000792D0000792D0000792D0000AD2D000004
:10003000AD2D0000792D0000AD2D0000692D0000D0
:10004000AD2D0000AD2D0000AD2D0000AD2D000048
:10005000AD2D0000AD2D0000AD2D0000AD2D000038
:10006000AD2D0000AD2D0000AD2D0000AD2D000028
:10007000AD2D0000AD2D0000AD2D0000AD2D000018
:10008000AD2D0000AD2D0000AD2D0000AD2D000008
:10009000AD2D0000AD2D0000AD2D0000AD2D0000F8
:1000A000AD2D0000AD2D0000AD2D0000AD2D0000E8
:1000B000AD2D0000AD2D0000AD2D0000AD2D0000D8
:1000C000AD2D0000AD2D0000AD2D0000AD2D0000C8
:1000D000AD2D0000AD2D0000AD2D0000AD2D0000B8
:1000E000AD2D0000AD2D0000AD2D0000AD2D0000A8
:1000F000AD2D000099280000AD2D0000C1220000A8
:10010000AD2D0000E9340000AD2D0000AD2D000044
:10011000AD2D0000AD2D0000AD2D0000AD2D000077
:10012000AD2D0000AD2D0000AD2D0000AD2D000067
:10013000AD2D0000AD2D0000AD2D0000AD2D000057
:10014000AD2D0000AD2D0000AD2D0000AD2D000047
:10015000AD2D0000AD2D0000AD2D0000AD2D000037
:10016000AD2D000031370000AD2D0000AD2D000099
:10017000AD2D0000AD2D0000AD2D0000AD2D000017
:10018000AD2D0000AD2D0000AD2D0000AD2D000007
:10019000AD2D0000AD2D0000AD2D00009D2900000B
:1001A000ED290000752A0000312B0000B52B00005E
:1001B000AD2D0000AD2D0000AD2D0000544B4CF2D4
:1001C000205210B51A804DF628121A8000BF00BFC9
:1001D00002F0F0FD4F4B4FF010621A604E4A9A60E9
:1001E0004E4ADA604E4B1A6812F4807204D14D49BF
:1001F0000A604FF4A8521A604B4B1A7802F00802BA
:10020000D2B21AB11A7842F008021A70474B484825
:10021000484C2A221A700023474A02E01959995083
:10022000043399188142F9D3444B454A002101E037
:1002300043F8041B9342FBD34249434800231A5816
:100240005A500433B3F5DE7FF9D1404B404A802148
:1002500003F8011B9342FBD13A4A3E4B1A603E4BD6
:100260000A221A703D4B24221A70A02203F8012C96
:100270003B4A137803F00203DBB2002BF9D0384A73
:10028000137803F01003DBB2002BF9D1344A137852
:1002900003F00C03082BFAD1324B05221A704322CB
:1002A0005A702F4A137803F02003DBB2002BF9D0E9
:1002B0002B4A137803F04003DBB2002BF9D02A4B12
:1002C0004FF081721A6005225A60284B20221A7062
:1002D000234A137803F00C030C2BFAD1244A254B44
:1002E0001A60254B254A1A60072243F8042C62B68F
:1002F00002F0FAFC0B4B1B68DC0702D5204802F029
:1003000071FC04F0A9FE02F05BFD02F03CFFFEE789
:100310000E20054030800440823F04000100002B85
:1003200010D0034014D0034002D0074000E0074043
:10033000248DFF1FD47100006087FF1F288DFF1FD1
:100340002493FF1F0082FF1F0000000000E400E074
:100350005FE400E008ED00E0005006400140064088
:1003600006400640044006404480044000400640E9
:10037000C01005000480044014E000E03F190100B3
:10038000B13FEE54FFFFFFFFFFFFFFFFFFFFFFFF47
:10039000FFFFFFFFFFFFFFFFFFFFFFFFFFFFFFFF6D
:1003A000FFFFFFFFFFFFFFFFFFFFFFFFFFFFFFFF5D
:1003B000FFFFFFFFFFFFFFFFFFFFFFFFFFFFFFFF4D
:1003C000FFFFFFFFFFFFFFFFFFFFFFFFFFFFFFFF3D
:1003D000FFFFFFFFFFFFFFFFFFFFFFFFFFFFFFFF2D
:1003E000FFFFFFFFFFFFFFFFFFFFFFFFFFFFFFFF1D
:1003F000FFFFFFFFFFFFFFFFFFFFFFFFFFFFFFFF0D
:10040000FFFFFFFFFFFFFFFFFFFFFFFFFEFFFFFFFD
:1004100008B548F62450074BC1F6FF701B1A062B8F
:1004200000D808BD40F20003C0F20003002BF8D052
:100430009847F6E7278DFF1F08B548F6245048F681
:100440002453C1F6FF70C1F6FF731B1A9B1003EB18
:10045000D373591000D108BD40F20002C0F200026F
:10046000002AF8D09047F6E710B548F62854C1F6B0
:10047000FF74237873B9FFF7CBFF40F20003C0F29B
:1004800000032BB147F2D410C0F20000AFF300809C
:100490000123237010BD00BF08B540F20003C0F275
:1004A00000034BB147F2D41048F62C51C0F20000C3
:1004B000C1F6FF71AFF3008048F62450C1F6FF701B
:1004C00003682BB140F20003C0F2000303B1984768
:1004D000BDE80840B0E700BF0B88584080EA001034
:1004E000C0B2C20082EA002282EA132383EA10101B
:1004F00008807047164BF7B5FE229A700622DA7014
:10050000FF225A71BE229A71124A917902AD197175
:10051000013191714FF6FF7225F8022D00261F461A
:10052000BB192946D8780A4C0136FFF7D5FF0B2EA8
:10053000F6D194202946FFF7CFFFE278BDF80630C8
:10054000A2180E201372E278A4181B126372FEBD6B
:10055000188FFF1F448DFF1F38B5044608460D460F
:1005600002F056FC236802465B68204629469847FD
:1005700038BD08B50368C9B21B68984708BDFFFFBE
:10058000104A137873B940F6B83398420E4B07D926
:100590001988411AB1F5FA7F02DA01231370704706
:1005A00018807047094B1A6882181A60084B1A881D
:1005B00001321A80074A13880BB1984200D210808A
:1005C000704700BF628EFF1F748EFF1F948FFF1F46
:1005D000A08FFF1FDA8EFF1F054B1B783BB1054B29
:1005E0001A6812181A60044B1A8801321A80704770
:1005F000628EFF1FDC8EFF1FD88EFF1F054B1888F1
:1006000038B105490A68B2FBF0F0002280B20A60F6
:100610001A807047A08FFF1F948FFF1F094B188807
:1006200070B1094B1A68002A1946A8BF92FBF0F076
:10063000044A4FF00003ACBF80B218460B60138031
:10064000704700BFD88EFF1FDC8EFF1F084B1A6853
:10065000042A01DC01321A60064BDA681A619A68D2
:10066000DA605A689A601A6883E80500704700BF2C
:10067000F48EFF1F7C8EFF1F084B1A68042A01DCD2
:1006800001321A60064BDA681A619A68DA605A68B1
:100690009A601A6883E80500704700BFF88EFF1F54
:1006A000448EFF1F084B1A68042A01DC01321A60CD
:1006B000064BDA681A619A68DA605A689A601A68B2
:1006C00083E80500704700BF9C8FFF1FE08EFF1F6F
:1006D0000A4B0B4830B54FF4FA421C68094D002311
:1006E00008E055F8231001338A42A8BF0A46884221
:1006F000B8BF0846A342F4DB801A30BDF48EFF1F5A
:100700000083FFFF7C8EFF1F0A4B0B4830B54FF470
:10071000FA421C68094D002308E055F82310013304
:100720008A42A8BF0A468842B8BF0846A342F4DB03
:10073000801A30BDF88EFF1F0083FFFF448EFF1F1D
:100740000A4B0B4830B54FF4FA421C68094D0023A0
:1007500008E055F8231001338A42A8BF0A468842B0
:10076000B8BF0846A342F4DB801A30BD9C8FFF1F40
:100770000083FFFFE08EFF1F70B5064686B00C4673
:100780000846B24902F02CFC002840F0D8842046EC
:10079000AF4902F025FC002840F0D384AD4902A8FF
:1007A00002F00BFC204602A902F045FC054602A817
:1007B00002F0C2FB002D40F0C6842046A64902F09C
:1007C0000FFC002840F0C184A44902A802F0F5FB08
:1007D000204602A902F02FFC054602A802F0ACFB5D
:1007E000002D40F0B48420469D4902F0F9FB00281A
:1007F00040F0AF8420469B4902F0F2FB002840F015
:10080000AA842046984902F0EBFB002840F0A5841A
:100810002046964902F0E4FB002840F0A0842046E0
:10082000934902F0DDFB002840F09B84204691496B
:1008300002F0D6FB002840F0968420468E4902F054
:10084000CFFB002840F0918420468C4902F0C8FB81
:10085000002840F08C842046894902F0C1FB002822
:1008600040F087842046874902F0BAFB002840F018
:1008700082842046844902F0B3FB002840F07D8446
:100880002046824902F0ACFB002840F078842046E4
:100890007F4902F0A5FB002840F0738420467D4983
:1008A00002F09EFB002840F06E8420467A4902F058
:1008B00097FB002840F069842046784902F090FBBD
:1008C000002840F064842046754902F089FB002826
:1008D00040F05F842046734902F082FB002840F01C
:1008E0005A842046704902F07BFB002840F0558472
:1008F00020466E4902F074FB002840F050842046E8
:100900006B4902F06DFB002840F04B84204669499A
:1009100002F066FB002840F046842046664902F05B
:100920005FFB002840F041842046644902F058FBF8
:10093000002840F03C842046614902F051FB002829
:1009400040F0378420465F4902F04AFB002840F01F
:10095000328420465C4902F043FB002840F02D849D
:1009600020465A4902F03CFB002840F028842046EB
:10097000574902F035FB002840F0238420465549B2
:1009800002F02EFB002840F01E842046524902F05F
:1009900027FB002840F019842046504902F020FB34
:1009A000002840F0148420464D4902F019FB00282D
:1009B00040F00F8420464B4902F012FB002840F023
:1009C0000A842046484902F00BFB002840F00584C9
:1009D0002046464902F004FB002840F000842046EF
:1009E000434902F0FDFA002840F0FB8320464149CC
:1009F00002F0F6FA002840F0F68320463E4902F065
:100A0000EFFA002840F0F18320463C4902F0E8FA72
:100A1000002840F0EC832046394902F0E1FA002832
:100A200040F0E7832046374902F0DAFA002840F028
:100A3000E2832046344902F0D3FA002840F0DD83F7
:100A40002046324902F0CCFA62E000BFCC650000DB
:100A500098620000B2620000CB620000E162000018
:100A6000FD6200001C6300003D6300005563000050
:100A70007063000088630000A4630000C763000087
:100A8000E2630000FA6300001664000029640000BD
:100A90003D6400005264000068640000846400004B
:100AA0009F640000B3640000D0640000EF640000A5
:100AB00007650000226500003C650000CE62000072
:100AC00057650000696500007665000089650000D3
:100AD0009F650000B7650000C9650000DA65000089
:100AE000EA650000FD650000136600003266000044
:100AF0004B6600005D6600006F66000081660000C6
:100B000092660000A3660000B8660000CB66000095
:100B1000002840F074832046624902F061FA002800
:100B200040F06F832046604902F05AFA002840F0F6
:100B30006A8320465D4902F053FA002840F065833D
:100B400020465B4902F04CFA002840F060832046C2
:100B5000584902F045FA002840F05B832046564988
:100B600002F03EFA002840F056832046534902F036
:100B700037FA002840F051832046514902F030FAFC
:100B8000002840F04C8320464E4902F029FA002804
:100B900040F0478320464C4902F022FA002840F0FA
:100BA00042832046494902F01BFA002840F03D8369
:100BB0002046474902F014FA002840F038832046C6
:100BC000444902F00DFA002840F0338320464249A0
:100BD00002F006FA002840F02E8320463F4902F03A
:100BE000FFF9002840F0298320463D4902F0F8F93A
:100BF000002840F0248320463A4902F0F1F9002809
:100C000040F01F832046384902F0EAF9002840F0FE
:100C10001A832046354902F0E3F9002840F0158395
:100C20002046334902F0DCF9002840F010833149B6
:100C300002A802F0C2F9204602A902F0FCF905461A
:100C400002A802F079F9002D40F003832A4902A896
:100C500002F0B3F9204602A902F0EDF9054602A818
:100C600002F06AF9002D40F0F6822046234902F096
:100C7000B7F9002840F0F1822046214902F0B0F98E
:100C8000002840F0EC8220461E4902F0A9F9002815
:100C900040F0E78220461C4902F0A2F9B0B33725A4
:100CA0004FE300BFD8660000E8660000F56600006C
:100CB000FF6600000A6700001C670000A0620000D9
:100CC0002A6700003767000042670000576700008E
:100CD0005F670000686700008067000088670000A9
:100CE000A3670000C1670000DB670000F167000038
:100CF0000B6800001F6800002C6800003F680000BF
:100D00005D6800007C680000966800002046B149DC
:100D100002F066F90028C2D12046AF4902F060F91E
:100D2000002840F0A0822046AC4902F059F9002882
:100D300040F09B822046AA4902F052F9002840F078
:100D400096822046A74902F04BF9002840F0918294
:100D50002046A54902F044F9002840F08C82A349BE
:100D600002A802F02AF9204602A902F06DF9054610
:100D700002A802F0E1F8002D40F07F8220469C4955
:100D800002F02EF9002840F07A822046994902F0BC
:100D900027F9002840F075822046974902F020F993
:100DA000002840F070822046944902F019F900288A
:100DB00040F06B82924902A802F0FFF8204602A997
:100DC00002F042F9054602A802F0B6F8002D40F004
:100DD0005E8220468B4902F003F9002840F05982D8
:100DE0002046894902F0FCF8002840F05482204651
:100DF000864902F0F5F8002840F04F82844902A8A5
:100E000002F0DBF8204602A902F015F9054602A817
:100E100002F092F8002D40F0428220467D4902F017
:100E2000DFF8002840F03D8220467B4902F0D8F8E8
:100E3000002840F038822046784902F0D1F8002896
:100E400040F033822046764902F0CAF8002840F08C
:100E50002E822046734902F0C3F8002840F0298210
:100E60002046714902F0BCF8002840F02482204658
:100E70006E4902F0B5F8002840F01F8220466C4908
:100E800002F0AEF8002840F01A822046694902F0CC
:100E9000A7F8002840F015822046674902F0A0F824
:100EA000002840F010822046644902F099F800289A
:100EB00040F00B822046504902F092F8002840F0A2
:100EC000068220465E4902F08BF8002840F001823D
:100ED00020465C4902F084F8002840F0FC8120465E
:100EE000594902F07DF8002840F0F7812046574923
:100EF00002F076F8002840F0F2812046544902F0D2
:100F00006FF8002840F0ED812046524902F068F861
:100F1000002840F0E88120464F4902F061F800289F
:100F200040F0E38120464D4902F05AF8002840F095
:100F3000DE8120464A4902F053F8002840F0D9816A
:100F40002046484902F04CF8002840F0D481204661
:100F5000454902F045F8002840F0CF81204643493A
:100F600002F03EF8002840F0CA812046404902F0D5
:100F700037F8002840F0C58120463E4902F030F89D
:100F8000002840F0C08120463B4902F029F80028A3
:100F900040F0BB812046394902F022F8002840F099
:100FA000B6812046364902F01BF8002840F0B18196
:100FB0002046344902F014F8002840F0AC81204665
:100FC000314902F00DF8002840F0A7812F4902A80E
:100FD0005EE000BFAC680000C7680000D468000095
:100FE00009690000F8680000166900003269000015
:100FF000406900006D690000796900008C6900009B
:101000009E690000B0690000DF690000026A00000C
:101010001F6A00002F6A00003C6A00004E6A000050
:10102000586A0000756A0000966A0000B96A0000FC
:10103000C66A0000E26A0000FD6A00000F6B000053
:101040002A6B0000436B0000536B00007D6B0000B7
:10105000B26B0000D96B0000FE6B00000F6C00004B
:10106000256C0000326C0000466C0000596C0000DA
:10107000716C0000A06C0000B26C0000CC6C000031
:10108000EF6C00000B6D0000226D0000316D000060
:1010900001F093FF204602A901F0CDFF054602A80A
:1010A00001F04AFF002D40F03A8120469E4901F0B0
:1010B00097FF002840F0358120469C4901F090FFC1
:1010C000002840F03D819A4902A801F076FF2046B1
:1010D00002A901F0B0FF054602A801F02DFF0DB1F5
:1010E00000252EE1934902A801F067FF204602A9DE
:1010F00001F0A1FF054602A801F01EFF002DEFD16F
:101100008D4902A801F059FF204602A901F093FF82
:10111000054602A801F010FF002DE1D1874902A881
:1011200001F04BFF204602A901F085FF054602A809
:1011300001F002FF002DD3D140F2FF3501E101257E
:10114000FFE00225FDE00325FBE00425F9E005258D
:10115000F7E00625F5E00725F3E00825F1E009258D
:10116000EFE00A25EDE00B25EBE00C25E9E00D258D
:10117000E7E00E25E5E00F25E3E01025E1E011258D
:10118000DFE01225DDE01325DBE06F25D9E07025D7
:10119000D7E07125D5E07225D3E07325D1E0742521
:1011A000CFE07525CDE07625CBE07725C9E0142585
:1011B000C7E01525C5E01625C3E01725C1E0642565
:1011C000BFE06525BDE06625BBE05925B9E078257F
:1011D000B7E07925B5E05A25B3E05B25B1E05C25A1
:1011E000AFE01825ADE01925ABE01A25A9E01B25D5
:1011F000A7E01C25A5E01D25A3E01E25A1E01F25D5
:101200009FE07D259DE020259BE0212599E022257A
:1012100097E0232595E0242593E0252591E02625D8
:101220008FE027258DE028258BE0292589E02A25D8
:1012300087E02B2585E02C2583E02D2581E02E25D8
:101240007FE02F257DE030257BE0312579E05D25AD
:1012500077E0322575E0332573E0342571E03525DC
:101260006FE036256DE038256BE0392569E05E25B5
:1012700067E05F2565E0602563E03D2561E061256D
:101280005FE03E255DE03B255BE03C2559E06225C3
:1012900057E0632555E03F2553E0402551E06E259A
:1012A0004FE041254DE042254BE0432549E04425F0
:1012B00047E0452545E0462543E0472541E04825F0
:1012C0003FE049253DE04A253BE04B2539E04C25F0
:1012D00037E04D2535E04E2533E04F2531E05025F0
:1012E0002FE051252DE07C252BE0522529E05325C8
:1012F00027E0542525E0552523E0672521E07A25C0
:101300001FE068251DE07B251BE0692519E06A25A3
:1013100017E06B2515E06C2513E06D2511E05825CD
:101320000FE056250DE000BF436D00005F6D00002B
:10133000746D00007C6D0000896D0000956D0000EB
:101340005725144B14481D80144B1B6801930A2227
:101350000023019901F0D6FE11490F48FFF7FCF870
:1013600031460D4801F006FF0E490B48FFF7F4F82F
:101370002146094801F096FE0B490748FFF7ECF8B3
:101380002946054801F0F6FE034801F0ADFE06B01F
:1013900070BD00BF608EFF1F4491FF1F2C91FF1F87
:1013A0009B6D0000B86D0000C26D0000FFFFFFFFE5
:1013B0002DE9F041A2B00DF1500804E2A24D00F079
:1013C00035FF00232B70EB780746C4B2092B00F2DF
:1013D0009580DFE803F00505122A2331384556745D
:1013E000FE2C40F08B800223EB70984B0022DA70C9
:1013F0004FF6FF729C701A8080E0652C04D96B78E0
:1014000001336B70012307E0904900232B71CC70EE
:101410002046FFF761F80423EB706FE08B4920460C
:101420000C71FFF759F80323F6E7884920464C7101
:10143000FFF752F80523EFE7844920468C71FFF748
:101440004BF80623E8E7814D2046EC712946FFF76B
:1014500043F8EA787C4B0AB9082239E0072237E0E2
:101460002B797A4FFA18013314722B7120463946C2
:10147000FFF732F82A79FB789A423FD10822724B63
:1014800026E0724D724AEB792946D05CFFF724F8CA
:101490002B78FFB29F426C4B0BD00022FE2C1A70AF
:1014A00000D014E00221D9704FF6FF73EA702B8050
:1014B00024E00922DA701B79ED182C721EE0634FCC
:1014C0003B88B4EB132F0DD0FE2C5F4B02D00122D2
:1014D000DA7013E00222DA700023FB704FF6FF731C
:1014E0003B800BE001232B70EB702B79FB1806A8D7
:1014F0005C723946702204F0B7F8FE79524B1978C5
:10150000012907D1514A12795A711A8902B95A81AF
:1015100001321A814C4B00229A70002900F053814D
:101520001B2E00F0DD8006D8012E55D00CD3182ECE
:1015300040F04981AAE04A2E00F02881FD2E28D0F3
:101540001E2E40F04081DFE09DF82610414B21F037
:101550007F010729D4BF002101211970089B3E4952
:101560000B603E4B1B68019301993D4B19603D4B4D
:101570001988881C013189B20A29188040F2238118
:101580001A803948394B01210170187801F03AFB73
:1015900019E1374B08AA144603CC083343F8080C6A
:1015A00043F8041C44452246F5D12188A2781980CD
:1015B0002F499A7011F8014B2E4B1C802E4B05229F
:1015C00002A81A8001F0F9FC204602A9FFF7D4F81E
:1015D00002A801F0B1FCF6E0BDF83030274D9DF8CF
:1015E0003E20BDF82E00264C2B80264B20801A7002
:1015F000FEF7C6FFB5F90000FEF7EEFF238845F2BF
:101600000822934212D844F25C42934210D843F22B
:10161000CE1293420ED842F2341293420CD841F2C9
:101620009A0293428CBF0223002306E0062304E0C3
:10163000052302E0042300E00323134A11789942B2
:1016400080F0C1801370BEE0448DFF1FD08DFF1F5E
:10165000CD6D0000658EFF1F6487FF1F2C91FF1F5B
:101660009C8EFF1FFC8EFF1F6C8EFF1F7087FF1F5D
:10167000A08EFF1F6C87FF1F788EFF1F048FFF1F38
:10168000888FFF1F988FFF1F8A8FFF1F9DF83C30A8
:10169000554A564913709DF83D200A7012B2D10088
:1016A00001EB42025249D2180A60BDF83410890891
:1016B0004A1EFE2A4F4A88BFFF21032B11800BD1FF
:1016C0000A9B4D4A13600B9B4C4A13604C4A0C9B7F
:1016D0001360BDF8382000E000224A4B1A6072E027
:1016E000BDF928000A2490FBF4F0FEF7AFFFBDF926
:1016F0002A0090FBF4F0FEF7BFFFBDF92C0090FB31
:10170000F4F0FEF7CFFF5EE03F4909983F4C03F04D
:101710000DFB02F04FFF30A3D3E9002303F0C8F81C
:1017200003F0AEF93A4B384918605A30B4280A9899
:1017300009D803F0FBFA02F03DFF27A3D3E9002309
:1017400003F0B6F80EE003F0F1FA02F033FF22A343
:10175000D3E9002303F0ACF802460B4600202D49E4
:1017600002F0C8FD03F08CF920600B9802F022FF14
:1017700019A3D3E9002302F0BFFD19A3D3E9002385
:1017800002F06CFF03F0A4F9234B1BE0099803F06F
:1017900043FC224BBDF930201860214B21491A60CF
:1017A000BDF83220204B0A981A8003F0BFFA03F0EC
:1017B0000DFC1E4B1B4918600B9803F0B7FA03F0A1
:1017C00005FC1B4B186000F023FD00287FF4F6ADEC
:1017D00022B0BDE8F08100BFA7E8482EFF210940F4
:1017E00029ED0DBE305F64406E87FF1F998FFF1F8C
:1017F000688EFF1F6087FF1F088FFF1F908EFF1FDF
:101800005C8EFF1FC88DFF1F00003443C48DFF1F77
:101810008C8FFF1F00806640D48EFF1F008FFF1F3C
:10182000408EFF1F0000C842988EFF1F108FFF1FC1
:10183000908FFF1FAFF3008008B540F6C41000F092
:101840005BFE034B1022A0219A7199705A7108BD5A
:1018500000A0064013B5FFF7EFFF40F6C41000F0FC
:101860005FFB124B00241C70114B1A680092009908
:101870001B68104A019311600F4B019A1A600F4BBD
:101880001C800F4B0121187801F0DCF90C2001219C
:1018900001F0D8F90E20214601F0D4F90D2000F016
:1018A00001FE204600F0DAFD1CBD00BF6C8EFF1F5C
:1018B0002C91FF1F9C8EFF1FC08DFF1FFC8EFF1FF2
:1018C0007087FF1F044B1A88801800EB102000F06F
:1018D000FF001880704700BF968EFF1F7E2810B54E
:1018E000044606D17D210C48FEF743FE0A485E21DE
:1018F00007E07D2808D121460748FEF73AFE064852
:101900005D21FEF736FE01E000F0ACFE2046BDE8AA
:101910001040FFF7D7BF00BF3091FF1F10B5054C37
:101920000548B4F90010C1F1FF01FEF722FE0023C3
:10193000238010BD968EFF1F3091FF1F13B51C4BE7
:1019400000911B78ADF8060023B11A4B01211878DD
:1019500001F058F9184CA37943F02003A37110202B
:10196000FFF7BCFF9DF80600FFF7B8FF9DF80700E2
:10197000FFF7B4FF9DF80000FFF7B0FF9DF80100EE
:10198000FFF7ACFF9DF80200FFF7A8FF9DF80300EA
:10199000FFF7A4FFFFF7C2FF00F00AFFA37983F06F
:1019A0002003A371034B0021187801F02BF91CBD13
:1019B0006C8EFF1F7087FF1F00A00640832870B544
:1019C00000F0CB8008D8222800F09680452800F04F
:1019D0003981002876D070BDC62800F03381E42814
:1019E00000F02181A12840F0DB819F4B1B78002B68
:1019F00000F0D6819D4A11789D4A19B99D48048806
:101A0000018014801288002A00F0CA81052952D86A
:101A1000DFE801F0030C19263340590092FBF1F284
:101A200012051B0142EA1232D9B23FE0022B42D921
:101A3000590092FBF1F21B011205DBB242EA1232AD
:101A400043F0020132E0042B35D9590092FBF1F248
:101A50001B011205DBB242EA123243F0040125E019
:101A6000062B28D9590092FBF1F21B011205DBB2BB
:101A700042EA123243F0060118E0082B1BD9590044
:101A800092FBF1F21B011205DBB242EA123243F083
:101A900008010BE00A2B0ED9590092FBF1F21B0151
:101AA0001205DBB242EA123243F00A014FF44070F1
:101AB0001143FFF743FF6D4B1A780132D2B21A700F
:101AC000022A6AE16C4C237813B1012B0AD103E09E
:101AD0004FF48870694B02E0694B4FF480701968CD
:101AE000FFF72CFF23780133DBB2012B237040F288
:101AF00057810022604B52E1624B1B88012B40F260
:101B00004F81614B1B783BB9FEF778FD5F4B188026
:101B1000FEF784FD5E4B18805C4B1B88002B00F0A9
:101B20003F81594A127812B1012A0FD105E00A21EA
:101B30004FF40470B3FBF1F106E0554B19880A230A
:101B40004FF40070B1FBF3F1FFF7F8FE4E4B1A783B
:101B50000132D2B21A70012A1FE14E4B1B78042BBE
:101B60005AD8DFE803F0031D3B4751004A4B1B786E
:101B7000032B51D1494B4A4A1B68002B4FF064019B
:101B800007DA5B4293FBF1F10623594341F04041F0
:101B900018E093FBF1F306214B4343F0004317E0B9
:101BA0003D4B1B78032B37D13E4B3D4A1B68002B26
:101BB0004FF0640108DA5B4293FBF1F106235943CD
:101BC00041F08041116004E093FBF1F306214B43A7
:101BD0001360334B4FF4006019681BE02E4B1B78E9
:101BE000032B19D1304B19680A234FF4026091FB83
:101BF000F3F10FE0284B1B78032B0DD12B4B4FF447
:101C000003601B68142104E0294B1B684FF4046037
:101C100064215943FFF792FE1E4B1A780132D2B26B
:101C20001A70042AB9E0234B1A88234B93F9003029
:101C3000642101FB02314FF4A0604900BDE870400F
:101C4000FFF77CBE1D4B1B78082B00F2A080DFE85D
:101C500003F005393F454B5063799600184B4FF21E
:101C60000310198891E000BF8A8FFF1F638EFF1F4A
:101C70009A8EFF1FDA8EFF1F648EFF1F908FFF1F4B
:101C8000108FFF1FD88EFF1F948EFF1F508DFF1FD8
:101C9000768EFF1F588EFF1F6E87FF1F908EFF1FCF
:101CA000708EFF1F088FFF1F5C8EFF1FC88DFF1FE8
:101CB000408EFF1F988EFF1F988FFF1F0C8FFF1FF6
:101CC0006087FF1FFEF704FD01464FF4E0605CE013
:101CD000FEF71AFD01464FF4E26056E0FEF730FDD4
:101CE00001464FF4E46050E02E4B4FF480601968D9
:101CF0004BE02D4B1868B43002F0C4FF2B4B196831
:101D000003F0C8F803F088F94FF4A5714843A0F137
:101D1000A5014FF4106011E0254B1868B43002F0B3
:101D2000B1FF224B196803F0B5F803F075F94FF4D1
:101D3000A5714843A0F1A5014FF41160FF23B1FB49
:101D4000F3F122E01B4B1C4C1978238801F00101B0
:101D500093B11A4A15887DB119480688AD05013638
:101D600006F00F066D0C013B45EA46059BB2294380
:101D700023800BB9038013804FF4826005E0114B80
:101D80001968002903DB4FF4C060FFF7D7FD0E4B45
:101D90001A780132D2B21A70082A01D900221A70B8
:101DA00070BD00BF688EFF1F8C8FFF1F6887FF1FED
:101DB000C48DFF1F658EFF1F788EFF1F608EFF1F73
:101DC0006C87FF1F6487FF1F0C8FFF1F70B50A4CC5
:101DD0000025012600F008FD68B100F013FDC0B237
:101DE0007E2801D12670F5E72378002BF2D0FFF78B
:101DF000E5FD2570EEE770BD528DFF1F2DE9FF4711
:101E00003F4A136801933F4B01981968411A40F209
:101E1000DC5081425ED912680292029A1A603A4BF3
:101E200093F80080B8F1000F54D1DFF8F090374CF0
:101E300099F800000121012500F0E4FE0A260223A2
:101E400042272373A572E57265732681E771FEF759
:101E500051FB94F803A02E480AF1080A5246A11C2F
:101E600003F002FC51462A4800F05AF9304600F0CF
:101E700025FF0B232373A572E57265732681E77135
:101E8000FEF738FB94F803A021480AF1080A5246ED
:101E9000A11C03F0E9FB51461D4800F041F9304612
:101EA00000F00CFFA572E572257365732681E7715A
:101EB000FEF720FBE57816480835A11C2A4603F0FA
:101EC000D3FB1348294600F02BF999F8000041464E
:101ED00000F098FE0A4B1B6803930E4B039A1B6895
:101EE000D21A40F2DC539A4204D9074A00231370F5
:101EF000094A1380FFF75CFAFFF768FFBDE8FF8728
:101F00002C91FF1FC08DFF1F6C8EFF1F188FFF1FAE
:101F1000538DFF1F9C8EFF1FFC8EFF1F7087FF1FBE
:101F2000184B1A6842F400621A60174A00231370B3
:101F3000164A1370164A1370164A1370164A137015
:101F4000164B40F213321A604FF451725A60144B20
:101F5000C0F344321A70C0F347125A7000F01F00E9
:101F60000422022198729A70D9745A7588221A74C0
:101F70003C22DA700B4B40221A700B4B4FF400429C
:101F80001A607047348004400C90FF1FA38FFF1F1E
:101F90001490FF1F0D90FF1FA28FFF1F0CB0044075
:101FA00000B006402FE400E004E100E0134A93781B
:101FB00000F0030103F0EC030B43410748BF43F07B
:101FC0001003937000F00F03042B0C4903D18B799D
:101FD00043F040038B715379C20603F0EF03074AC5
:101FE00048BF43F0100353719379810603F0EF0368
:101FF00048BF43F010039371704700BF00B0064024
:102000000E4B1B68180510B503D410BD01F0C4F8C1
:1020100000E00B4C2378002BF8D10A4A4FF4004122
:102020001160094A0949D37040F203120A604A60FC
:10203000074A1370074A137010BD00BF3480044074
:10204000A28FFF1F84E100E000B006400CB0044006
:102050000C90FF1FA38FFF1F38B5094B04461D7856
:10206000002DFCD12046012100F0ECFD2046294640
:1020700000F0C8FD034B53F83420034B1A6038BD01
:10208000A28FFF1FD06E00001090FF1F1D4B1B681A
:102090001A052DE9F041074631D51B4B1B680BB1E2
:1020A00001221A70194B1A4D1C781A4EDFF86880FD
:1020B0000134272C88BF002414E000F08BFE402858
:1020C0000CDC33791B060DD52B780133272B88BF09
:1020D000002318F80320F2712B7003E0FF2801DDC4
:1020E00001F05AF82B78A342E7D00B4B1F550B4B4E
:1020F00001221A70054B1C70064BBC22DA70BDE839
:10210000F08100BF348004401090FF1F1490FF1F27
:102110000D90FF1F00B00640A48FFF1FA28FFF1F6E
:102120002DE9F84F254B1B6806461805894642D510
:10213000234B1B680BB101221A70224DB346AA46ED
:1021400032E0214B1C782F780134272C88BF0024E3
:10215000A74209D01BF8012B1C4B1A551C4B01221E
:102160001A70194B1C701FE01A4BBC22DA7098468B
:1021700000F030FE40280FDC98F8043019060FD527
:102180002B78124A0133272B88BF0023D25C88F8B2
:1021900007208AF8003003E0FF2801DD00F0FCFF93
:1021A0002B78BB42E4D0D5E706EB09039B45C8D3A7
:1021B000084BBC22DA70BDE8F88F00BF34800440C1
:1021C0001090FF1F0D90FF1F1490FF1FA48FFF1F83
:1021D000A28FFF1F00B0064010B5044C01E000F0D4
:1021E000DBFF2378002BFAD110BD00BFA28FFF1FA9
:1021F000054B064A1B781078834201D3273000E054
:102200000138C01A704700BF1490FF1F0D90FF1FC8
:10221000044B1878044B1B78984238BF4030C01AE2
:10222000704700BF0C90FF1FA38FFF1F084B094A88
:1022300019781378994207D001333F2B88BF0023C8
:102240000549C85C137070474FF0FF30704700BFFE
:102250000C90FF1FA38FFF1FCC8FFF1F074B1A7817
:10226000074B1B789A4206D001333F2B88BF0023CF
:10227000044AD05C70474FF0FF3070470C90FF1F4E
:10228000A38FFF1FCC8FFF1F094B1B681B050ED5AB
:10229000084BDA7802F0CB02DA7040225A74DA780E
:1022A00042F03402DA70044B1A78044B1A7070470B
:1022B0003480044000B00640A38FFF1F0C90FF1F26
:1022C00070B52D4B1A7912F0300F1DD072B6997D72
:1022D00021B9DA7940225A7462B615E062B6274A0B
:1022E00027481278274D00781C46531C3F2B88BF87
:1022F0000023E67983421CBFEE541A46013911F0DF
:10230000FF01F2D11D4B1A701B4AD37819465BB2FC
:10231000002B1BDA1379180618D51B4B1B4C1D78A4
:102320001B4B1B78AB4209D00133272B88BF0023FE
:102330001079E05CD071107D0728F3D9144A13702E
:102340000D4B1A79120601D57C22DA7001F0400398
:10235000DBB27BB1084B1A7902F04002D2B21946C7
:1023600042B10C4B00221A700B4B1B6803B11A7060
:102370003C23CB7070BD00BF00B006400C90FF1F27
:10238000A38FFF1FCC8FFF1F1490FF1FA48FFF1F71
:102390000D90FF1FA28FFF1F1090FF1F224B602286
:1023A0001A70E1225A70214B214A1978214B0829D1
:1023B00001D1012102E00A2907D11921116013225C
:1023C0001A601D4B19605A600BE00C291A4901D1A3
:1023D000152000E03D20106012221A60174B0860A3
:1023E0001A60174B17491B78174A03B101230B607A
:1023F0001360164B164A1978164B012901D8802113
:102400000CE0042901D8842108E0082901D885219D
:1024100004E0102901D8862100E0872111601960AD
:102420000D4B01221A707047004007407487FF1F50
:1024300008B003400CB0034008B00B400CB00B4098
:102440001790FF1F20B0034020B00B407587FF1F7F
:1024500024B0034024B00B401690FF1F0E4B1A7897
:1024600060B1BAB9012119700C4B1B7823B10C4B28
:102470001A6003F500231A60FFF790BF52B118707D
:10248000064B1B78002BF7D0054B186003F5002393
:102490001860F1E7704700BF1790FF1F1690FF1FED
:1024A00024B003400C2803D91023102807D809E0D2
:1024B0000A2806D8082894BF08230A2302E01846F1
:1024C00000E00C23084AD9B2081A1070074A1078A5
:1024D000834208D0064B11701B7813B1054B0022C4
:1024E0001A60FFF75BBF70471590FF1F7487FF1FCF
:1024F0001690FF1F24B00340194B1A6842F4806203
:102500001A60184A00231370174A1370174A137081
:10251000174A1370174A1370174B40F213321A60A0
:102520004FF451725A60154BC0F344321A70C0F325
:1025300047125A700221042200F01F0098729A700C
:10254000D9745A7588221A743C22DA700C4B4022D6
:102550006FF44A711A705B184FF400521A6070479A
:10256000348004409A90FF1F1990FF1FA090FF1F16
:102570009B90FF1F1890FF1F40A0044000A0064042
:102580002DE400E0134A937800F0030103F0EC031C
:102590000B43410748BF43F01003937000F00F0353
:1025A000042B0C4903D18B7943F040038B71537991
:1025B000C20603F0EF03074A48BF43F0100353710C
:1025C0009379800603F0EF0348BF43F01003937143
:1025D000704700BF00A006400E4B1B68580510B5A1
:1025E00003D410BD00F0D8FD00E00B4C2378002B85
:1025F000F8D10A4A4FF400511160094A0949D370D1
:1026000040F203120A604A60074A1370074A1370C7
:1026100010BD00BF348004401890FF1F84E100E02B
:1026200000A0064040A004409A90FF1F1990FF1F91
:1026300038B5094B04461D78002DFCD120460121F8
:1026400000F000FB2046294600F0DCFA034B53F86B
:102650003420034B1A6038BD1890FF1FD06E000065
:102660009C90FF1F1D4B1B685A052DE9F041074642
:1026700031D51B4B1B680BB101221A70194B1A4D37
:102680001C781A4EDFF8688001343F2C88BF002484
:1026900014E000F09FFB40280CDC33791B060DD5BD
:1026A0002B7801333F2B88BF002318F80320F271E9
:1026B0002B7003E0FF2801DD00F06EFD2B78A342B4
:1026C000E7D00B4B1F550B4B01221A70054B1C70AA
:1026D000064BBC22DA70BDE8F08100BF34800440B4
:1026E0009C90FF1FA090FF1F9B90FF1F00A0064023
:1026F0001A90FF1F1890FF1F2DE9F84F254B1B68FC
:1027000006465805894642D5234B1B680BB101226A
:102710001A70224DB346AA4632E0214B1C782F781E
:1027200001343F2C88BF0024A74209D01BF8012B9D
:102730001C4B1A551C4B01221A70194B1C701FE0C0
:102740001A4BBC22DA70984600F044FB40280FDC9C
:1027500098F8043019060FD52B78124A01333F2B15
:1027600088BF0023D25C88F807208AF8003003E095
:10277000FF2801DD00F010FD2B78BB42E4D0D5E747
:1027800006EB09039B45C8D3084BBC22DA70BDE8B1
:10279000F88F00BF348004409C90FF1F9B90FF1F68
:1027A000A090FF1F1A90FF1F1890FF1F00A0064067
:1027B00010B5044C01E000F0EFFC2378002BFAD1B7
:1027C00010BD00BF1890FF1F054B064A1B781078FC
:1027D000834201D33F3000E00138C01A704700BF88
:1027E000A090FF1F9B90FF1F044B1878044B1B7891
:1027F000984238BF4030C01A704700BF9A90FF1F00
:102800001990FF1F084B094A19781378994207D08D
:1028100001333F2B88BF00230549C85C1370704704
:102820004FF0FF30704700BF9A90FF1F1990FF1FB5
:102830005A90FF1F074B1A78074B1B789A4206D015
:1028400001333F2B88BF0023044AD05C70474FF010
:10285000FF3070479A90FF1F1990FF1F5A90FF1F7B
:10286000094B1B685B050ED5084BDA7802F0CB02EA
:10287000DA7040225A74DA7842F03402DA70044B8B
:102880001A78044B1A7070473480044000A0064048
:102890001990FF1F9A90FF1F70B52D4B1A7912F0F7
:1028A000300F1DD072B6997D21B9DA7940225A7461
:1028B00062B615E062B6274A27481278274D00789D
:1028C0001C46531C3F2B88BF0023E67983421CBF64
:1028D000EE541A46013911F0FF01F2D11D4B1A7066
:1028E0001B4AD37819465BB2002B1BDA1379180602
:1028F00018D51B4B1B4C1D781B4B1B78AB4209D0CA
:1029000001333F2B88BF00231079E05CD071107D2C
:102910000728F3D9144A13700D4B1A79120601D502
:102920007C22DA7001F04003DBB27BB1084B1A79EC
:1029300002F04002D2B2194642B10C4B00221A708A
:102940000B4B1B6803B11A703C23CB7070BD00BFEA
:1029500000A006409A90FF1F1990FF1F5A90FF1F7A
:10296000A090FF1F1A90FF1F9B90FF1F1890FF1F42
:102970009C90FF1F084B4FF400021A604FF08072CA
:102980001A604FF000721A604FF080621A604FF0C8
:1029900000621A60704700BF08E100E0114B10B5FB
:1029A0001C68E0041C6004D50F4BDA680AB1DB68D0
:1029B0009847A10404D50C4B1A690AB11B699847C2
:1029C000A20604D5084B1A6E0AB11B6E9847E3069F
:1029D00006D5054BD3F8842012B1D3F8843098473C
:1029E00010BD00BFA0900440A490FF1F1F4B10B566
:1029F0001C68E0031C6004D51D4B1A680AB11B68F3
:102A00009847A10304D51A4B5A680AB15B689847E6
:102A1000E20704D5164B1A6C0AB11B6C9847A30742
:102A200004D5134B5A6C0AB15B6C9847200704D548
:102A30000F4B9A6C0AB19B6C9847610704D50C4BFD
:102A4000DA6C0AB1DB6C9847220304D5084B5A6E46
:102A50000AB15B6E9847630306D5054BD3F8802017
:102A600012B1D3F88030984710BD00BFA0A0044039
:102A7000A490FF1F2C4B10B51C6820071C6004D5C8
:102A80002A4B5A6A0AB15B6A9847E10604D5274B7C
:102A90009A6A0AB19B6A9847620604D5234BDA6AA0
:102AA0000AB1DB6A9847230604D5204B1A6B0AB19A
:102AB0001B6B9847A00604D51C4B5A6B0AB15B6B85
:102AC0009847E10704D5194BDA6B0AB1DB6B9847DD
:102AD000A20704D5154B9A6D0AB19B6D9847630701
:102AE00004D5124BDA6D0AB1DB6D9847A00504D509
:102AF0000E4BDA6E0AB1DB6E9847E10504D50B4B3D
:102B00001A6F0AB11B6F9847620504D5074B5A6FBD
:102B10000AB15B6F9847230504D5044B9A6F0AB13D
:102B20009B6F984710BD00BFA0B00440A490FF1F4A
:102B30001E4B10B51C68E0071C6004D51C4B9A683E
:102B40000AB19B689847210604D5194B5A690AB106
:102B50005B699847E20604D5154B9A690AB19B69EF
:102B60009847630704D5124BDA690AB1DB699847C5
:102B7000200704D50E4B1A6A0AB11B6A9847A107B1
:102B800004D50B4B9A6B0AB19B6B9847A20604D5F0
:102B9000074B1A6D0AB11B6D9847630604D5044BA9
:102BA0005A6D0AB15B6D984710BD00BFA0C00440CC
:102BB000A490FF1F094B10B51C68A2071C6004D528
:102BC000074B9A6E0AB19B6E9847E30704D5044BF6
:102BD000DA6F0AB1DB6F984710BD00BFA0D0044088
:102BE000A490FF1F044B054900221A600A60044AA2
:102BF000106010221A60704714D0034004D00340C4
:102C000000D00340212810B518D80D4A52F83030B2
:102C100093F880423CB1012211B183F8802010BDAD
:102C200083F8002110BD02EBC00043681A6811B19F
:102C300042F0030201E022F002021A6010BD00BF60
:102C4000D06E0000212816D80B4A02EBC0030129E0
:102C50005B6852F8302004D182F880124FF4A272DF
:102C600008E0002082F8800211B94FF4807201E080
:102C700040F203121A607047D06E000072B60C4B1F
:102C80000C491A680C4B1B68096862B6490102D5E9
:102C9000322A88BF0133C2F58C32482102F23F123A
:102CA000B2FBF1F24FF47A7000FB0320704700BFD3
:102CB00018E000E004ED00E02C91FF1F70B5044621
:102CC000FFF7DCFF05466CB140F2E736FFF7D6FFB1
:102CD000401BB04203D9013C04D005F57A7500F0E1
:102CE0005BFAF3E770BDFFFF10B5FFF743FE164B2D
:102CF000164A174C002048F6FF71186059602823C7
:102D0000136093601361936113629362136393631F
:102D1000092222600F4C20606160A360236144F8A7
:102D2000042C0D4C20600D4801600D490B608B6038
:102D30000C4B1A60FFF732FB0420FFF7BFFFBDE822
:102D4000104001F011B800BF048003400C80034024
:102D5000008003400490034004800B4008800B4037
:102D60000C800B4000800B40024B1A6801321A6045
:102D7000704700BF2C91FF1F38B50B4C25462368C8
:102D8000580301D500F0D4FC2B68590501D5FFF795
:102D900083FD2B681A0501D5FFF792FA2368DB043F
:102DA000EDD500F0A1FBEAE73480044008B5FFF759
:102DB000E3FFFFFF014B10221A80704700200540FF
:102DC0007047FFFF024A13681818106018467047D2
:102DD0007887FF1FEFF313839BB9EFF3108098B947
:102DE000EFF3058323B10F2B04D9084A985C01E067
:102DF0004FF48070EFF311833BB1984228BF18461F
:102E000070474FF0FF30704718467047F0E300E01E
:102E1000002300E00133C25C002AFBD11846704752
:102E200010B50023B0FBF2F402FB1400092801D80E
:102E3000303000E03730C85420460CB10133F1E7A0
:102E4000CA185470224605E0885CCC5C8C54C85487
:102E50000132013B9A42F7DB084610BD08B5036812
:102E6000C9B21B68984708BD08B50368C9B21B689A
:102E7000984708BD08B50368C9B21B68984708BDE4
:102E8000084608B5FFF7EEFB012008BD084608B567
:102E9000FFF7E8FB012008BD38B508460D46FFF7EF
:102EA000B7FF044621462846FFF726FC204638BDDA
:102EB00010B5084614461146FFF71EFC204610BD0B
:102EC000FFF782BCFFF7CCBCFFF772BCFFF79ABCE0
:102ED000FFF7B0BCFFF788BC0846FFF7A9BBFFF7B8
:102EE0007BBBFFFF034800EB5100B0FBF1F0FFF7A5
:102EF00003BB00BF00449508064810B500EB510025
:102F0000B0FBF1F01446FFF7F7FA2046BDE8104099
:102F1000FFF738BB004495087047FFFF044B0022C1
:102F20001A711A73034A4FF47A7199601A607047E4
:102F30003091FF1FE86F000010B50446006802F0F2
:102F4000BFF8204610BD38B504460D460068013173
:102F500002F0AEFC10B184E82100012038BD4368C6
:102F60008B4210B5044600D306E0FFF7ECFF20B11A
:102F7000A3680BB922681370012010BDF8B5044690
:102F80000F46154622B9036803B11A7000230BE0FF
:102F90001146FFF7E4FF064640B9206810B102F081
:102FA0008FF8266000236360A36004E0A5602068BA
:102FB000394602F06FFF2046F8BD38B500230446BD
:102FC00003604360836003730D4639B10846FFF721
:102FD0001FFF294602462046FFF7D0FF204638BD96
:102FE000826808B50B461AB901B103E0012008BD9B
:102FF00011B90368187802E0006802F05DFED0F1B4
:10300000010038BF002008BD10B58B688468E41A41
:10301000A2420CD8006868B1096851B180181A46FC
:1030200002F096FFD0F1010038BF002010BD002053
:1030300010BD084610BD82688B689A4202D30022F8
:10304000FFF7E2BF0020704708B582688B689A429C
:103050000CD3006868B1096851B1D31AC01802F0E6
:103060002BFED0F1010038BF002008BD002008BDB4
:10307000084608BD38B50C469AB191B181688B42BB
:1030800002D30023237038BDCD1A013A016895425E
:1030900028BF1546C91820462A4602F0AFFF002374
:1030A000635538BD2DE9F04100258AB007468846B2
:1030B0008C682E4611E02B46404601A92122FFF7DD
:1030C000D9FF3B68202C34BF224620225B6838465B
:1030D00001A9AD18A41A98473618002CEBD1304638
:1030E0000AB0BDE8F081FFFF07B5054B1B88ADF8BE
:1030F0000430036801A95B68022298470EBD00BF37
:1031000030700000F0B505468BB022B90368C9B233
:103110001B6898472CE0012A08BF0A2221B93022F7
:103120008DF82520212413E02124B1FBF2F002FBCD
:103130001011C9B2092901D8303100E037310AAF86
:103140003E1906F8241C014610B1013CE4B2ECE73C
:1031500033B1013C0AAAE4B213192D2203F8242C3E
:103160002B6801AF5B6828463919C4F122029847E1
:103170000BB0F0BD002902DA49422D2300E0002304
:103180000A22FFF7BFBF08B5FEF764FBFEF736FE65
:1031900000F002F8FAE7FFFF08B50E4B1A78C2B943
:1031A00001221A7000F074FE08B100F024F8FFF755
:1031B0001BFB08B1FFF7B0FEFFF72AF808B100F0DB
:1031C00099FF00F04BF908B101F008F8014B00221B
:1031D0001A7008BD4091FF1F0846114600F066BEF8
:1031E000084600F0CBBE00F0D3BE00F033BE00F0C6
:1031F00009BE00F04DBE7047044B00221A711A73CD
:10320000034A4FF47A7199601A6070474491FF1F26
:1032100040700000174B1A6842F480521A60164A38
:1032200000231370154A1370154A1370154A137052
:10323000154A1370154A40F2133111604FF4517161
:103240005160134AC0F344311170C0F3471100F0CC
:103250001F0051709072937013742C23D3700D4B18
:1032600040226FF44B711A705B184FF400321A60F1
:10327000704700BF34800440BE91FF1F5591FF1F6F
:10328000C491FF1FBF91FF1F5491FF1F08C004404E
:1032900000C0064031E400E0134A937800F00301D7
:1032A00003F0EC030B43410748BF43F01003937056
:1032B00000F00F03042B0C4903D18B7943F040033A
:1032C0008B715379C20603F0EF03074A48BF43F0FE
:1032D000100353719379800603F0EF0348BF43F066
:1032E00010039371704700BF00C006400E4B1B686F
:1032F000D80410B503D410BDFFF74EFF00E00B4C0F
:103300002378002BF8D10A4A4FF400311160094AA2
:103310000949D37040F203120A604A60074A1370E9
:10332000074A137010BD00BF348004405491FF1F42
:1033300084E100E000C0064008C00440BE91FF1FC9
:103340005591FF1F38B5094B04461D78002DFCD15F
:1033500020460121FFF776FC20462946FFF752FC64
:10336000034B53F83420034B1A6038BD5491FF1FB0
:10337000D06E0000C091FF1F1D4B1B68DA042DE9C1
:10338000F041074631D51B4B1B680BB101221A7067
:10339000194B1A4D1C781A4EDFF868800134272C1F
:1033A00088BF002414E0FFF715FD40280CDC3379BA
:1033B0001B060DD52B780133272B88BF002318F867
:1033C0000320F2712B7003E0FF2801DDFFF7E4FE1C
:1033D0002B78A342E7D00B4B1F550B4B01221A70E1
:1033E000054B1C70064BAC22DA70BDE8F08100BFC3
:1033F00034800440C091FF1FC491FF1FBF91FF1F85
:1034000000C006405691FF1F5491FF1F38B5451864
:10341000044603E014F8010BFFF7AEFFAC42F9D10C
:1034200038BDFFFF10B5044C01E0FFF7B5FE23786F
:10343000002BFAD110BD00BF5491FF1F054B064A67
:103440001B781078834201D3273000E00138C01A7E
:10345000704700BFC491FF1FBF91FF1F044B187836
:10346000044B1B78984238BF4030C01A704700BFE9
:10347000BE91FF1F5591FF1F084B094A1978137819
:10348000994207D001333F2B88BF00230549C85C10
:10349000137070474FF0FF30704700BFBE91FF1FA1
:1034A0005591FF1F7E91FF1F074B1A78074B1B7822
:1034B0009A4206D001333F2B88BF0023044AD05CD8
:1034C00070474FF0FF307047BE91FF1F5591FF1FAF
:1034D0007E91FF1F024B1A78024B1A70704700BF93
:1034E0005591FF1FBE91FF1F10B5214B1A7902F0B5
:1034F0002002D2B26AB11F4AD8791F4913780978DD
:1035000001333F2B88BF00238B4202D01B49C85494
:103510001370174AD37818465BB2002B13DA13796D
:10352000190610D5164B17491C780B789C4202D10E
:103530006C23D37007E00133272B88BF0023124C84
:10354000E45CD4710B7000F04003DBB27BB1084B3C
:103550001A7902F04002D2B2194642B10B4B002256
:103560001A700B4B1B6803B11A702C23CB7010BD63
:1035700000C00640BE91FF1F5591FF1F7E91FF1FA7
:10358000C491FF1FBF91FF1F5691FF1F5491FF1F52
:10359000C091FF1FF0B50C4B0C4C1A7842F002059D
:1035A00004EBC50682F00102706009481A700678C3
:1035B000002E0CBF8827C82747EA014186F0010684
:1035C00044F835100670F0BD3092FF1F0080FF1FD9
:1035D000A892FF1F431E032B10B510D872B6094ADC
:1035E00052F8230048B1416842F82310064A018886
:1035F00032F81340611A22F8131062B610BD002091
:1036000010BD00BF2092FF1F1093FF1F0138032839
:103610000BD872B6064B53F82030002001E05B68EF
:103620000130002BFBD162B670470020704700BF0D
:103630007492FF1F70B572B6184E194C01239A1977
:1036400012F8012C02F00802D2B2E2B19900144A39
:1036500054F831502DB902EB431308305860114B28
:1036600009E041F0010154F8315065B902EBC103A2
:10367000083058600C4B42F831300C4B1A78013A44
:103680001A7062B670BD0133052BD8D162B6074BF4
:1036900000221A70BDE8704000F006BEF87000000D
:1036A0000080FF1F88004000C80040009E92FF1F5E
:1036B000431E032B30B532D84001194A40F01000A8
:1036C000101872B6174CE25C032A09D8DFE802F042
:1036D000160218050830022213E00830042210E018
:1036E0001148124A50F8234014B940F8231002E060
:1036F00052F82300416042F823100FE0032200E05B
:103700000522E25410F0080F01F108030A88436013
:103710000CBF8823C82343EA0243036062B630BD6E
:103720000080FF1FDC91FF1F7492FF1F8492FF1F18
:103730002DE9F74FA54EA64C357805F00403DBB212
:10374000ABB1A44B1B7883B1A34A137823B1013BDF
:10375000DBB2137003B900BEA04A13782BB1013B52
:10376000DBB213700BB900F03FFC0423337005F09B
:103770000802D2B2002A00F08082994B1B781D0902
:103780004FEA930940F0FE8104EBC903586854F8EE
:103790003930C3F38303013B0C2B00F2F081DFE8E7
:1037A00013F0A901A901EE01EE01EE01EE01EE0117
:1037B000EE01C501EE01EE01EE010D0043688949FD
:1037C00002684B60884B894844F83930884D0A605C
:1037D000002303600120287092B240F28165AA4262
:1037E0002361A36117D8B2F5D06F80F02C81B2F5B8
:1037F000817F00F0DC8006D8802A00F0C280822A17
:1038000040F03D81C1E040F202339A4200F00C8169
:10381000B2F5A06F16E042F22105AA4200F06781DE
:1038200008D8B2F5086F00F0A680B2F5106F40F02E
:1038300026810AE042F22120824200F01C8142F2FD
:1038400021339A4240F01B811DE18A78614B604D23
:103850001A702B6A180603D5686A083800F024FD30
:10386000644A08359542F4D1DFF8B091DFF8B0B181
:103870000025A846CA4655F8090005E043680093AC
:1038800000F012FD009B18460028F7D15A4B4AF869
:10389000050045F80B00E85807E0426800930192E4
:1038A00000F002FD019A009B10460028F5D1585106
:1038B000524BE850524B23F81800524B18F8032093
:1038C000023A032A08D8DFE802F0020402040022C8
:1038D00000E0012203F8082008F101080435B8F1DE
:1038E000040FC8D1484BDFF83C9100221A70012523
:1038F0009846464B05EB0902EB1812F8012C9B0089
:103900001A7002F00802D2B23AB300F0AFFCAB007A
:1039100038B104EB4512083050603D4A44F833207A
:1039200006E044F8330098F80030013388F800309E
:1039300000F09CFCAB0043F0010338B104EBC30280
:1039400008305060284A44F8332006E044F8330039
:1039500098F80030013388F80030AA0042F00201E4
:10396000013542F003020023052D44F8313044F8BC
:103970003230BED188E0174B264D1B782B700346A2
:1039800085E0244D2B706B7080E08A88042A00D972
:1039900075E0204D2B706B701F4B9200D3181B7875
:1039A00003F00203DBB2002B70D028706EE08A882F
:1039B00002F07F03042B62DC4B8803B15FE09100CF
:1039C000154A8A18117821F0020156E0802007403C
:1039D0000080FF1FA792FF1F3192FF1FA992FF1FB8
:1039E000902007409492FF1FC8004000C891FF1F1D
:1039F000A892FF1F8080FF1F7492FF1F8492FF1FF9
:103A00001093FF1FDC91FF1F9E92FF1F30C8011013
:103A1000880040009F92FF1FC02007402092FF1F98
:103A2000CC91FF1FF87000008A8802F07F03042BFE
:103A300025DC4B8803B122E09100A14A8A18117855
:103A400041F0020119E04A889E4B898853F8085CCE
:103A5000A3F10C009DB133F80CCC944509D133F897
:103A60000ACC8C4505D1120A032A0CBF2B78038996
:103A70000DE00C33EAE78978934A117004E0904B2B
:103A80000F221A7033E000231D4600E002238F4A04
:103A9000B2F806904B4538BF9946B9F1400F34BF94
:103AA000C8464FF0400828464146FFF773FDB9EB82
:103AB0000809454403D1B8F1400F07D017E0B9F128
:103AC000400F34BFC8464FF0400800E0C8462846C3
:103AD0004146FFF75FFDB9EB0809454402D1B8F153
:103AE000400F04D17A4B7B4A1D60A2F8009001225E
:103AF000794B43E0754B1A8842F221039A4211D167
:103B0000764A0023C15C99540133072BFAD1734BD9
:103B10001B68862B02D1724B0F221A7000200146BF
:103B2000FFF738FD6F4B44F8393028E0684BD3F885
:103B30000080B8F1000F18D0DFF89891B9F800A014
:103B4000BAF1400F34BF5546402540462946FFF79D
:103B500021FDC5EB0A039BB2A9F800300BB9402D3B
:103B600001D108EB05035A4A1360584B1A88B2F585
:103B7000A06F04D100225A709A785B4B1A70012210
:103B8000554B6DE004EBC90803F00803D8F8042096
:103B9000013DD9B2A2F10800EDB2002937D000F002
:103BA00083FB5248524B50F82510F1B14A6840F857
:103BB000252001F10802C8F804205A5D032A0BD819
:103BC000DFE802F002040608032204E0022202E019
:103BD000052200E004225A5518F0080F0A880CBF8D
:103BE0008823C82343EA024342E05A5D032A07D8E8
:103BF000DFE802F040400204002206E0012204E077
:103C000018F0080F0CBF022203225A5532E054F874
:103C100039301B0C22F8083C23B322F8061C42F86A
:103C2000041C344A344952F8257017B942F825006B
:103C300002E051F825205060304A41F8250032F862
:103C400015105B1822F8153000F010FB18B1083081
:103C5000C8F8040006E02A4B44F839001A7801320B
:103C60001A7007E01F4B274A18F0080F08BF1346C9
:103C700044F83930082333705EE5E90752D5164918
:103C80002048214C02230B70204B1A70204B1860E7
:103C9000986020481A61D8609A615C60084B0D20DA
:103CA00018701D48FF23037000F8083C02741B4A7B
:103CB00013701B4B9F221A7001230B704BE000BF47
:103CC000C020074008710000B892FF1F9492FF1FA8
:103CD000C891FF1F9C92FF1F942007401893FF1F5D
:103CE0003192FF1FC8004000982007407492FF1FC8
:103CF000DC91FF1F2092FF1FCC91FF1F1093FF1F2D
:103D00009E92FF1F88004000E091FF1F3092FF1F2E
:103D10000080FF1F3492FF1F882007408C2007403F
:103D2000842007402B0605D50C4B0D221A708022EB
:103D300003F8402C05F00203DBB22BB1084B1A78D4
:103D40001A70022203F8082C05F01005EDB215B127
:103D5000044B10221A70BDE8FE8F00BFC020074040
:103D6000882007408020074008B500F047FA00236C
:103D70001E491A465A50C8180833882B4260F9D198
:103D80001B4B1A6842F480221A601A4B80221A7068
:103D90001978184A0906FBD4144B1749C3F30720B6
:103DA0000870C3F307401B0E08750B76FF2301F85C
:103DB0001C3C01F8143C01F88C3C137843F04003A0
:103DC00013700021012302F8783C02F80C1C02F861
:103DD000883C0A4B70226FF4507C1A7063444FF495
:103DE00000721A60064B10221A7008BD0080FF1F77
:103DF000348004400C2107409C20074049E400E047
:103E00000821074038B5114C23684BB10F4D286885
:103E10004288811801320C7A01888A4212D30CE060
:103E20000B4B1B7813B94FF0FF340CE00320FFF766
:103E3000D1FB20600028E9D1F5E700F035FA002336
:103E40002B6000E04280204638BD00BFB492FF1FC7
:103E5000A792FF1F10B50C4C23681BB10A4B1B68BF
:103E60006BB902E0094B1B7813B94FF0FF3010BD5E
:103E70000320FFF7AFFB20600028EFD1F5E75A8859
:103E80009B18187A10BD00BFB492FF1FA792FF1FA6
:103E9000044B9888044B1B681BB11A885B88D31AA3
:103EA000C01870471093FF1FB492FF1F2DE9F8430D
:103EB0002D4B2E4DDFF8C08001220C461A700646AD
:103EC0004BE02B682BBBDFF8A09048F6014798F831
:103ED000003013B9244A137014E00420FFF796FB56
:103EE000072808D8012389F8003000F0BFF92860BE
:103EF00078B989F80000013F1D4B01D01A782AB12A
:103F000001221A704FF0FF30BDE8F883FFF744F943
:103F1000DDE72968164A488800231370C0F1400283
:103F2000944238BF224600F108078018CF19488014
:103F3000A41A02E0F05CF85401339342FAD1F61867
:103F40004B883F2B06D940230B800420FFF7B0FBA2
:103F500000232B60074B05221A70002CB1D1024BB5
:103F600020461C70BDE8F883AA92FF1FAC92FF1F89
:103F7000B092FF1FA992FF1FA792FF1F07B502ABC8
:103F8000012103F8010D1846FFF790FF0EBDFFFF5A
:103F9000F8B5114B1B78EBB1104E114B3468114D35
:103FA00001271F704CB1638800272F7004202380E5
:103FB0002146FFF77DFB376009E000F057F9014625
:103FC00020B104202C70FFF773FB00E02F70044B2E
:103FD00000221A70F8BD00BFA792FF1FAC92FF1F0E
:103FE000AA92FF1FA992FF1F38B50D4B1D78ADB9DE
:103FF0000C4C216831B14B8804200B80FFF758FB33
:10400000256038BD00F032F9014620B10420BDE83A
:104010003840FFF74DBB044B01221A7038BD00BF7A
:10402000AA92FF1FAC92FF1FA992FF1F08B5036859
:10403000C9B21B68984708BD08B50368C9B21B68B8
:10404000984708BD08B50368C9B21B68984708BD02
:1040500008B50368C9B21B68984708BD084608B58B
:10406000FEF714F8012008BD084608B5FEF70EF863
:10407000012008BD38B508460D46FEF7C9FE0446C6
:1040800021462846FEF74CF8204638BD10B50846B4
:1040900014461146FEF744F8204610BDFEF7A8B8B6
:1040A000FEF7F2B8FEF798B8FEF7C0B8FEF7D6B83C
:1040B000FEF7AEB80846FDF7CFBFFDF7A1BFFFFF83
:1040C000034800EB5100B0FBF1F0FDF729BF00BF42
:1040D00000449508064810B500EB5100B0FBF1F024
:1040E0001446FDF71DFF2046BDE81040FDF75EBFFA
:1040F000004495087047FFFF044B00221A711A73A1
:10410000034A4FF47A7199601A607047BC92FF1F9E
:104110006070000008B50368C9B21B68984708BD05
:1041200008B50368C9B21B68984708BD08B503689D
:10413000C9B21B68984708BD08B50368C9B21B68B7
:10414000984708BD084608B5FFF716F9012008BDD5
:10415000084608B5FFF710F9012008BD38B5084634
:104160000D46FEF755FE044621462846FFF74EF958
:10417000204638BD10B5084614461146FFF746F9EB
:10418000204610BDFFF75AB9FFF7A4B9FFF74AB9A7
:10419000FFF772B9FFF788B9FFF760B90846FFF774
:1041A000D1B8FFF7A3B8FFFF034800EB5100B0FB05
:1041B000F1F0FFF72FB800BF00A24A04064810B57F
:1041C00000EB5100B0FBF1F01446FFF723F8204656
:1041D000BDE81040FFF760B800A24A047047FFFF37
:1041E000044B00221A711A73034A4FF47A719960D2
:1041F0001A607047CC92FF1FB07000001FB572B6F6
:10420000154B70221A70154A412111700F2102F8C6
:10421000011C80221A701A781206FCD5104B1868FF
:1042200062B6104B984201D80A23584301A90A22CA
:10423000FEF7F6FD0C48002301AA9A5C2AB100EBB8
:10424000430101330A2B4A80F6D10133064A5B0051
:10425000137005B000BD00BF00000240070002401F
:10426000080002407F9698000488FF1F72B60C4A2F
:104270001168B1FA81F30B2B02D962B600207047A6
:104280004FF0004020FA03F021EA0001116062B60D
:10429000044948225343C8180022CA50426070475C
:1042A0001C88FF1F0084FF1F0C4B4822C31AB3FB5E
:1042B000F2F30B2B11D80A4A127822B1094A12786C
:1042C0000AB1FFF7B7B972B6074A4FF0004121FAB9
:1042D00003F311681943116062B670470084FF1F31
:1042E0009E92FF1FA792FF1F1C88FF1F81F00041B5
:1042F00002E000BF83F0004330B54FEA41044FEACB
:10430000430594EA050F08BF90EA020F1FBF54EA65
:10431000000C55EA020C7FEA645C7FEA655C00F001
:10432000E2804FEA5454D4EB5555B8BF6D420CDDD2
:104330002C4480EA020281EA030382EA000083EA55
:10434000010180EA020281EA0303362D88BF30BDF5
:1043500011F0004F4FEA01314FF4801C4CEA11314B
:1043600002D0404261EB410113F0004F4FEA0333AA
:104370004CEA133302D0524263EB430394EA050F35
:1043800000F0A780A4F10104D5F1200E0DDB02FAA4
:104390000EFC22FA05F2801841F1000103FA0EF238
:1043A000801843FA05F359410EE0A5F120050EF1FE
:1043B000200E012A03FA0EFC28BF4CF0020C43FA2F
:1043C00005F3C01851EBE37101F0004507D54FF03C
:1043D000000EDCF1000C7EEB00006EEB0101B1F58C
:1043E000801F1BD3B1F5001F0CD349085FEA3000D2
:1043F0004FEA3C0C04F101044FEA445212F5800FDD
:1044000080F09A80BCF1004F08BF5FEA500C50F179
:10441000000041EB045141EA050130BD5FEA4C0C5C
:10442000404141EB010111F4801FA4F10104E9D1E5
:1044300091F0000F04BF01460020B1FA81F308BFDC
:104440002033A3F10B03B3F120020CDA0C3208DDA8
:1044500002F1140CC2F10C0201FA0CF021FA02F183
:104460000CE002F11402D8BFC2F1200C01FA02F1F3
:1044700020FA0CFCDCBF41EA0C019040E41AA2BF18
:1044800001EB0451294330BD6FEA04041F3C1CDAE0
:104490000C340EDC04F11404C4F1200220FA04F000
:1044A00001FA02F340EA030021FA04F345EA0301AA
:1044B00030BDC4F10C04C4F1200220FA02F001FA6C
:1044C00004F340EA0300294630BD21FA04F02946EE
:1044D00030BD94F0000F83F4801306BF81F4801187
:1044E0000134013D4EE77FEA645C18BF7FEA655CFA
:1044F00029D094EA050F08BF90EA020F05D054EACC
:10450000000C04BF1946104630BD91EA030F1EBFD0
:104510000021002030BD5FEA545C05D140004941D4
:1045200028BF41F0004130BD14F580043CBF01F5C7
:10453000801130BD01F0004545F0FE4141F47001AD
:104540004FF0000030BD7FEA645C1ABF1946104688
:104550007FEA655C1CBF0B46024650EA013406BF89
:1045600052EA033591EA030F41F4002130BD00BF48
:1045700090F0000F04BF0021704730B54FF4806405
:1045800004F132044FF000054FF0000150E700BF86
:1045900090F0000F04BF0021704730B54FF48064E5
:1045A00004F1320410F0004548BF40424FF00001D2
:1045B0003EE700BF42004FEAE2014FEA31014FEA15
:1045C00002701FBF12F07F4393F07F4F81F0605164
:1045D000704792F0000F14BF93F07F4F704730B5D3
:1045E0004FF4607401F0004521F0004120E700BF66
:1045F00050EA010208BF704730B54FF000050AE0ED
:1046000050EA010208BF704730B511F0004502D5ED
:10461000404261EB41014FF4806404F132045FEAEF
:10462000915C3FF4DCAE4FF003025FEADC0C18BF94
:1046300003325FEADC0C18BF033202EBDC02C2F18A
:10464000200300FA03FC20FA02F001FA03FE40EA1C
:104650000E0021FA02F11444C1E600BF70B54FF01C
:10466000FF0C4CF4E06C1CEA11541DBF1CEA1355FE
:1046700094EA0C0F95EA0C0F00F0DEF82C4481EA66
:10468000030621EA4C5123EA4C5350EA013518BF86
:1046900052EA033541F4801143F4801338D0A0FB73
:1046A00002CE4FF00005E1FB02E506F00042E0FB20
:1046B00003E54FF00006E1FB03569CF0000F18BF26
:1046C0004EF0010EA4F1FF04B6F5007F64F54074CE
:1046D00004D25FEA4E0E6D4146EB060642EAC62161
:1046E00041EA55514FEAC52040EA5E504FEACE2ECE
:1046F000B4F1FD0C88BFBCF5E06F1ED8BEF1004FD1
:1047000008BF5FEA500E50F1000041EB045170BD4C
:1047100006F0004646EA010140EA020081EA030190
:10472000B4EB5C04C2BFD4EB0C0541EA045170BD8C
:1047300041F480114FF0000E013C00F3AB8014F106
:10474000360FDEBF002001F0004170BDC4F100044F
:10475000203C35DA0C341BDC04F11404C4F12005D0
:1047600000FA05F320FA04F001FA05F240EA02002B
:1047700001F0004221F0004110EBD37021FA04F661
:1047800042EB06015EEA430E08BF20EAD37070BD1B
:10479000C4F10C04C4F1200500FA04F320FA05F07A
:1047A00001FA04F240EA020001F0004110EBD3707C
:1047B00041F100015EEA430E08BF20EAD37070BDEC
:1047C000C4F1200500FA05F24EEA020E20FA04F3C5
:1047D00001FA05F243EA020321FA04F001F0004174
:1047E00021FA04F220EA020000EBD3705EEA430EE5
:1047F00008BF20EAD37070BD94F0000F0FD101F014
:104800000046400041EB010111F4801F08BF013C4C
:10481000F7D041EA060195F0000F18BF704703F08A
:104820000046520043EB030313F4801F08BF013D11
:10483000F7D043EA0603704794EA0C0F0CEA1355CD
:1048400018BF95EA0C0F0CD050EA410618BF52EA87
:104850004306D1D181EA030101F000414FF000008D
:1048600070BD50EA410606BF1046194652EA43069B
:1048700019D094EA0C0F02D150EA013613D195EA0F
:104880000C0F05D152EA03361CBF104619460AD157
:1048900081EA030101F0004141F0FE4141F4700161
:1048A0004FF0000070BD41F0FE4141F4780170BD51
:1048B00070B54FF0FF0C4CF4E06C1CEA11541DBFB6
:1048C0001CEA135594EA0C0F95EA0C0F00F0A7F8B8
:1048D000A4EB050481EA030E52EA03354FEA0131E5
:1048E00000F088804FEA03334FF0805545EA1313F8
:1048F00043EA12634FEA022245EA111545EA1065C0
:104900004FEA00260EF000419D4208BF964244F156
:10491000FD0404F5407402D25B084FEA3202B61A75
:1049200065EB03055B084FEA32024FF480104FF449
:10493000002CB6EB020E75EB030E22BFB61A7546BD
:1049400040EA0C005B084FEA3202B6EB020E75EB50
:10495000030E22BFB61A754640EA5C005B084FEAB8
:104960003202B6EB020E75EB030E22BFB61A754685
:1049700040EA9C005B084FEA3202B6EB020E75EB90
:10498000030E22BFB61A754640EADC0055EA060E51
:1049900018D04FEA051545EA16754FEA06164FEA94
:1049A000C30343EA52734FEAC2025FEA1C1CC0D140
:1049B00011F4801F0BD141EA00014FF000004FF0CD
:1049C000004CB6E711F4801F04BF01430020B4F18E
:1049D000FD0C88BFBCF5E06F3FF6AFAEB5EB030C46
:1049E00004BFB6EB020C5FEA500C50F1000041EB43
:1049F000045170BD0EF0004E4EEA113114EB5C0410
:104A0000C2BFD4EB0C0541EA045170BD41F48011E2
:104A10004FF0000E013C90E645EA060E8DE60CEAEA
:104A2000135594EA0C0F08BF95EA0C0F3FF43BAF07
:104A300094EA0C0F0AD150EA01347FF434AF95EABE
:104A40000C0F7FF425AF104619462CE795EA0C0FA2
:104A500006D152EA03353FF4FDAE1046194622E76F
:104A600050EA410618BF52EA43067FF4C5AE50EA49
:104A700041047FF40DAF52EA43057FF4EBAE12E739
:104A80004FEA410212F5001215D211D56FF4787376
:104A9000B3EB625212D94FEAC12343F0004343EA19
:104AA000505311F0004F23FA02F018BF40427047F4
:104AB0004FF00000704750EA013005D111F000407E
:104AC00008BF6FF0004070474FF00000704700BF14
:104AD0004A0011D212F5001211D20DD56FF478737D
:104AE000B3EB62520ED44FEAC12343F0004343EAD2
:104AF000505323FA02F070474FF00000704750EA1D
:104B0000013002D14FF0FF3070474FF00000704786
:104B100080F0004002E000BF81F0004142001FBF72
:104B20005FEA410392EA030F7FEA226C7FEA236C7B
:104B30006AD04FEA1262D2EB1363C1BFD218414070
:104B400048404140B8BF5B42192B88BF704710F006
:104B5000004F40F4000020F07F4018BF404211F0A9
:104B6000004F41F4000121F07F4118BF494292EA11
:104B7000030F3FD0A2F1010241FA03FC10EB0C003D
:104B8000C3F1200301FA03F100F0004302D54942CA
:104B900060EB4000B0F5000F13D3B0F1807F06D377
:104BA00040084FEA310102F10102FE2A51D2B1F16F
:104BB000004F40EBC25008BF20F0010040EA030064
:104BC0007047490040EB000010F4000FA2F1010211
:104BD000EDD1B0FA80FCACF1080CB2EB0C0200FA9B
:104BE0000CF0AABF00EBC25052421843BCBFD040E9
:104BF0001843704792F0000F81F4000106BF80F463
:104C000000000132013BB5E74FEA41037FEA226C25
:104C100018BF7FEA236C21D092EA030F04D092F0F0
:104C2000000F08BF0846704790EA010F1CBF002024
:104C3000704712F07F4F04D1400028BF40F0004081
:104C4000704712F100723CBF00F50000704700F0A1
:104C5000004343F0FE4040F4000070477FEA2262C8
:104C600016BF08467FEA23630146420206BF5FEA99
:104C7000412390EA010F40F4800070474FF0000399
:104C800004E000BF10F0004348BF40425FEA000C60
:104C900008BF704743F0964301464FF000001CE008
:104CA00050EA010208BF70474FF000030AE000BF5E
:104CB00050EA010208BF704711F0004302D540429C
:104CC00061EB41015FEA010C02BF8446014600200E
:104CD00043F0B64308BFA3F18053A3F50003BCFA29
:104CE0008CF2083AA3EBC25310DB01FA02FC6344D6
:104CF00000FA02FCC2F12002BCF1004F20FA02F2DD
:104D000043EB020008BF20F00100704702F12002CF
:104D100001FA02FCC2F1200250EA4C0021FA02F230
:104D200043EB020008BF20EADC7070474FF0FF0C35
:104D30001CEAD0521EBF1CEAD15392EA0C0F93EA30
:104D40000C0F6FD01A4480EA010C400218BF5FEAD2
:104D500041211ED04FF0006343EA501043EA511145
:104D6000A0FB01310CF00040B1F5000F3EBF49003F
:104D700041EAD3715B0040EA010062F17F02FD2A43
:104D80001DD8B3F1004F40EBC25008BF20F0010026
:104D9000704790F0000F0CF0004C08BF49024CEA3D
:104DA000502040EA51207F3AC2BFD2F1FF0340EACF
:104DB000C250704740F400004FF00003013A5DDC40
:104DC00012F1190FDCBF00F000407047C2F1000281
:104DD000410021FA02F1C2F1200200FA02FC5FEA6E
:104DE000310040F1000053EA4C0308BF20EADC70B8
:104DF000704792F0000F00F0004C02BF400010F42A
:104E0000000F013AF9D040EA0C0093F0000F01F0D6
:104E1000004C02BF490011F4000F013BF9D041EAF8
:104E20000C018FE70CEAD15392EA0C0F18BF93EAFA
:104E30000C0F0AD030F0004C18BF31F0004CD8D124
:104E400080EA010000F00040704790F0000F17BFAB
:104E500090F0004F084691F0000F91F0004F14D0F1
:104E600092EA0C0F01D142020FD193EA0C0F03D149
:104E70004B0218BF084608D180EA010000F000404C
:104E800040F0FE4040F40000704740F0FE4040F427
:104E9000400070474FF0FF0C1CEAD0521EBF1CEAC6
:104EA000D15392EA0C0F93EA0C0F69D0A2EB0302E4
:104EB00080EA010C49024FEA402037D04FF080537E
:104EC00043EA111143EA10130CF000408B4238BF43
:104ED0005B0042F17D024FF4000C8B4224BF5B1A51
:104EE00040EA0C00B3EB510F24BFA3EB510340EA9F
:104EF0005C00B3EB910F24BFA3EB910340EA9C004D
:104F0000B3EBD10F24BFA3EBD10340EADC001B01BC
:104F100018BF5FEA1C1CE0D1FD2A3FF650AF8B4260
:104F200040EBC25008BF20F0010070470CF0004C6D
:104F30004CEA50207F32C2BFD2F1FF0340EAC25098
:104F4000704740F400004FF00003013A37E792F059
:104F5000000F00F0004C02BF400010F4000F013AB7
:104F6000F9D040EA0C0093F0000F01F0004C02BFB2
:104F7000490011F4000F013BF9D041EA0C0195E71B
:104F80000CEAD15392EA0C0F08D142027FF47DAFB4
:104F900093EA0C0F7FF470AF084676E793EA0C0FA4
:104FA00004D14B023FF44CAF08466EE730F0004CA2
:104FB00018BF31F0004CCAD130F000427FF45CAF32
:104FC00031F000437FF43CAF5FE700BF4FEA40029F
:104FD000B2F1FE4F0FD34FF09E03B3EB12620DD927
:104FE0004FEA002343F0004310F0004F23FA02F091
:104FF00018BF404270474FF00000704712F1610F38
:1050000001D1420205D110F0004008BF6FF000400E
:1050100070474FF00000704742000ED2B2F1FE4FD1
:105020000BD34FF09E03B3EB126209D44FEA002377
:1050300043F0004323FA02F070474FF0000070473E
:1050400012F1610F01D1420202D14FF0FF307047DF
:105050004FF00000704700BF70B547F2C01647F22E
:10506000C015C0F20006C0F20005761BB61007D0CE
:10507000043D002455F8043F01349847A642F9D175
:1050800047F2D41647F2C015C0F20006C0F2000580
:10509000761B02F08FF8B61008D0043D002455F8B6
:1050A000043F01349847A642F9D170BD70BD00BFDE
:1050B00048F630430146C1F6FF73186800F008B89F
:1050C00048F630430146C1F6FF73186801F01AB87C
:1050D0002DE9F04F01F10B04162C83B0074630D9AF
:1050E00024F00704E30F8C422CBF194643F0010162
:1050F00000292FD1384600F0D7FBB4F5FC7F2ED223
:105100004FEAD40C48F62006C1F6FF7606EBCC0237
:10511000D368934200F01182596803F10808DA68F5
:10512000384621F0030499681B195C68CA6044F092
:10513000010491605C6000F0B9FB404603B0BDE83B
:10514000F08F002310248C422CBF194643F001013C
:105150000029CFD00C234FF000083B60EDE75FEA59
:10516000542C04BF4FEAD40C4FEA4C0540F08F801A
:1051700048F62006C1F6FF7606EB8505EB689D42F2
:1051800006D10DE0002A80F25581DB689D4207D0F0
:10519000596821F003010A1B0F2AF3DD0CF1FF3CD3
:1051A0000CF1010C48F620023369C1F6FF7202F1DE
:1051B000080E734508BFD2F8049022D0586820F03A
:1051C0000300011B0F2900F384810029C2F814E0B9
:1051D000C2F810E066DAB0F5007F80F04E81C108B9
:1051E0004FF0010802EBC100891008FA01F851687C
:1051F0008568D86048EA0109C2F804909D60EB60B8
:10520000836001224FEAAC0302FA03F34B4554D802
:1052100019EA030F0DD193402CF0030C19EA030F88
:105220000CF1040C05D15B000CF1040C19EA030F1E
:10523000F9D006EBCC09E0464846C268904207D157
:105240005BE1002980F28381D268904200F05581B1
:10525000556825F00305291B0F29F2DD9046131927
:10526000D56844F0010058F8084F41F0010C506037
:105270003846C3F804C0E560AC6073613361C3F8BD
:105280000CE0C3F808E0595000F010FB55E7BCF102
:10529000040F00F2DE804FEA941C0CF1380C4FEA48
:1052A0004C0565E71A1803F108083846536843F0BF
:1052B0000103536000F0FAFA3FE7B5686B6823F02A
:1052C000030A544504D8C4EB0A030F2B00F3A4804F
:1052D00049F2DC29D6F80814C1F6FF7905EB0A0279
:1052E0000131D9F80030234408BF03F1100B06D078
:1052F00003F580530F3323F47F6323F00F0B3846FD
:105300005946019200F0C4FC019A411C804600F00D
:105310006881824200F23181D9F8043042455B4411
:10532000C9F8043000F06681D6F8081448F6200069
:10533000C1F6FF70013117BFC2EB0802C0F8088444
:105340009B18C9F8043018F0070338461FBFC3F193
:105350000802C3F58053904403F1080208EB0B03E5
:1053600008BF4FF480521B051B0DC3EB020B5946BF
:1053700000F08EFC431C00F04981C8EB0001594449
:1053800041F00101D9F80430B54249F2DC22C6F8F7
:1053900008805B44C1F6FF72C8F80410C9F80430F5
:1053A00018D0BAF10F0F40F20B81AAF10C00696816
:1053B00020F007004FF0050C05EB000E0F2801F060
:1053C000010140EA01016960CEF804C0CEF808C0CE
:1053D00000F2208149F2DC22D9F82C10C1F6FF72CC
:1053E000B5688B42D9F8301088BFD36249F2DC220D
:1053F000C1F6FF728B4288BF13636A6822F0030212
:105400009442C4EB020301D80F2B05DC38464FF061
:10541000000800F04BFA90E62A1943F0010344F02B
:10542000010438466C6005F108085360B26000F072
:105430003DFA82E65918DA689C6838464D6803F1EF
:10544000080845F00105E26094604D6000F02EFA16
:1054500073E6BCF1140F9CBF0CF15B0C4FEA4C05DA
:105460007FF686AEBCF1540F00F293804FEA143CF5
:105470000CF16E0C4FEA4C057AE6420A042A75D903
:10548000142A9CBF02F15B094FEA490508D9542A46
:1054900000F2C9804FEA103909F16E094FEA490557
:1054A00006EB850548F62008C1F6FF78AA68AA42EF
:1054B00079D0516821F00301884202D29268954266
:1054C000F7D1D068D6F80490D8609A60D360836032
:1054D00097E61D1941F00106556144F0010415617C
:1054E00038465C6003F10808C5F80CE0C5F808E030
:1054F0006E60695000F0DAF91FE608F10108083023
:1055000018F0030F7FF499AE4A461CF0030FA2F186
:1055100008010CF1FF3C00F09E8012688A42F4D032
:1055200072685B0093423FF6C8AE002B3FF4C5AEF5
:105530001A4200F09580C4467BE603F108025B69DD
:105540009A4208BF0CF1020C3FF42CAEE4E5904601
:105550005519D368384658F8082F6968D36041F068
:1055600001019A60696000F0A1F9E6E54FEA90193F
:1055700009F138094FEA490592E7B54248F6200398
:10558000C1F6FF733FF4C8AE9D686A6822F003025B
:1055900036E7BCF5AA7F19D84FEAD43C0CF1770C5A
:1055A0004FEA4C05E4E50125D8F804104FEAA909B3
:1055B000104605FA09F545EA0109C8F8049083E7A1
:1055C00001234546C8F80430002219E740F254533D
:1055D0009C450BD84FEA944C0CF17C0C4FEA4C05DF
:1055E000C6E5B5686A6822F0030209E7FC254FF0BA
:1055F0007E0CBDE51105090D00297FF495AEB2685A
:105600000BEB0A0141F001015160E3E601214FF08B
:10561000000BB7E6384605F10801019200F072FD73
:10562000019A5368D6E6B2F5AA7F06D84FEAD03978
:1056300009F177094FEA490532E740F25451FC2558
:105640008A424FF07E099EBF4FEA904909F17C09DA
:105650004FEA490524E7726822EA0302726060E7B4
:105660005B0008F1040863E7032A2DE9F00F09D86D
:105670002AB10023CC5CC45401339342FAD1BDE873
:10568000F00F7047830702440ED0441C4D1C15F8E0
:10569000017C04F00306234601342946013504F851
:1056A000027C002EF3D100E0034611F003046DD01C
:1056B000D71A0D1B032F2E6819DDC4F1040C4FEA15
:1056C000C4081C1D4FEACC0C55F8047FC4EB02093A
:1056D000234604310434B9F1030F26FA08FA07FA15
:1056E0000CFB3E464BEA0A0744F8087CECDC9A4285
:1056F000C5D901330131013211F8014C01330131B7
:10570000934203F8024CF7D1B9E70C6840334031BB
:1057100043F8404C51F83C4C43F83C4C51F8384C61
:1057200043F8384C51F8344C43F8344C51F8304C71
:1057300043F8304C51F82C4C43F82C4C51F8284C81
:1057400043F8284C51F8244C43F8244C51F8204C91
:1057500043F8204C51F81C4C43F81C4C51F8184CA1
:1057600043F8184C51F8144C43F8144C51F8104CB1
:1057700043F8104C51F80C4C43F80C4C51F8084CC1
:1057800043F8084C51F8044C43F8044CD41A3F2C0D
:10579000BBDC11E00C681033103143F8104C51F8A9
:1057A0000C4C43F80C4C51F8084C43F8084C51F899
:1057B000044C43F8044CD41A0F2CEBDC032C96DD7C
:1057C0001C1D0D1D55F8047C161B23462946043468
:1057D0000435032E44F8087CF4DC88E78842F0B4F2
:1057E00011D98C18A0420ED28518531E4AB12146F9
:1057F0002A4611F8014D013BB3F1FF3F02F8014D7C
:10580000F7D1F0BC70470F2A47D941EA00039B0744
:1058100045D10C4603461546266810331034103D1A
:105820000F2D43F8106C54F80C6C43F80C6C54F8C2
:10583000086C43F8086C54F8046C43F8046CEBD81B
:10584000A2F1100502F00F0425F00F051035032C0E
:1058500000EB0503294424D9A4F1040C1D460C4691
:105860004FEA9C0C01EB8C07043754F8046BBC42E4
:1058700045F8046BF9D10CF1010402F00302A40015
:1058800009191B19002ABCD001399A1811F8014FC7
:1058900003F8014B9342F9D1B3E70346F2E703461D
:1058A000F2E72246EEE700BF704700BF704700BF37
:1058B00048F630430A46C1F6FF730146186800F007
:1058C00001B800BF2DE9F04F0C4683B08146174662
:1058D000002900F01C8107F10B05FFF7E5FF54F8E4
:1058E000042C162DA4F1080A22F0030675D8102105
:1058F00000230D46BD4238BF43F00103002B40F0AA
:105900000C818E426EDA48F6200B0AEB0600C1F6D7
:10591000FF7BDBF808E0864500F00481D0F804C086
:105920002CF001088044D8F8048018F0010F1CBF47
:105930009C4660466FD0D30700F1C38054F8083C02
:10594000C3EB0A035A6822F003029219019200285D
:105950006CD0704500F037810CEB0208884565DBA0
:10596000C1681F468068321F242A8860C16057F8CA
:10597000080FD968C160886000F27881132A9CBF43
:10598000394620461FD921681B2A98BF04F1080018
:1059900099606168D96098BF03F1100113D9A168BB
:1059A000242A14BF04F1100004F118001961E16801
:1059B000596111BF03F11801226903F120019A61B5
:1059C00004BF6269DA6102683C460A609A4642682E
:1059D0004A6082688A605A6805E025F00705294612
:1059E000EB0F87E7B046C5EB08030F2B55D80AEB42
:1059F000080302F0010242EA0802CAF804205A68C9
:105A000042F001025A6048462746FFF74FFF3846EA
:105A100003B0BDE8F08F2CF0030C0CEB06088845B2
:105A200089DBC3688168CB609960DCE7019A8A42B0
:105A300047DB1F46D968321F57F8080F242AC16078
:105A4000886000F2B180132A9CBF394620461FD9D6
:105A500021681B2A98BF04F1080099606168D96029
:105A600098BF03F1100113D9A168242A14BF04F1CF
:105A7000100004F118001961E168596111BF03F1C8
:105A80001801226903F120019A6104BF6269DA6199
:105A900002683C46DDF8048097E70AEB050102F056
:105AA0000102CE18154343F00103CAF804504B60BD
:105AB00048467368083143F00103736000F022FB2D
:105AC000A1E739464846FFF703FB0746D8B154F82B
:105AD000042CA0F1080122F001035344994200F084
