:1000000000800020BD01000081320000813200002C
:100010008132000081320000813200004D32000048
:100020004D3200004D3200004D32000081320000A0
:10003000813200004D320000813200003D3200006C
:1000400081320000813200008132000081320000E4
:1000500081320000813200008132000081320000D4
:1000600081320000813200008132000081320000C4
:1000700081320000813200008132000081320000B4
:1000800081320000813200008132000081320000A4
:100090008132000081320000813200008132000094
:1000A0008132000081320000813200008132000084
:1000B0008132000081320000813200008132000074
:1000C0008132000081320000813200008132000064
:1000D0008132000081320000813200008132000054
:1000E0008132000081320000813200008132000044
:1000F000813200006D2D000081320000C12500001A
:1001000081320000BD3900008132000081320000E0
:100110008132000081320000813200008132000013
:100120008132000081320000813200008132000003
:1001300081320000813200008132000081320000F3
:1001400081320000813200008132000081320000E3
:1001500081320000813200008132000081320000D3
:1001600081320000053C0000813200008132000035
:1001700081320000813200008132000081320000B3
:1001800081320000813200008132000081320000A3
:10019000813200008132000081320000712E0000A7
:1001A000C12E0000492F00000530000089300000FA
:1001B000813200008132000081320000544B4CF249
:1001C000205210B51A804DF628121A8000BF00BFC9
:1001D00003F05AF84F4B4FF010621A604E4A9A6083
:1001E0004E4ADA604E4B1A6812F4807204D14D49BF
:1001F0000A604FF4A8521A604B4B1A7802F00802BA
:10020000D2B21AB11A7842F008021A70474B484825
:10021000484C2A221A700023474A02E01959995083
:10022000043399188142F9D3444B454A002101E037
:1002300043F8041B9342FBD34249434800231A5816
:100240005A500433B3F5DE7FF9D1404B404A802148
:1002500003F8011B9342FBD13A4A3E4B1A603E4BD6
:100260000A221A703D4B24221A70A02203F8012C96
:100270003B4A137803F00203DBB2002BF9D0384A73
:10028000137803F01003DBB2002BF9D1344A137852
:1002900003F00C03082BFAD1324B05221A704322CB
:1002A0005A702F4A137803F02003DBB2002BF9D0E9
:1002B0002B4A137803F04003DBB2002BF9D02A4B12
:1002C0004FF081721A6005225A60284B20221A7062
:1002D000234A137803F00C030C2BFAD1244A254B44
:1002E0001A60254B254A1A60072243F8042C62B68F
:1002F00002F064FF0B4B1B68DC0702D5204802F0BC
:10030000DBFE05F09BF902F0C5FF03F0A6F9FEE75E
:100310000E20054030800440823F04000100002B85
:1003200010D0034014D0034002D0074000E0074043
:10033000988DFF1FCC7700006087FF1F988DFF1FEF
:100340007094FF1F0082FF1F0000000000E400E027
:100350005FE400E008ED00E0005006400140064088
:1003600006400640044006404480044000400640E9
:10037000C01005000480044014E000E03F190100B3
:100380000C3CEE54FFFFFFFFFFFFFFFFFFFFFFFFEF
:10039000FFFFFFFFFFFFFFFFFFFFFFFFFFFFFFFF6D
:1003A000FFFFFFFFFFFFFFFFFFFFFFFFFFFFFFFF5D
:1003B000FFFFFFFFFFFFFFFFFFFFFFFFFFFFFFFF4D
:1003C000FFFFFFFFFFFFFFFFFFFFFFFFFFFFFFFF3D
:1003D000FFFFFFFFFFFFFFFFFFFFFFFFFFFFFFFF2D
:1003E000FFFFFFFFFFFFFFFFFFFFFFFFFFFFFFFF1D
:1003F000FFFFFFFFFFFFFFFFFFFFFFFFFFFFFFFF0D
:10040000FFFFFFFFFFFFFFFFFFFFFFFFFEFFFFFFFD
:1004100008B548F69850074BC1F6FF701B1A062B1B
:1004200000D808BD40F20003C0F20003002BF8D052
:100430009847F6E79B8DFF1F08B548F6985048F699
:100440009853C1F6FF70C1F6FF731B1A9B1003EBA4
:10045000D373591000D108BD40F20002C0F200026F
:10046000002AF8D09047F6E710B548F69854C1F640
:10047000FF74237873B9FFF7CBFF40F20003C0F29B
:1004800000032BB147F2CC70C0F20000AFF3008044
:100490000123237010BD00BF08B540F20003C0F275
:1004A00000034BB147F2CC7048F69C51C0F20000FB
:1004B000C1F6FF71AFF3008048F69850C1F6FF70A7
:1004C00003682BB140F20003C0F2000303B1984768
:1004D000BDE80840B0E700BF0B88584080EA001034
:1004E000C0B2C20082EA002282EA132383EA10101B
:1004F00008807047164BF7B5FE229A700622DA7014
:10050000FF225A71BE229A71124A917902AD197175
:10051000013191714FF6FF7225F8022D00261F461A
:10052000BB192946D8780A4C0136FFF7D5FF0B2EA8
:10053000F6D194202946FFF7CFFFE278BDF80630C8
:10054000A2180E201372E278A4181B126372FEBD6B
:100550006090FF1FB48DFF1F38B5044608460D4656
:1005600002F0C0FE236802465B6820462946984791
:1005700038BD08B50368C9B21B68984708BDFFFFBE
:10058000104A137873B940F6B83398420E4B07D926
:100590001988411AB1F5FA7F02DA01231370704706
:1005A00018807047094B1A6882181A60084B1A881D
:1005B00001321A80074A13880BB1984200D210808A
:1005C000704700BF488FFF1F788FFF1FDC90FF1F11
:1005D000E890FF1F2290FF1F054B1B783BB1054B96
:1005E0001A6812181A60044B1A8801321A80704770
:1005F000488FFF1F2490FF1F2090FF1F054B188876
:1006000038B105490A68B2FBF0F0002280B20A60F6
:100610001A807047E890FF1FDC90FF1F094B188875
:1006200070B1094B1A68002A1946A8BF92FBF0F076
:10063000044A4FF00003ACBF80B218460B60138031
:10064000704700BF2090FF1F2490FF1F084B1A68BF
:10065000042A01DC01321A60064BDA681A619A68D2
:10066000DA605A689A601A6883E80500704700BF2C
:100670003C90FF1FBC8FFF1F084B1A68042A01DC47
:1006800001321A60064BDA681A619A68DA605A68B1
:100690009A601A6883E80500704700BF4090FF1F0A
:1006A000B48EFF1F084B1A68042A01DC01321A605D
:1006B000064BDA681A619A68DA605A689A601A68B2
:1006C00083E80500704700BFE490FF1F2890FF1FDC
:1006D0000A4B0B4830B54FF4FA421C68094D002311
:1006E00008E055F8231001338A42A8BF0A46884221
:1006F000B8BF0846A342F4DB801A30BD3C90FF1F10
:100700000083FFFFBC8FFF1F0A4B0B4830B54FF42F
:10071000FA421C68094D002308E055F82310013304
:100720008A42A8BF0A468842B8BF0846A342F4DB03
:10073000801A30BD4090FF1F0083FFFFB48EFF1F63
:100740000A4B0B4830B54FF4FA421C68094D0023A0
:1007500008E055F8231001338A42A8BF0A468842B0
:10076000B8BF0846A342F4DB801A30BDE490FF1FF7
:100770000083FFFF2890FF1F70B5064686B00C4629
:100780000846B24902F096FE002840F0D884204680
:10079000AF4902F08FFE002840F0D384AD4902A893
:1007A00002F075FE204602A902F0AFFE054602A83F
:1007B00002F02CFE002D40F0C6842046A64902F02F
:1007C00079FE002840F0C184A44902A802F05FFE2F
:1007D000204602A902F099FE054602A802F016FE84
:1007E000002D40F0B48420469D4902F063FE0028AD
:1007F00040F0AF8420469B4902F05CFE002840F0A8
:10080000AA842046984902F055FE002840F0A584AD
:100810002046964902F04EFE002840F0A084204673
:10082000934902F047FE002840F09B8420469149FE
:1008300002F040FE002840F0968420468E4902F0E7
:1008400039FE002840F0918420468C4902F032FEA7
:10085000002840F08C842046894902F02BFE0028B5
:1008600040F087842046874902F024FE002840F0AB
:1008700082842046844902F01DFE002840F07D84D9
:100880002046824902F016FE002840F07884204677
:100890007F4902F00FFE002840F0738420467D4916
:1008A00002F008FE002840F06E8420467A4902F0EB
:1008B00001FE002840F069842046784902F0FAFDE4
:1008C000002840F064842046754902F0F3FD0028BA
:1008D00040F05F842046734902F0ECFD002840F0B0
:1008E0005A842046704902F0E5FD002840F0558406
:1008F00020466E4902F0DEFD002840F0508420467C
:100900006B4902F0D7FD002840F04B84204669492E
:1009100002F0D0FD002840F046842046664902F0EF
:10092000C9FD002840F041842046644902F0C2FD20
:10093000002840F03C842046614902F0BBFD0028BD
:1009400040F0378420465F4902F0B4FD002840F0B3
:10095000328420465C4902F0ADFD002840F02D8431
:1009600020465A4902F0A6FD002840F0288420467F
:10097000574902F09FFD002840F023842046554946
:1009800002F098FD002840F01E842046524902F0F3
:1009900091FD002840F019842046504902F08AFD5C
:1009A000002840F0148420464D4902F083FD0028C1
:1009B00040F00F8420464B4902F07CFD002840F0B7
:1009C0000A842046484902F075FD002840F005845D
:1009D0002046464902F06EFD002840F00084204683
:1009E000434902F067FD002840F0FB83204641495F
:1009F00002F060FD002840F0F68320463E4902F0F8
:100A000059FD002840F0F18320463C4902F052FD98
:100A1000002840F0EC832046394902F04BFD0028C5
:100A200040F0E7832046374902F044FD002840F0BB
:100A3000E2832046344902F03DFD002840F0DD838A
:100A40002046324902F036FD62E000BFB06B000084
:100A50007C68000096680000AF680000C568000070
:100A6000E1680000006900002169000039690000A8
:100A7000546900006C69000088690000AB690000DF
:100A8000C6690000DE690000FA6900000D6A000016
:100A9000216A0000366A00004C6A0000686A0000A3
:100AA000836A0000976A0000B46A0000D36A0000FD
:100AB000EB6A0000066B0000206B0000B2680000CB
:100AC0003B6B00004D6B00005A6B00006D6B00002B
:100AD000836B00009B6B0000AD6B0000BE6B0000E1
:100AE000CE6B0000E16B0000F76B0000166C00009D
:100AF0002F6C0000416C0000536C0000656C00001E
:100B0000766C0000876C00009C6C0000AF6C0000ED
:100B1000002840F074832046624902F0CBFC002894
:100B200040F06F832046604902F0C4FC002840F08A
:100B30006A8320465D4902F0BDFC002840F06583D1
:100B400020465B4902F0B6FC002840F06083204656
:100B5000584902F0AFFC002840F05B83204656491C
:100B600002F0A8FC002840F056832046534902F0CA
:100B7000A1FC002840F051832046514902F09AFC24
:100B8000002840F04C8320464E4902F093FC002898
:100B900040F0478320464C4902F08CFC002840F08E
:100BA00042832046494902F085FC002840F03D83FD
:100BB0002046474902F07EFC002840F0388320465A
:100BC000444902F077FC002840F033832046424934
:100BD00002F070FC002840F02E8320463F4902F0CE
:100BE00069FC002840F0298320463D4902F062FC60
:100BF000002840F0248320463A4902F05BFC00289C
:100C000040F01F832046384902F054FC002840F091
:100C10001A832046354902F04DFC002840F0158328
:100C20002046334902F046FC002840F01083314949
:100C300002A802F02CFC204602A902F066FC054640
:100C400002A802F0E3FB002D40F003832A4902A82A
:100C500002F01DFC204602A902F057FC054602A83E
:100C600002F0D4FB002D40F0F6822046234902F02A
:100C700021FC002840F0F1822046214902F01AFCB4
:100C8000002840F0EC8220461E4902F013FC0028A8
:100C900040F0E78220461C4902F00CFCB0B3372537
:100CA0004FE300BFBC6C0000CC6C0000D96C0000AE
:100CB000E36C0000EE6C0000006D00008468000032
:100CC0000E6D00001B6D0000266D00003B6D0000E6
:100CD000436D00004C6D0000646D00006C6D000001
:100CE000876D0000A56D0000BF6D0000D56D000090
:100CF000EF6D0000036E0000106E0000236E000018
:100D0000416E0000606E00007A6E00002046B1491E
:100D100002F0D0FB0028C2D12046AF4902F0CAFB46
:100D2000002840F0A0822046AC4902F0C3FB002816
:100D300040F09B822046AA4902F0BCFB002840F00C
:100D400096822046A74902F0B5FB002840F0918228
:100D50002046A54902F0AEFB002840F08C82A34952
:100D600002A802F094FB204602A902F0D7FB054638
:100D700002A802F04BFB002D40F07F8220469C49E8
:100D800002F098FB002840F07A822046994902F050
:100D900091FB002840F075822046974902F08AFBBB
:100DA000002840F070822046944902F083FB00281E
:100DB00040F06B82924902A802F069FB204602A92A
:100DC00002F0ACFB054602A802F020FB002D40F02B
:100DD0005E8220468B4902F06DFB002840F059826C
:100DE0002046894902F066FB002840F054822046E4
:100DF000864902F05FFB002840F04F82844902A838
:100E000002F045FB204602A902F07FFB054602A83E
:100E100002F0FCFA002D40F0428220467D4902F0AB
:100E200049FB002840F03D8220467B4902F042FB0E
:100E3000002840F038822046784902F03BFB002829
:100E400040F033822046764902F034FB002840F01F
:100E50002E822046734902F02DFB002840F02982A3
:100E60002046714902F026FB002840F024822046EB
:100E70006E4902F01FFB002840F01F8220466C499B
:100E800002F018FB002840F01A822046694902F05F
:100E900011FB002840F015822046674902F00AFB4A
:100EA000002840F010822046644902F003FB00282D
:100EB00040F00B822046504902F0FCFA002840F036
:100EC000068220465E4902F0F5FA002840F00182D1
:100ED00020465C4902F0EEFA002840F0FC812046F2
:100EE000594902F0E7FA002840F0F78120465749B7
:100EF00002F0E0FA002840F0F2812046544902F066
:100F0000D9FA002840F0ED812046524902F0D2FA89
:100F1000002840F0E88120464F4902F0CBFA002833
:100F200040F0E38120464D4902F0C4FA002840F029
:100F3000DE8120464A4902F0BDFA002840F0D981FE
:100F40002046484902F0B6FA002840F0D4812046F5
:100F5000454902F0AFFA002840F0CF8120464349CE
:100F600002F0A8FA002840F0CA812046404902F069
:100F7000A1FA002840F0C58120463E4902F09AFAC5
:100F8000002840F0C08120463B4902F093FA002837
:100F900040F0BB812046394902F08CFA002840F02D
:100FA000B6812046364902F085FA002840F0B1812A
:100FB0002046344902F07EFA002840F0AC812046F9
:100FC000314902F077FA002840F0A7812F4902A8A2
:100FD0005EE000BF906E0000AB6E0000B86E0000D7
:100FE000ED6E0000DC6E0000FA6E0000166F00006F
:100FF000246F0000516F00005D6F0000706F0000F3
:10100000826F0000946F0000C36F0000E66F000065
:1010100003700000137000002070000032700000A8
:101020003C700000597000007A7000009D70000054
:10103000AA700000C6700000E1700000F3700000AC
:101040000E7100002771000037710000617100000F
:1010500096710000BD710000E2710000F3710000A4
:1010600009720000167200002A7200003D72000032
:10107000557200008472000096720000B072000089
:10108000D3720000EF7200000673000015730000B9
:1010900002F0FDF9204602A902F037FA054602A83F
:1010A00002F0B4F9002D40F03A8120469E4902F04A
:1010B00001FA002840F0358120469C4902F0FAF9F7
:1010C000002840F03D819A4902A802F0E0F920464C
:1010D00002A902F01AFA054602A802F097F90DB12A
:1010E00000252EE1934902A802F0D1F9204602A979
:1010F00002F00BFA054602A802F088F9002DEFD1A4
:101100008D4902A802F0C3F9204602A902F0FDF9B8
:10111000054602A802F07AF9002DE1D1874902A81C
:1011200002F0B5F9204602A902F0EFF9054602A83F
:1011300002F06CF9002DD3D140F2FF3501E1012519
:10114000FFE00225FDE00325FBE00425F9E005258D
:10115000F7E00625F5E00725F3E00825F1E009258D
:10116000EFE00A25EDE00B25EBE00C25E9E00D258D
:10117000E7E00E25E5E00F25E3E01025E1E011258D
:10118000DFE01225DDE01325DBE06F25D9E07025D7
:10119000D7E07125D5E07225D3E07325D1E0742521
:1011A000CFE07525CDE07625CBE07725C9E0142585
:1011B000C7E01525C5E01625C3E01725C1E0642565
:1011C000BFE06525BDE06625BBE05925B9E078257F
:1011D000B7E07925B5E05A25B3E05B25B1E05C25A1
:1011E000AFE01825ADE01925ABE01A25A9E01B25D5
:1011F000A7E01C25A5E01D25A3E01E25A1E01F25D5
:101200009FE07D259DE020259BE0212599E022257A
:1012100097E0232595E0242593E0252591E02625D8
:101220008FE027258DE028258BE0292589E02A25D8
:1012300087E02B2585E02C2583E02D2581E02E25D8
:101240007FE02F257DE030257BE0312579E05D25AD
:1012500077E0322575E0332573E0342571E03525DC
:101260006FE036256DE038256BE0392569E05E25B5
:1012700067E05F2565E0602563E03D2561E061256D
:101280005FE03E255DE03B255BE03C2559E06225C3
:1012900057E0632555E03F2553E0402551E06E259A
:1012A0004FE041254DE042254BE0432549E04425F0
:1012B00047E0452545E0462543E0472541E04825F0
:1012C0003FE049253DE04A253BE04B2539E04C25F0
:1012D00037E04D2535E04E2533E04F2531E05025F0
:1012E0002FE051252DE07C252BE0522529E05325C8
:1012F00027E0542525E0552523E0672521E07A25C0
:101300001FE068251DE07B251BE0692519E06A25A3
:1013100017E06B2515E06C2513E06D2511E05825CD
:101320000FE056250DE000BF277300004373000057
:1013300058730000607300006D7300007973000043
:101340005725144B14481D80144B1B6801930A2227
:101350000023019902F040F911490F48FFF7FCF80A
:1013600031460D4802F070F90E490B48FFF7F4F8CA
:101370002146094802F000F90B490748FFF7ECF84D
:101380002946054802F060F9034802F017F906B053
:1013900070BD00BF088FFF1F9092FF1F7892FF1F44
:1013A0007F7300009C730000A6730000FFFFFFFF27
:1013B0002DE9F041A2B00DF150080CE2A44D01F06E
:1013C000B5F800232B70EB780746C4B2092B00F266
:1013D0009580DFE803F00505122A2331384556745D
:1013E000FE2C40F08B800223EB709A4B0022DA70C7
:1013F0004FF6FF729C701A8080E0652C04D96B78E0
:1014000001336B70012307E0924900232B71CC70EC
:101410002046FFF761F80423EB706FE08D4920460A
:101420000C71FFF759F80323F6E78A4920464C71FF
:10143000FFF752F80523EFE7864920468C71FFF746
:101440004BF80623E8E7834D2046EC712946FFF769
:1014500043F8EA787E4B0AB9082239E0072237E0E0
:101460002B797C4FFA18013314722B7120463946C0
:10147000FFF732F82A79FB789A423FD10822744B61
:1014800026E0744D744AEB792946D05CFFF724F8C6
:101490002B78FFB29F426E4B0BD00022FE2C1A70AD
:1014A00000D014E00221D9704FF6FF73EA702B8050
:1014B00024E00922DA701B79ED182C721EE0654FCA
:1014C0003B88B4EB132F0DD0FE2C614B02D00122D0
:1014D000DA7013E00222DA700023FB704FF6FF731C
:1014E0003B800BE001232B70EB702B79FB1806A8D7
:1014F0005C723946702204F0A9FBFE79544B1978CE
:10150000012907D1534A12795A711A8902B95A81AD
:1015100001321A814E4B00229A70002900F05B8143
:101520001B2E00F0E58006D8012E55D00CD3182EC6
:1015300040F05181B2E04A2E00F03081FD2E28D0DB
:101540001E2E40F04881E7E09DF82610434B21F025
:101550007F010729D4BF002101211970089B404950
:101560000B60404B1B68019301993F4B19603F4B47
:101570001988881C013189B20A29188040F22B8110
:101580001A803B483B4B01210170187801F0A4FD03
:1015900021E1394B08AA144603CC083343F8080C60
:1015A00043F8041C44452246F5D12188A2781980CD
:1015B00031499A7011F8014B304B1C80304B052299
:1015C00002A81A8001F063FF204602A9FFF7D4F8B1
:1015D00002A801F01BFFFEE02A4A2B4B12681A807A
:1015E0002A4A127812B9BDF82E201A80BDF8303080
:1015F000274D254C9DF83E202B80264B20881A70C5
:10160000FEF7BEFFB5F90000FEF7E6FF1F4B224ACA
:101610001B781370002B40F0DE80238845F20822EF
:10162000934200F2DE8044F25C42934200F2DB809F
:1016300043F2CE12934200F2D88042F23412934227
:1016400000F2D58041F29A02934200F2D280C2E0C9
:10165000B48DFF1F408EFF1FB1730000348EFF1F3B
:101660006887FF1F7892FF1FE48FFF1F4490FF1FC2
:10167000708FFF1FE087FF1FE88FFF1F7087FF1F1E
:10168000B88FFF1F688FFF1FD090FF1F6087FF1F5D
:101690004C90FF1FE090FF1FD290FF1F9DF83C3041
:1016A0005B4A5C4913709DF83D200A7012B2D1006C
:1016B00001EB42025849D2180A60BDF8341089087B
:1016C0004A1EFE2A554A88BFFF21032B11800BD1E9
:1016D0000A9B534A13600B9B524A1360524A0C9B5D
:1016E0001360BDF8382000E00022504B1A6072E011
:1016F000BDF928000A2490FBF4F0FEF7A7FFBDF91E
:101700002A0090FBF4F0FEF7B7FFBDF92C0090FB28
:10171000F4F0FEF7C7FF5EE045490998454C03F039
:10172000F7FD03F0B1F936A3D3E9002303F02AFB58
:1017300003F098FC404B3E4918605A30B4280A9890
:1017400009D803F0E5FD03F09FF92DA3D3E90023A9
:1017500003F018FB0EE003F0DBFD03F095F928A37E
:10176000D3E9002303F00EFB02460B460020334969
:1017700003F02AF803F076FC20600B9803F084F95C
:101780001FA3D3E9002303F021F81FA3D3E900230B
:1017900003F0CEF903F08EFC294B1BE0099803F00F
:1017A0002DFF284BBDF930201860274B27491A60C0
:1017B000BDF83220264B0A981A8003F0A9FD03F0E9
:1017C000F7FE244B214918600B9803F0A1FD03F0AC
:1017D000EFFE214B186000F09BFE00287FF4EEAD79
:1017E0000BE0062306E0052304E0042302E00323C4
:1017F00000E00223194A1370EDE722B0BDE8F08142
:10180000A7E8482EFF21094029ED0DBE305F644056
:101810007287FF1FE190FF1F6C8FFF1F6287FF1F02
:101820005090FF1FD08FFF1F048FFF1F388EFF1FA8
:1018300000003443D88FFF1FD490FF1F0080664004
:101840001C90FF1F4890FF1FB08EFF1F0000C84272
:10185000DE8FFF1F5890FF1FD890FF1FD290FF1FF1
:1018600008B540F6C41001F0B1F8034B1022A021D6
:101870009A7199705A7108BD00A006402DE9F74F82
:10188000FFF7EEFF40F6C41000F0CAFC234B244ED5
:10189000DFF8AC90DFF8AC8000241C70214B1A6894
:1018A000009200991B68204A019311601F4B019A16
:1018B0001A601F4B1C801F4B0121187801F02CFC73
:1018C0000C20012101F028FC21460E2001F024FC0F
:1018D0000D2000F0D9FF204600F0B2FFDFF868C00D
:1018E00015482146A246002500240CEB010BDBE93C
:1018F000002309EB0107C7E9004508EB0107C7E929
:10190000002347180D4B46F804AF08310022302958
:10191000C7E90023E9D1BDE8FE8F00BF708FFF1F2C
:10192000488FFF1F7892FF1FE48FFF1F308EFF1F2D
:101930004490FF1FE087FF1F808FFF1F00208C4017
:10194000108FFF1FC88EFF1F7887FF1F044B1A8858
:10195000801800EB102000F0FF001880704700BFD7
:10196000DC8FFF1F7E2810B5044606D17D210C4870
:10197000FEF7FFFD0A485E2107E07D2808D12146D9
:101980000748FEF7F6FD06485D21FEF7F2FD01E08F
:1019900001F0D2F82046BDE81040FFF7D7BF00BFE6
:1019A0007C92FF1F10B5054C0548B4F90010C1F139
:1019B000FF01FEF7DEFD0023238010BDDC8FFF1F3B
:1019C0007C92FF1F13B51C4B00911B78ADF80600ED
:1019D00023B11A4B0121187801F07EFB184CA37932
:1019E00043F02003A3711020FFF7BCFF9DF8060011
:1019F000FFF7B8FF9DF80700FFF7B4FF9DF8000060
:101A0000FFF7B0FF9DF80100FFF7ACFF9DF8020063
:101A1000FFF7A8FF9DF80300FFF7A4FFFFF7C2FF41
:101A200001F030F9A37983F02003A371034B002167
:101A3000187801F051FB1CBD708FFF1FE087FF1F5E
:101A400000A00640832870B500F0418109D8222803
:101A500000F00C81452800F0D181002800F0EC80D6
:101A600070BDC62800F0CA81E42800F0B881A12822
:101A700040F04282A74B1B78002B00F03D82A64A23
:101A80001178A64A19B9A6480488018014801288E2
:101A9000002A00F03182052900F2C780DFE801F05A
:101AA000031F406181A19F4D9F482D7804684068C5
:101AB00019014DB1022394FBF3F290FBF3F31205ED
:101AC0001B05120D1B0D05E05B0092FBF3F21205E6
:101AD000120D1346120242EA0353C9B2A0E0022BD0
:101AE00040F2A3808F4D90492D788C68C968180109
:101AF0004DB1022394FBF3F291FBF3F312051B05A6
:101B0000120D1B0D05E05B0092FBF3F21205120DA6
:101B100013461202C1B242EA035341F002017FE0D0
:101B2000042B40F282807F4D7F492D780C694969F2
:101B300018014DB1022394FBF3F291FBF3F312056C
:101B40001B05120D1B0D05E05B0092FBF3F2120565
:101B5000120D13461202C1B242EA035341F00401CE
:101B60005EE0062B61D96F4D6F492D784C69C969CC
:101B700018014DB1022394FBF3F291FBF3F312052C
:101B80001B05120D1B0D05E05B0092FBF3F2120525
:101B9000120D13461202C1B242EA035341F006018C
:101BA0003EE0082B41D95F4D5F492D780C6A496AA8
:101BB00018014DB1022394FBF3F291FBF3F31205EC
:101BC0001B05120D1B0D05E05B0092FBF3F21205E5
:101BD000120D13461202C1B242EA035341F008014A
:101BE0001EE00A2B21D94F4D4F492D788C6AC96AC6
:101BF00018014DB1022394FBF3F291FBF3F31205AC
:101C00001B05120D1B0D05E05B0092FBF3F21205A4
:101C1000120D13461202C1B242EA035341F00A0107
:101C20004FF440701943FFF7CDFE3B4B1A78013259
:101C3000D2B21A70022A5CE13C4C237813B1012B1A
:101C40000AD103E04FF48870394B02E0394B4FF46E
:101C500080701968FFF7B6FE23780133DBB2012BE1
:101C6000237040F249810022304B44E1324B1B8803
:101C7000012B40F24181314B1B783BB9FEF7BEFC92
:101C80002F4B1880FEF7CAFC2E4B18802C4B1B885C
:101C9000002B00F03181294A127812B1012A0FD1AC
:101CA00005E00A214FF40470B3FBF1F106E0254B87
:101CB00019880A234FF40070B1FBF3F1FFF782FE9D
:101CC0001E4B1A780132D2B21A70012A11E11E4B52
:101CD0001B78042B7CD8DFE803F0033F5D697300B9
:101CE0001A4B1B78032B73D1194B1A4A1B68002B14
:101CF0004FF0640107DA5B4293FBF1F1062359438D
:101D000041F040413AE093FBF1F306214B4343F0AD
:101D1000004339E0D290FF1F498FFF1FE08FFF1F64
:101D20002290FF1F6087FF1F4C8FFF1FBA8FFF1F7E
:101D3000D890FF1F5890FF1F2090FF1FD48FFF1FC8
:101D4000C08DFF1F0A8FFF1F008FFF1F7287FF1FAD
:101D5000D08FFF1F748FFF1F684B1B78032B37D169
:101D6000674B684A1B68002B4FF0640108DA5B423E
:101D700093FBF1F10623594341F08041116004E0E7
:101D800093FBF1F306214B4313605E4B4FF400606D
:101D900019681BE0594B1B78032B19D15A4B196852
:101DA0000A234FF4026091FBF3F10FE0534B1B78D1
:101DB000032B0DD1554B4FF403601B68142104E035
:101DC000534B1B684FF4046064215943FFF7FAFD3D
:101DD000504B1A780132D2B21A70042A89E04E4B65
:101DE0001A884E4B93F90030642101FB02314FF405
:101DF000A0604900BDE87040FFF7E4BD484B1B7888
:101E0000082B70D8DFE803F0050A10161C21344AAD
:101E10006700444B4FF20310198862E0FEF758FC4C
:101E200001464FF4E0605CE0FEF76EFC01464FF4C3
:101E3000E26056E0FEF784FC01464FF4E46050E0B7
:101E4000394B4FF4806019684BE0384B1868B43058
:101E500003F00AFA364B196803F00EFB03F0CEFBD1
:101E60004FF4A5714843A0F1A5014FF4106011E0B3
:101E7000304B1868B43003F0F7F92D4B196803F0B4
:101E8000FBFA03F0BBFB4FF4A5714843A0F1A50199
:101E90004FF41160FF23B1FBF3F122E0264B274CF6
:101EA0001978238801F0010193B1254A15887DB185
:101EB00024480688AD05013606F00F066D0C013B7F
:101EC00045EA46059BB2294323800BB90380138062
:101ED0004FF4826005E01C4B1968002903DB4FF4C6
:101EE000C060FFF76FFD0E4B1A780132D2B21A7044
:101EF000082A01D900221A7070BD00BF7287FF1F27
:101F00005090FF1F748FFF1F048FFF1F388EFF1F1D
:101F1000B08EFF1F008FFF1FDE8FFF1FE090FF1F9F
:101F20005490FF1F6287FF1F6C8FFF1FD490FF1F0D
:101F3000E487FF1FD88FFF1F348EFF1FB88FFF1F4E
:101F4000088FFF1F7087FF1F6887FF1F70B50A4C3F
:101F50000025012600F0B2FE68B100F0BDFEC0B25F
:101F60007E2801D12670F5E72378002BF2D0FFF709
:101F700069FD2570EEE770BDC28DFF1F2DE9FF479B
:101F8000DFF87082DFF89092934F00265FFA86FAAE
:101F9000504600F0A3FC02F065FD904B0446187813
:101FA0000D4602F05FFD0B4602462946204603F02F
:101FB00031F88B4B10B183F800A082E006221A7032
:101FC000884BD3F800A04FF07E50514603F096F8AE
:101FD00002F05AFD02460B462046294602F0A8FDB3
:101FE000044650460D4602F04FFDD7E9002302F0AB
:101FF0009FFD02460B462046294602F0E7FB0446B9
:102000000D46C7E900450022002303F017F830B160
:10201000204629460022744B02F0D8FB05E02046FA
:1020200029460022704B02F0CFFB03F01BF802F0B0
:1020300019FDF9E9022302F0A5FE00226B4B02F024
:1020400077FD04460D46C8E90045B6B900220023D5
:1020500002F0F4FF30B1204629460022624B02F024
:10206000B5FB05E02046294600225F4B02F0ACFBA1
:1020700002F0F8FF5E4B18601CE058E9022302F002
:10208000A3FB0022002304460D4602F0D7FF30B127
:10209000204629460022544B02F098FB05E02046DA
:1020A00029460022504B02F08FFB02F0DBFF504B21
:1020B00043F8260001360837062E08F108087FF499
:1020C00065AF474B1A784B4B03EBC20353E9020150
:1020D00002F0C8FF484B494A186013680193484B07
:1020E00001981968411A40F2DC5081425ED91268A9
:1020F0000292029A1A60434B93F80080B8F1000FE5
:1021000054D1DFF81891404C99F8000001210125C5
:1021100000F0E2FF0A26022323734227A572E5722C
:1021200065732681E771FEF7E5F994F803A0374857
:102130000AF1080A5246A11C03F088FD51463348B3
:1021400000F06EF9304601F023F80B232373A572DB
:10215000E57265732681E771FEF7CCF994F803A068
:102160002A480AF1080A5246A11C03F06FFD5146A5
:10217000264800F055F9304601F00AF8A572E572DC
:10218000257365732681E771FEF7B4F9E5781F487A
:102190000835A11C2A4603F059FD1C48294600F0C9
:1021A0003FF999F80000414600F096FF134B1B6879
:1021B0000393174B039A1B68D21A40F2DC539A42DE
:1021C00004D9104A00231370124A1380FFF7F0F865
:1021D000FFF7BCFEBDE8FF87808FFF1F6487FF1FEE
:1021E0006087FF1F6C87FF1F0000E03F00408F40AB
:1021F0004C8FFF1F108FFF1F688FFF1F7892FF1FEC
:10220000308EFF1F708FFF1F6090FF1FC38DFF1F59
:10221000E48FFF1F4490FF1FC08EFF1FE087FF1F4A
:10222000184B1A6842F400621A60174A00231370B0
:10223000164A1370164A1370164A1370164A137012
:10224000164B40F213321A604FF451725A60144B1D
:10225000C0F344321A70C0F347125A7000F01F00E6
:102260000422022198729A70D9745A7588221A74BD
:102270003C22DA700B4B40221A700B4B4FF4004299
:102280001A607047348004405491FF1FEB90FF1F89
:102290005C91FF1F5591FF1FEA90FF1F0CB0044097
:1022A00000B006402FE400E004E100E0134A937818
:1022B00000F0030103F0EC030B43410748BF43F078
:1022C0001003937000F00F03042B0C4903D18B799A
:1022D00043F040038B715379C20603F0EF03074AC2
:1022E00048BF43F0100353719379810603F0EF0365
:1022F00048BF43F010039371704700BF00B0064021
:102300000E4B1B68180510B503D410BD01F0AEF9D3
:1023100000E00B4C2378002BF8D10A4A4FF400411F
:102320001160094A0949D37040F203120A604A60F9
:10233000074A1370074A137010BD00BF3480044071
:10234000EA90FF1F84E100E000B006400CB00440BA
:102350005491FF1FEB90FF1F38B5094B04461D78C1
:10236000002DFCD12046012100F0D6FE2046294652
:1023700000F0B2FE034B53F83420034B1A6038BD13
:10238000EA90FF1FC87400005891FF1F1D4B1B6887
:102390001A052DE9F041074631D51B4B1B680BB1DF
:1023A00001221A70194B1A4D1C781A4EDFF86880FA
:1023B0000134272C88BF002414E000F075FF40286A
:1023C0000CDC33791B060DD52B780133272B88BF06
:1023D000002318F80320F2712B7003E0FF2801DDC1
:1023E00001F044F92B78A342E7D00B4B1F550B4B60
:1023F00001221A70054B1C70064BBC22DA70BDE836
:10240000F08100BF348004405891FF1F5C91FF1F92
:102410005591FF1F00B00640EC90FF1FEA90FF1F90
:102420002DE9F84F254B1B6806461805894642D50D
:10243000234B1B680BB101221A70224DB346AA46EA
:1024400032E0214B1C782F780134272C88BF0024E0
:10245000A74209D01BF8012B1C4B1A551C4B01221B
:102460001A70194B1C701FE01A4BBC22DA70984688
:1024700000F01AFF40280FDC98F8043019060FD539
:102480002B78124A0133272B88BF0023D25C88F8AF
:1024900007208AF8003003E0FF2801DD01F0E6F8AC
:1024A0002B78BB42E4D0D5E706EB09039B45C8D3A4
:1024B000084BBC22DA70BDE8F88F00BF34800440BE
:1024C0005891FF1F5591FF1F5C91FF1FEC90FF1F5C
:1024D000EA90FF1F00B0064010B5044C01E001F087
:1024E000C5F82378002BFAD110BD00BFEA90FF1F7A
:1024F000054B064A1B781078834201D3273000E051
:102500000138C01A704700BF5C91FF1F5591FF1F33
:10251000044B1878044B1B78984238BF4030C01ADF
:10252000704700BF5491FF1FEB90FF1F084B094AF3
:1025300019781378994207D001333F2B88BF0023C5
:102540000549C85C137070474FF0FF30704700BFFB
:102550005491FF1FEB90FF1F1491FF1F074B1A7838
:10256000074B1B789A4206D001333F2B88BF0023CC
:10257000044AD05C70474FF0FF3070475491FF1F02
:10258000EB90FF1F1491FF1F094B1B681B050ED515
:10259000084BDA7802F0CB02DA7040225A74DA780B
:1025A00042F03402DA70044B1A78044B1A70704708
:1025B0003480044000B00640EB90FF1F5491FF1F91
:1025C00070B52D4B1A7912F0300F1DD072B6997D6F
:1025D00021B9DA7940225A7462B615E062B6274A08
:1025E00027481278274D00781C46531C3F2B88BF84
:1025F0000023E67983421CBFEE541A46013911F0DC
:10260000FF01F2D11D4B1A701B4AD37819465BB2F9
:10261000002B1BDA1379180618D51B4B1B4C1D78A1
:102620001B4B1B78AB4209D00133272B88BF0023FB
:102630001079E05CD071107D0728F3D9144A13702B
:102640000D4B1A79120601D57C22DA7001F0400395
:10265000DBB27BB1084B1A7902F04002D2B21946C4
:1026600042B10C4B00221A700B4B1B6803B11A705D
:102670003C23CB7070BD00BF00B006405491FF1FDB
:10268000EB90FF1F1491FF1F5C91FF1FEC90FF1F49
:102690005591FF1FEA90FF1F5891FF1FF0B530487A
:1026A000304903681B06FCD40B6813F08002F8D194
:1026B00072B62D4B1978002950D02C4908684F6804
:1026C0008E68CD680C693818143180190968401972
:1026D00000194018C0F34E00254940F4004008603E
:1026E000C86A0F6B4E6B8D6BCC6B381840318019FC
:1026F0000968401900194018C0F34E001D4940F404
:102700000040086001F10811143151F8140C51F81F
:10271000107C51F80C6C51F8085C51F8044C0968B5
:1027200038188019401900194018C0F34E0012499A
:1027300040F400400860C86A0F6B4E6B8D6BCC6B29
:102740003818403180190968401900194018C0F341
:102750004E000A4940F4004008601A7062B6F0BDAD
:1027600024B0034024B00B405E91FF1F38B00340FB
:102770002CB0034030B003402CB00B4030B00B40C5
:10278000224B60221A70E1225A70214B214A19789B
:10279000214B082901D1012102E00A2907D1192181
:1027A000116013221A601D4B19605A600BE00C294E
:1027B0001A4901D1152000E03D20106012221A6054
:1027C000174B08601A60174B17491B78174A03B15B
:1027D00001230B601360164B164A1978164B01291A
:1027E00001D880210CE0042901D8842108E00829BF
:1027F00001D8852104E0102901D8862100E0872135
:10280000116019600D4B01221A707047004007409B
:10281000E887FF1F08B003400CB0034008B00B402E
:102820000CB00B406191FF1F20B0034020B00B4063
:10283000E987FF1F24B0034024B00B405E91FF1FC7
:102840000E4B1A7860B1BAB9012119700C4B1B7884
:1028500023B10C4B1A6003F500231A60FFF790BFF9
:1028600052B11870064B1B78002BF7D0054B18603F
:1028700003F500231860F1E7704700BF6191FF1F67
:102880005E91FF1F24B003400C2803D910231028A9
:1028900007D809E00A2806D8082894BF08230A2385
:1028A00002E0184600E00C23084AD9B2081A10705A
:1028B000074A1078834208D0064B11701B7813B179
:1028C000054B00221A60FFF75BBF70475D91FF1F49
:1028D000E887FF1F5E91FF1F24B003400D282DE9FC
:1028E000F0410FD9172801D80E380AE0A0F11A03D9
:1028F000052B01D8093804E0A0F12203062B4DD89E
:102900001838C0B2274B1C5C274B1B780BB1FFF764
:10291000C5FE72B6200614D4244D254E01272C6026
:10292000377062B672B62B68190603D5214B18684A
:102930001F4B23E03378002BF1D062B600F096FEF7
:10294000F0E704F040071C4D1C4EFFB204F03F04BA
:102950004FF001081A4B1A6817B122F0100201E07B
:1029600042F010021A602C6086F8008062B672B6DF
:102970002B681A060BD5134B1868104B00221A70DF
:1029800062B6114B1B7840FA03F0BDE8F081337852
:10299000002BDFD062B600F069FEE8E70020BDE85A
:1029A000F08100BFB17400005E91FF1F00B00340D2
:1029B0006091FF1F10B0034000B00B405F91FF1FFC
:1029C0000CB00B4010B00B405D91FF1F194B1A6803
:1029D00042F480621A60184A00231370174A137079
:1029E000174A1370174A1370174A1370174B40F2A7
:1029F00013321A604FF451725A60154BC0F34432CF
:102A00001A70C0F347125A700221042200F01F000E
:102A100098729A70D9745A7588221A743C22DA70A6
:102A20000C4B40226FF44A711A705B184FF400523D
:102A30001A60704734800440E491FF1F6391FF1FC8
:102A4000EC91FF1FE591FF1F6291FF1F40A0044022
:102A500000A006402DE400E0134A937800F0030143
:102A600003F0EC030B43410748BF43F0100393709E
:102A700000F00F03042B0C4903D18B7943F0400382
:102A80008B715379C20603F0EF03074A48BF43F046
:102A9000100353719379800603F0EF0348BF43F0AE
:102AA00010039371704700BF00A006400E4B1B68D7
:102AB000580510B503D410BD00F0D8FD00E00B4C54
:102AC0002378002BF8D10A4A4FF400511160094ACB
:102AD0000949D37040F203120A604A60074A137032
:102AE000074A137010BD00BF348004406291FF1F7D
:102AF00084E100E000A0064040A00440E491FF1FF4
:102B00006391FF1F38B5094B04461D78002DFCD199
:102B10002046012100F000FB2046294600F0DCFAA7
:102B2000034B53F83420034B1A6038BD6291FF1FEA
:102B3000C8740000E891FF1F1D4B1B685A052DE962
:102B4000F041074631D51B4B1B680BB101221A70AF
:102B5000194B1A4D1C781A4EDFF8688001343F2C4F
:102B600088BF002414E000F09FFB40280CDC337980
:102B70001B060DD52B7801333F2B88BF002318F897
:102B80000320F2712B7003E0FF2801DD00F06EFDE1
:102B90002B78A342E7D00B4B1F550B4B01221A7029
:102BA000054B1C70064BBC22DA70BDE8F08100BFFB
:102BB00034800440E891FF1FEC91FF1FE591FF1F57
:102BC00000A006406491FF1F6291FF1F2DE9F84F9E
:102BD000254B1B6806465805894642D5234B1B6882
:102BE0000BB101221A70224DB346AA4632E0214BA6
:102BF0001C782F7801343F2C88BF0024A74209D0CD
:102C00001BF8012B1C4B1A551C4B01221A70194B37
:102C10001C701FE01A4BBC22DA70984600F044FB8F
:102C200040280FDC98F8043019060FD52B78124A8B
:102C300001333F2B88BF0023D25C88F807208AF835
:102C4000003003E0FF2801DD00F010FD2B78BB42CF
:102C5000E4D0D5E706EB09039B45C8D3084BBC225B
:102C6000DA70BDE8F88F00BF34800440E891FF1FA0
:102C7000E591FF1FEC91FF1F6491FF1F6291FF1F01
:102C800000A0064010B5044C01E000F0EFFC2378F2
:102C9000002BFAD110BD00BF6291FF1F054B064A01
:102CA0001B781078834201D33F3000E00138C01A0E
:102CB000704700BFEC91FF1FE591FF1F044B187890
:102CC000044B1B78984238BF4030C01A704700BF91
:102CD000E491FF1F6391FF1F084B094A197813788D
:102CE000994207D001333F2B88BF00230549C85CB8
:102CF000137070474FF0FF30704700BFE491FF1F23
:102D00006391FF1FA491FF1F074B1A78074B1B7895
:102D10009A4206D001333F2B88BF0023044AD05C7F
:102D200070474FF0FF307047E491FF1F6391FF1F22
:102D3000A491FF1F094B1B685B050ED5084BDA7881
:102D400002F0CB02DA7040225A74DA7842F0340290
:102D5000DA70044B1A78044B1A70704734800440C0
:102D600000A006406391FF1FE491FF1F70B52D4B3B
:102D70001A7912F0300F1DD072B6997D21B9DA7927
:102D800040225A7462B615E062B6274A2748127884
:102D9000274D00781C46531C3F2B88BF0023E67943
:102DA00083421CBFEE541A46013911F0FF01F2D1E3
:102DB0001D4B1A701B4AD37819465BB2002B1BDAE5
:102DC0001379180618D51B4B1B4C1D781B4B1B7811
:102DD000AB4209D001333F2B88BF00231079E05C60
:102DE000D071107D0728F3D9144A13700D4B1A794E
:102DF000120601D57C22DA7001F04003DBB27BB110
:102E0000084B1A7902F04002D2B2194642B10C4B7B
:102E100000221A700B4B1B6803B11A703C23CB7055
:102E200070BD00BF00A00640E491FF1F6391FF1F2B
:102E3000A491FF1FEC91FF1F6491FF1FE591FF1FFD
:102E40006291FF1FE891FF1F084B4FF400021A60C8
:102E50004FF080721A604FF000721A604FF080627B
:102E60001A604FF000621A60704700BF08E100E08E
:102E7000114B10B51C68E0041C6004D50F4BDA68D8
:102E80000AB1DB689847A10404D50C4B1A690AB152
:102E90001B699847A20604D5084B1A6E0AB11B6E2F
:102EA0009847E30606D5054BD3F8842012B1D3F832
:102EB0008430984710BD00BFA0900440F091FF1FE0
:102EC0001F4B10B51C68E0031C6004D51D4B1A682D
:102ED0000AB11B689847A10304D51A4B5A680AB176
:102EE0005B689847E20704D5164B1A6C0AB11B6C55
:102EF0009847A30704D5134B5A6C0AB15B6C9847EB
:102F0000200704D50F4B9A6C0AB19B6C9847610758
:102F100004D50C4BDA6C0AB1DB6C9847220304D55C
:102F2000084B5A6E0AB15B6E9847630306D5054B92
:102F3000D3F8802012B1D3F88030984710BD00BF7D
:102F4000A0A00440F091FF1F2C4B10B51C68200777
:102F50001C6004D52A4B5A6A0AB15B6A9847E1069D
:102F600004D5274B9A6A0AB19B6A9847620604D532
:102F7000234BDA6A0AB1DB6A9847230604D5204B53
:102F80001A6B0AB11B6B9847A00604D51C4B5A6BF1
:102F90000AB15B6B9847E10704D5194BDA6B0AB1AC
:102FA000DB6B9847A20704D5154B9A6D0AB19B6D50
:102FB0009847630704D5124BDA6D0AB1DB6D984769
:102FC000A00504D50E4BDA6E0AB1DB6E9847E10519
:102FD00004D50B4B1A6F0AB11B6F9847620504D5D5
:102FE000074B5A6F0AB15B6F9847230504D5044B12
:102FF0009A6F0AB19B6F984710BD00BFA0B0044004
:10300000F091FF1F1E4B10B51C68E0071C6004D533
:103010001C4B9A680AB19B689847210604D5194B46
:103020005A690AB15B699847E20604D5154B9A695B
:103030000AB19B699847630704D5124BDA690AB154
:10304000DB699847200704D50E4B1A6A0AB11B6A40
:103050009847A10704D50B4B9A6B0AB19B6B984715
:10306000A20604D5074B1A6D0AB11B6D984763067B
:1030700004D5044B5A6D0AB15B6D984710BD00BF73
:10308000A0C00440F091FF1F094B10B51C68A207B7
:103090001C6004D5074B9A6E0AB19B6E9847E307F4
:1030A00004D5044BDA6F0AB1DB6F984710BD00BF3F
:1030B000A0D00440F091FF1F044B054900221A6084
:1030C0000A60044A106010221A60704714D003404E
:1030D00004D0034000D00340212810B518D80D4A71
:1030E00052F8303093F880423CB1012211B183F89C
:1030F000802010BD83F8002110BD02EBC0004368A2
:103100001A6811B142F0030201E022F002021A60D3
:1031100010BD00BFC8740000212816D80B4A02EB6E
:10312000C00301295B6852F8302004D182F8801274
:103130004FF4A27208E0002082F8800211B94FF427
:10314000807201E040F203121A607047C8740000F8
:1031500072B60C4B0C491A680C4B1B68096862B6B6
:10316000490102D5322A88BF0133C2F58C32482189
:1031700002F23F12B2FBF1F24FF47A7000FB03202F
:10318000704700BF18E000E004ED00E07892FF1FF8
:1031900070B50446FFF7DCFF05466CB140F2E73638
:1031A000FFF7D6FF401BB04203D9013C04D005F520
:1031B0007A7500F05BFAF3E770BDFFFF10B5FFF71B
:1031C00043FE164B164A174C002048F6FF71186054
:1031D00059602823136093601361936113629362B3
:1031E00013639363092222600F4C20606160A36027
:1031F000236144F8042C0D4C20600D4801600D49FA
:103200000B608B600C4B1A60FFF7BAFA0420FFF7D3
:10321000BFFFBDE8104001F011B800BF04800340BB
:103220000C800340008003400490034004800B4066
:1032300008800B400C800B4000800B40024B1A684A
:1032400001321A60704700BF7892FF1F38B50B4CEF
:1032500025462368580301D500F0D4FC2B68590596
:1032600001D5FFF783FD2B681A0501D5FFF7A8F9F3
:103270002368DB04EDD500F0A1FBEAE734800440CD
:1032800008B5FFF7E3FFFFFF014B10221A807047DC
:10329000002005407047FFFF024A136818181060AD
:1032A00018467047EC87FF1FEFF313839BB9EFF3CA
:1032B000108098B9EFF3058323B10F2B04D9084A86
:1032C000985C01E04FF48070EFF311833BB19842BA
:1032D00028BF184670474FF0FF30704718467047B8
:1032E000F0E300E0002300E00133C25C002AFBD1E0
:1032F0001846704710B50023B0FBF2F402FB14002F
:10330000092801D8303000E03730C85420460CB1CD
:103310000133F1E7CA185470224605E0885CCC5CA2
:103320008C54C8540132013B9A42F7DB084610BD69
:1033300008B50368C9B21B68984708BD08B503689B
:10334000C9B21B68984708BD08B50368C9B21B68B5
:10335000984708BD084608B5FFF7EEFB012008BDF9
:10336000084608B5FFF7E8FB012008BD38B5084658
:103370000D46FFF7B7FF044621462846FFF726FC17
:10338000204638BD10B5084614461146FFF71EFC0E
:10339000204610BDFFF782BCFFF7CCBCFFF772BC24
:1033A000FFF79ABCFFF7B0BCFFF788BC0846FFF7F1
:1033B000A9BBFFF77BBBFFFF034800EB5100B0FB4D
:1033C000F1F0FFF703BB00BF00449508064810B5B5
:1033D00000EB5100B0FBF1F01446FFF7F7FA20467E
:1033E000BDE81040FFF738BB004495087047FFFF69
:1033F000044B00221A711A73034A4FF47A719960D0
:103400001A6070477C92FF1FE075000010B50446FB
:10341000006802F047F9204610BD38B504460D4655
:103420000068013102F036FD10B184E8210001206E
:1034300038BD43688B4210B5044600D306E0FFF761
:10344000ECFF20B1A3680BB922681370012010BDF6
:10345000F8B504460F46154622B9036803B11A7041
:1034600000230BE01146FFF7E4FF064640B9206851
:1034700010B102F017F9266000236360A36004E036
:10348000A5602068394602F0F7FF2046F8BD38B540
:103490000023044603604360836003730D4639B123
:1034A0000846FFF71FFF294602462046FFF7D0FFD8
:1034B000204638BD826808B50B461AB901B103E051
:1034C000012008BD11B90368187802E0006802F015
:1034D000E5FED0F1010038BF002008BD10B58B68B3
:1034E0008468E41AA2420CD8006868B1096851B136
:1034F00080181A4603F01EF8D0F1010038BF0020F2
:1035000010BD002010BD084610BD82688B689A422D
:1035100002D30022FFF7E2BF0020704708B582689F
:103520008B689A420CD3006868B1096851B1D31A0C
:10353000C01802F0B3FED0F1010038BF002008BD72
:10354000002008BD084608BD38B50C469AB191B1B7
:1035500081688B4202D30023237038BDCD1A013A13
:103560000168954228BF1546C91820462A4603F02F
:1035700037F80023635538BD2DE9F04100258AB0A6
:10358000074688468C682E4611E02B46404601A926
:103590002122FFF7D9FF3B68202C34BF224620228E
:1035A0005B68384601A9AD18A41A98473618002C54
:1035B000EBD130460AB0BDE8F081FFFF07B5054BFF
:1035C0001B88ADF80430036801A95B6802229847A4
:1035D0000EBD00BF28760000F0B505468BB022B9BD
:1035E0000368C9B21B6898472CE0012A08BF0A2269
:1035F00021B930228DF82520212413E02124B1FBAC
:10360000F2F002FB1011C9B2092901D8303100E0F3
:1036100037310AAF3E1906F8241C014610B1013CAF
:10362000E4B2ECE733B1013C0AAAE4B213192D224B
:1036300003F8242C2B6801AF5B6828463919C4F1C4
:10364000220298470BB0F0BD002902DA49422D232F
:1036500000E000230A22FFF7BFBF08B5FEF70EF90E
:10366000FEF78CFC00F002F8FAE7FFFF08B50E4BFE
:103670001A78C2B901221A7000F074FE08B100F085
:1036800024F8FFF71BFB08B1FFF7B0FEFEF740FF81
:1036900008B100F099FF00F04BF908B101F008F80B
:1036A000014B00221A7008BD8C92FF1F084611467C
:1036B00000F066BE084600F0CBBE00F0D3BE00F0BE
:1036C00033BE00F009BE00F04DBE7047044B00222F
:1036D0001A711A73034A4FF47A7199601A6070472D
:1036E0009092FF1F38760000174B1A6842F4805200
:1036F0001A60164A00231370154A1370154A137086
:10370000154A1370154A1370154A40F213311160AF
:103710004FF451715160134AC0F344311170C0F33A
:10372000471100F01F0051709072937013742C2396
:10373000D3700D4B40226FF44B711A705B184FF42D
:1037400000321A60704700BF348004400A93FF1FA4
:10375000A192FF1F1093FF1F0B93FF1FA092FF1F4B
:1037600008C0044000C0064031E400E0134A9378EA
:1037700000F0030103F0EC030B43410748BF43F0A3
:103780001003937000F00F03042B0C4903D18B79C5
:1037900043F040038B715379C20603F0EF03074AED
:1037A00048BF43F0100353719379800603F0EF0391
:1037B00048BF43F010039371704700BF00C006403C
:1037C0000E4B1B68D80410B503D410BDFFF74EFF95
:1037D00000E00B4C2378002BF8D10A4A4FF400315B
:1037E0001160094A0949D37040F203120A604A6025
:1037F000074A1370074A137010BD00BF348004409D
:10380000A092FF1F84E100E000C0064008C0044011
:103810000A93FF1FA192FF1F38B5094B04461D787C
:10382000002DFCD120460121FFF776FC20462946D9
:10383000FFF752FC034B53F83420034B1A6038BD9A
:10384000A092FF1FC87400000C93FF1F1D4B1B6844
:10385000DA042DE9F041074631D51B4B1B680BB14B
:1038600001221A70194B1A4D1C781A4EDFF8688025
:103870000134272C88BF002414E0FFF715FD4028F1
:103880000CDC33791B060DD52B780133272B88BF31
:10389000002318F80320F2712B7003E0FF2801DDEC
:1038A000FFF7E4FE2B78A342E7D00B4B1F550B4BE1
:1038B00001221A70054B1C70064BAC22DA70BDE871
:1038C000F08100BF348004400C93FF1F1093FF1F52
:1038D0000B93FF1F00C00640A292FF1FA092FF1F84
:1038E00038B54518044603E014F8010BFFF7AEFFA6
:1038F000AC42F9D138BDFFFF10B5044C01E0FFF731
:10390000B5FE2378002BFAD110BD00BFA092FF1F97
:10391000054B064A1B781078834201D3273000E01C
:103920000138C01A704700BF1093FF1F0B93FF1F91
:10393000044B1878044B1B78984238BF4030C01AAB
:10394000704700BF0A93FF1FA192FF1F084B094A4F
:1039500019781378994207D001333F2B88BF002391
:103960000549C85C137070474FF0FF30704700BFC7
:103970000A93FF1FA192FF1FCA92FF1F074B1A78DD
:10398000074B1B789A4206D001333F2B88BF002398
:10399000044AD05C70474FF0FF3070470A93FF1F16
:1039A000A192FF1FCA92FF1F024B1A78024B1A7096
:1039B000704700BFA192FF1F0A93FF1F10B5214B54
:1039C0001A7902F02002D2B26AB11F4AD8791F498F
:1039D0001378097801333F2B88BF00238B4202D034
:1039E0001B49C8541370174AD37818465BB2002B92
:1039F00013DA1379190610D5164B17491C780B7872
:103A00009C4202D16C23D37007E00133272B88BF7F
:103A10000023124CE45CD4710B7000F04003DBB265
:103A20007BB1084B1A7902F04002D2B2194642B17A
:103A30000B4B00221A700B4B1B6803B11A702C231E
:103A4000CB7010BD00C006400A93FF1FA192FF1F5C
:103A5000CA92FF1F1093FF1F0B93FF1FA292FF1F1D
:103A6000A092FF1F0C93FF1FF0B50C4B0C4C1A7863
:103A700042F0020504EBC50682F0010270600948BD
:103A80001A700678002E0CBF8827C82747EA014124
:103A900086F0010644F835100670F0BD7C93FF1FD8
:103AA0000080FF1FF493FF1F431E032B10B510D897
:103AB00072B6094A52F8230048B1416842F823100F
:103AC000064A018832F81340611A22F8131062B6D0
:103AD00010BD002010BD00BF6C93FF1F5C94FF1F42
:103AE000013803280BD872B6064B53F8203000205B
:103AF00001E05B680130002BFBD162B6704700200B
:103B0000704700BFC093FF1F70B572B6184E194CB6
:103B100001239A1912F8012C02F00802D2B2E2B184
:103B20009900144A54F831502DB902EB4313083070
:103B30005860114B09E041F0010154F8315065B96A
:103B400002EBC103083058600C4B42F831300C4B8B
:103B50001A78013A1A7062B670BD0133052BD8D1BC
:103B600062B6074B00221A70BDE8704000F006BE36
:103B7000F07600000080FF1F88004000C800400071
:103B8000EA93FF1F431E032B30B532D84001194A78
:103B900040F01000101872B6174CE25C032A09D8E6
:103BA000DFE802F0160218050830022213E00830A0
:103BB000042210E01148124A50F8234014B940F88A
:103BC000231002E052F82300416042F823100FE076
:103BD000032200E00522E25410F0080F01F108036F
:103BE0000A8843600CBF8823C82343EA024303606A
:103BF00062B630BD0080FF1F2893FF1FC093FF1FD8
:103C0000D093FF1F2DE9F74FA54EA64C357805F050
:103C10000403DBB2ABB1A44B1B7883B1A34A137886
:103C200023B1013BDBB2137003B900BEA04A137885
:103C30002BB1013BDBB213700BB900F03FFC042346
:103C4000337005F00802D2B2002A00F08082994B4E
:103C50001B781D094FEA930940F0FE8104EBC9036C
:103C6000586854F83930C3F38303013B0C2B00F23E
:103C7000F081DFE813F0A901A901EE01EE01EE01E8
:103C8000EE01EE01EE01C501EE01EE01EE010D00C7
:103C90004368894902684B60884B894844F8393049
:103CA000884D0A60002303600120287092B240F220
:103CB0008165AA422361A36117D8B2F5D06F80F065
:103CC0002C81B2F5817F00F0DC8006D8802A00F0DC
:103CD000C280822A40F03D81C1E040F202339A4224
:103CE00000F00C81B2F5A06F16E042F22105AA4265
:103CF00000F0678108D8B2F5086F00F0A680B2F531
:103D0000106F40F026810AE042F22120824200F04A
:103D10001C8142F221339A4240F01B811DE18A78D6
:103D2000614B604D1A702B6A180603D5686A083813
:103D300000F024FD644A08359542F4D1DFF8B091D3
:103D4000DFF8B0B10025A846CA4655F8090005E0DD
:103D50004368009300F012FD009B18460028F7D13D
:103D60005A4B4AF8050045F80B00E85807E042684E
:103D70000093019200F002FD019A009B104600287A
:103D8000F5D15851524BE850524B23F81800524B82
:103D900018F80320023A032A08D8DFE802F00204E8
:103DA0000204002200E0012203F8082008F10108C3
:103DB0000435B8F1040FC8D1484BDFF83C9100221C
:103DC0001A7001259846464B05EB0902EB1812F8CC
:103DD000012C9B001A7002F00802D2B23AB300F034
:103DE000AFFCAB0038B104EB4512083050603D4ADF
:103DF00044F8332006E044F8330098F800300133EB
:103E000088F8003000F09CFCAB0043F0010338B1AF
:103E100004EBC30208305060284A44F8332006E01F
:103E200044F8330098F80030013388F80030AA00D5
:103E300042F00201013542F003020023052D44F84F
:103E4000313044F83230BED188E0174B264D1B7814
:103E50002B70034685E0244D2B706B7080E08A88C0
:103E6000042A00D975E0204D2B706B701F4B920017
:103E7000D3181B7803F00203DBB2002B70D028703C
:103E80006EE08A8802F07F03042B62DC4B8803B16A
:103E90005FE09100154A8A18117821F0020156E07E
:103EA000802007400080FF1FF393FF1F7D93FF1FBB
:103EB000F593FF1F90200740E093FF1FC8004000CC
:103EC0001493FF1FF493FF1F8080FF1FC093FF1FF9
:103ED000D093FF1F5C94FF1F2893FF1FEA93FF1FDF
:103EE00030C8011088004000EB93FF1FC02007403E
:103EF0006C93FF1F1893FF1FF07600008A8802F072
:103F00007F03042B25DC4B8803B122E09100A14AFA
:103F10008A18117841F0020119E04A889E4B89887D
:103F200053F8085CA3F10C009DB133F80CCC944518
:103F300009D133F80ACC8C4505D1120A032A0CBFEB
:103F40002B7803890DE00C33EAE78978934A1170E6
:103F500004E0904B0F221A7033E000231D4600E06E
:103F600002238F4AB2F806904B4538BF9946B9F103
:103F7000400F34BFC8464FF0400828464146FFF77F
:103F800073FDB9EB0809454403D1B8F1400F07D0E0
:103F900017E0B9F1400F34BFC8464FF0400800E0C9
:103FA000C84628464146FFF75FFDB9EB080945447E
:103FB00002D1B8F1400F04D17A4B7B4A1D60A2F8C0
:103FC00000900122794B43E0754B1A8842F221039D
:103FD0009A4211D1764A0023C15C99540133072BD0
:103FE000FAD1734B1B68862B02D1724B0F221A70C9
:103FF00000200146FFF738FD6F4B44F8393028E0C8
:10400000684BD3F80080B8F1000F18D0DFF8989112
:10401000B9F800A0BAF1400F34BF554640254046DC
:104020002946FFF721FDC5EB0A039BB2A9F8003032
:104030000BB9402D01D108EB05035A4A1360584BC8
:104040001A88B2F5A06F04D100225A709A785B4B9F
:104050001A700122554B6DE004EBC90803F0080308
:10406000D8F80420013DD9B2A2F10800EDB2002930
:1040700037D000F083FB5248524B50F82510F1B175
:104080004A6840F8252001F10802C8F804205A5D6A
:10409000032A0BD8DFE802F002040608032204E03A
:1040A000022202E0052200E004225A5518F0080F0F
:1040B0000A880CBF8823C82343EA024342E05A5DC2
:1040C000032A07D8DFE802F040400204002206E09D
:1040D000012204E018F0080F0CBF022203225A55F7
:1040E00032E054F839301B0C22F8083C23B322F894
:1040F000061C42F8041C344A344952F8257017B99A
:1041000042F8250002E051F825205060304A41F87D
:10411000250032F815105B1822F8153000F010FB5E
:1041200018B10830C8F8040006E02A4B44F83900FA
:104130001A7801321A7007E01F4B274A18F0080F4F
:1041400008BF134644F83930082333705EE5E907A9
:1041500052D516492048214C02230B70204B1A706F
:10416000204B1860986020481A61D8609A615C60A2
:10417000084B0D2018701D48FF23037000F8083C01
:1041800002741B4A13701B4B9F221A7001230B7081
:104190004BE000BFC0200740007700000494FF1FE1
:1041A000E093FF1F1493FF1FE893FF1F9420074025
:1041B0006494FF1F7D93FF1FC800400098200740B4
:1041C000C093FF1F2893FF1F6C93FF1F1893FF1FBF
:1041D0005C94FF1FEA93FF1F880040002C93FF1F91
:1041E0007C93FF1F0080FF1F8093FF1F88200740E4
:1041F0008C200740842007402B0605D50C4B0D2250
:104200001A70802203F8402C05F00203DBB22BB1B8
:10421000084B1A781A70022203F8082C05F01005D2
:10422000EDB215B1044B10221A70BDE8FE8F00BF2D
:10423000C0200740882007408020074008B500F0D4
:1042400047FA00231E491A465A50C8180833882BCB
:104250004260F9D11B4B1A6842F480221A601A4B53
:1042600080221A701978184A0906FBD4144B174992
:10427000C3F307200870C3F307401B0E08750B76C5
:10428000FF2301F81C3C01F8143C01F88C3C137826
:1042900043F0400313700021012302F8783C02F838
:1042A0000C1C02F8883C0A4B70226FF4507C1A7088
:1042B00063444FF400721A60064B10221A7008BD56
:1042C0000080FF1F348004400C2107409C200740E1
:1042D00049E400E00821074038B5114C23684BB190
:1042E0000F4D28684288811801320C7A01888A4271
:1042F00012D30CE00B4B1B7813B94FF0FF340CE0DA
:104300000320FFF7D1FB20600028E9D1F5E700F09A
:1043100035FA00232B6000E04280204638BD00BF04
:104320000094FF1FF393FF1F10B50C4C23681BB1C3
:104330000A4B1B686BB902E0094B1B7813B94FF0AD
:10434000FF3010BD0320FFF7AFFB20600028EFD146
:10435000F5E75A889B18187A10BD00BF0094FF1F1C
:10436000F393FF1F044B9888044B1B681BB11A88FA
:104370005B88D31AC01870475C94FF1F0094FF1F1E
:104380002DE9F8432D4B2E4DDFF8C08001220C465D
:104390001A7006464BE02B682BBBDFF8A09048F65E
:1043A000014798F8003013B9244A137014E0042030
:1043B000FFF796FB072808D8012389F8003000F0A2
:1043C000BFF9286078B989F80000013F1D4B01D082
:1043D0001A782AB101221A704FF0FF30BDE8F88335
:1043E000FFF744F9DDE72968164A4888002313706F
:1043F000C0F14002944238BF224600F108078018FD
:10440000CF194880A41A02E0F05CF85401339342BB
:10441000FAD1F6184B883F2B06D940230B80042095
:10442000FFF7B0FB00232B60074B05221A70002C0E
:10443000B1D1024B20461C70BDE8F883F693FF1FF4
:10444000F893FF1FFC93FF1FF593FF1FF393FF1FCC
:1044500007B502AB012103F8010D1846FFF790FFE5
:104460000EBDFFFFF8B5114B1B78EBB1104E114B91
:104470003468114D01271F704CB1638800272F70DD
:10448000042023802146FFF77DFB376009E000F020
:1044900057F9014620B104202C70FFF773FB00E0B0
:1044A0002F70044B00221A70F8BD00BFF393FF1F5A
:1044B000F893FF1FF693FF1FF593FF1F38B50D4BC1
:1044C0001D78ADB90C4C216831B14B8804200B80AC
:1044D000FFF758FB256038BD00F032F9014620B1E6
:1044E0000420BDE83840FFF74DBB044B01221A7091
:1044F00038BD00BFF693FF1FF893FF1FF593FF1F12
:1045000008B50368C9B21B68984708BD08B50368B9
:10451000C9B21B68984708BD08B50368C9B21B68D3
:10452000984708BD08B50368C9B21B68984708BD1D
:10453000084608B5FDF72AFF012008BD084608B562
:10454000FDF724FF012008BD38B508460D46FEF7EB
:10455000C9FE044621462846FDF762FF204638BDC5
:1045600010B5084614461146FDF75AFF204610BD07
:10457000FDF7BEBFFEF708B8FDF7AEBFFDF7D6BF2B
:10458000FDF7ECBFFDF7C4BF0846FDF7E5BEFDF73C
:10459000B7BEFFFF034800EB5100B0FBF1F0FDF7A1
:1045A0003FBE00BF00449508064810B500EB51001F
:1045B000B0FBF1F01446FDF733FE2046BDE8104095
:1045C000FDF774BE004495087047FFFF044B0022BE
:1045D0001A711A73034A4FF47A7199601A6070471E
:1045E0000894FF1F5876000008B50368C9B21B681D
:1045F000984708BD08B50368C9B21B68984708BD4D
:1046000008B50368C9B21B68984708BD08B50368B8
:10461000C9B21B68984708BD084608B5FFF716F9E8
:10462000012008BD084608B5FFF710F9012008BDB4
:1046300038B508460D46FEF755FE04462146284685
:10464000FFF74EF9204638BD10B50846144611460E
:10465000FFF746F9204610BDFFF75AB9FFF7A4B996
:10466000FFF74AB9FFF772B9FFF788B9FFF760B9EA
:104670000846FFF7D1B8FFF7A3B8FFFF034800EBE8
:104680005100B0FBF1F0FFF72FB800BF00A24A04C1
:10469000064810B500EB5100B0FBF1F01446FFF7EF
:1046A00023F82046BDE81040FFF760B800A24A0496
:1046B0007047FFFF044B00221A711A73034A4FF42C
:1046C0007A7199601A6070471894FF1FA8760000ED
:1046D0001FB572B6154B70221A70154A4121117020
:1046E0000F2102F8011C80221A701A781206FCD5DC
:1046F000104B186862B6104B984201D80A235843F1
:1047000001A90A22FEF7F6FD0C48002301AA9A5CD3
:104710002AB100EB430101330A2B4A80F6D1013361
:10472000064A5B00137005B000BD00BF00000240E8
:1047300007000240080002407F9698007888FF1F1B
:1047400072B60C4A1168B1FA81F30B2B02D962B62A
:10475000002070474FF0004020FA03F021EA0001EA
:10476000116062B6044948225343C8180022CA5057
:10477000426070479088FF1F0084FF1F0C4B482247
:10478000C31AB3FBF2F30B2B11D80A4A127822B1E9
:10479000094A12780AB1FFF7B7B972B6074A4FF063
:1047A000004121FA03F311681943116062B67047A2
:1047B0000084FF1FEA93FF1FF393FF1F9088FF1FE2
:1047C00081F0004102E000BF83F0004330B54FEAC2
:1047D00041044FEA430594EA050F08BF90EA020F2F
:1047E0001FBF54EA000C55EA020C7FEA645C7FEAC2
:1047F000655C00F0E2804FEA5454D4EB5555B8BFE5
:104800006D420CDD2C4480EA020281EA030382EA55
:10481000000083EA010180EA020281EA0303362DE7
:1048200088BF30BD11F0004F4FEA01314FF4801CBA
:104830004CEA113102D0404261EB410113F0004FCC
:104840004FEA03334CEA133302D0524263EB430383
:1048500094EA050F00F0A780A4F10104D5F1200E21
:104860000DDB02FA0EFC22FA05F2801841F100017C
:1048700003FA0EF2801843FA05F359410EE0A5F150
:1048800020050EF1200E012A03FA0EFC28BF4CF081
:10489000020C43FA05F3C01851EBE37101F0004537
:1048A00007D54FF0000EDCF1000C7EEB00006EEB44
:1048B0000101B1F5801F1BD3B1F5001F0CD34908CE
:1048C0005FEA30004FEA3C0C04F101044FEA445225
:1048D00012F5800F80F09A80BCF1004F08BF5FEAAC
:1048E000500C50F1000041EB045141EA050130BD8C
:1048F0005FEA4C0C404141EB010111F4801FA4F12F
:104900000104E9D191F0000F04BF01460020B1FA83
:1049100081F308BF2033A3F10B03B3F120020CDABB
:104920000C3208DD02F1140CC2F10C0201FA0CF099
:1049300021FA02F10CE002F11402D8BFC2F1200CFE
:1049400001FA02F120FA0CFCDCBF41EA0C019040B4
:10495000E41AA2BF01EB0451294330BD6FEA0404FD
:104960001F3C1CDA0C340EDC04F11404C4F12002E8
:1049700020FA04F001FA02F340EA030021FA04F3FA
:1049800045EA030130BDC4F10C04C4F1200220FA51
:1049900002F001FA04F340EA0300294630BD21FA8F
:1049A00004F0294630BD94F0000F83F4801306BF55
:1049B00081F480110134013D4EE77FEA645C18BF49
:1049C0007FEA655C29D094EA050F08BF90EA020FE0
:1049D00005D054EA000C04BF1946104630BD91EAD8
:1049E000030F1EBF0021002030BD5FEA545C05D1DB
:1049F0004000494128BF41F0004130BD14F580041A
:104A00003CBF01F5801130BD01F0004545F0FE418D
:104A100041F470014FF0000030BD7FEA645C1ABFC2
:104A2000194610467FEA655C1CBF0B46024650EAF9
:104A3000013406BF52EA033591EA030F41F4002125
:104A400030BD00BF90F0000F04BF0021704730B5AB
:104A50004FF4806404F132044FF000054FF0000180
:104A600050E700BF90F0000F04BF0021704730B541
:104A70004FF4806404F1320410F0004548BF404216
:104A80004FF000013EE700BF42004FEAE2014FEA6B
:104A900031014FEA02701FBF12F07F4393F07F4F46
:104AA00081F06051704792F0000F14BF93F07F4F78
:104AB000704730B54FF4607401F0004521F00041BB
:104AC00020E700BF50EA010208BF704730B54FF041
:104AD00000050AE050EA010208BF704730B511F046
:104AE000004502D5404261EB41014FF4806404F17E
:104AF00032045FEA915C3FF4DCAE4FF003025FEA00
:104B0000DC0C18BF03325FEADC0C18BF033202EB87
:104B1000DC02C2F1200300FA03FC20FA02F001FAE1
:104B200003FE40EA0E0021FA02F11444C1E600BF80
:104B300070B54FF0FF0C4CF4E06C1CEA11541DBF33
:104B40001CEA135594EA0C0F95EA0C0F00F0DEF8FE
:104B50002C4481EA030621EA4C5123EA4C5350EAE3
:104B6000013518BF52EA033541F4801143F4801334
:104B700038D0A0FB02CE4FF00005E1FB02E506F0C5
:104B80000042E0FB03E54FF00006E1FB03569CF01A
:104B9000000F18BF4EF0010EA4F1FF04B6F5007F20
:104BA00064F5407404D25FEA4E0E6D4146EB060692
:104BB00042EAC62141EA55514FEAC52040EA5E501B
:104BC0004FEACE2EB4F1FD0C88BFBCF5E06F1ED8C5
:104BD000BEF1004F08BF5FEA500E50F1000041EBFC
:104BE000045170BD06F0004646EA010140EA0200A9
:104BF00081EA0301B4EB5C04C2BFD4EB0C0541EACB
:104C0000045170BD41F480114FF0000E013C00F3DF
:104C1000AB8014F1360FDEBF002001F0004170BD03
:104C2000C4F10004203C35DA0C341BDC04F114041C
:104C3000C4F1200500FA05F320FA04F001FA05F2A8
:104C400040EA020001F0004221F0004110EBD37075
:104C500021FA04F642EB06015EEA430E08BF20EAA1
:104C6000D37070BDC4F10C04C4F1200500FA04F344
:104C700020FA05F001FA04F240EA020001F00041D6
:104C800010EBD37041F100015EEA430E08BF20EA49
:104C9000D37070BDC4F1200500FA05F24EEA020E91
:104CA00020FA04F301FA05F243EA020321FA04F0C0
:104CB00001F0004121FA04F220EA020000EBD37077
:104CC0005EEA430E08BF20EAD37070BD94F0000F77
:104CD0000FD101F00046400041EB010111F4801FAB
:104CE00008BF013CF7D041EA060195F0000F18BF5C
:104CF000704703F00046520043EB030313F4801F98
:104D000008BF013DF7D043EA0603704794EA0C0F51
:104D10000CEA135518BF95EA0C0F0CD050EA410667
:104D200018BF52EA4306D1D181EA030101F00041E4
:104D30004FF0000070BD50EA410606BF104619460C
:104D400052EA430619D094EA0C0F02D150EA013618
:104D500013D195EA0C0F05D152EA03361CBF104659
:104D600019460AD181EA030101F0004141F0FE41F8
:104D700041F470014FF0000070BD41F0FE4141F47C
:104D8000780170BD70B54FF0FF0C4CF4E06C1CEA7C
:104D900011541DBF1CEA135594EA0C0F95EA0C0F31
:104DA00000F0A7F8A4EB050481EA030E52EA0335EC
:104DB0004FEA013100F088804FEA03334FF080550D
:104DC00045EA131343EA12634FEA022245EA11153A
:104DD00045EA10654FEA00260EF000419D4208BFEB
:104DE000964244F1FD0404F5407402D25B084FEA98
:104DF0003202B61A65EB03055B084FEA32024FF444
:104E000080104FF4002CB6EB020E75EB030E22BFA0
:104E1000B61A754640EA0C005B084FEA3202B6EB60
:104E2000020E75EB030E22BFB61A754640EA5C000F
:104E30005B084FEA3202B6EB020E75EB030E22BF9F
:104E4000B61A754640EA9C005B084FEA3202B6EBA0
:104E5000020E75EB030E22BFB61A754640EADC005F
:104E600055EA060E18D04FEA051545EA16754FEAC1
:104E700006164FEAC30343EA52734FEAC2025FEADF
:104E80001C1CC0D111F4801F0BD141EA00014FF06E
:104E900000004FF0004CB6E711F4801F04BF01433F
:104EA0000020B4F1FD0C88BFBCF5E06F3FF6AFAE5B
:104EB000B5EB030C04BFB6EB020C5FEA500C50F1EB
:104EC000000041EB045170BD0EF0004E4EEA11316E
:104ED00014EB5C04C2BFD4EB0C0541EA045170BD75
:104EE00041F480114FF0000E013C90E645EA060EB9
:104EF0008DE60CEA135594EA0C0F08BF95EA0C0FE7
:104F00003FF43BAF94EA0C0F0AD150EA01347FF42E
:104F100034AF95EA0C0F7FF425AF104619462CE705
:104F200095EA0C0F06D152EA03353FF4FDAE104668
:104F3000194622E750EA410618BF52EA43067FF4B9
:104F4000C5AE50EA41047FF40DAF52EA43057FF449
:104F5000EBAE12E74FF0FF3C06E000BF4FF0010C54
:104F600002E000BF4FF0010C4DF804CD4FEA410CB8
:104F70007FEA6C5C4FEA430C18BF7FEA6C5C1BD085
:104F800001B050EA410C0CBF52EA430C91EA030F06
:104F900002BF90EA020F0020704710F1000F91EA63
:104FA000030F58BF994208BF90422CBFD8176FEA31
:104FB000E37040F0010070474FEA410C7FEA6C5CFF
:104FC00002D150EA013C07D14FEA430C7FEA6C5C06
:104FD000D6D152EA033CD3D05DF8040B704700BF32
:104FE0008446104662468C461946634600E000BF80
:104FF00001B5FFF7B7FF002848BF10F1000F01BD52
:105000004DF808EDFFF7F4FF0CBF012000205DF81C
:1050100008FB00BF4DF808EDFFF7EAFF34BF0120A1
:1050200000205DF808FB00BF4DF808EDFFF7E0FF3A
:1050300094BF012000205DF808FB00BF4DF808ED8B
:10504000FFF7CEFF94BF012000205DF808FB00BFF2
:105050004DF808EDFFF7C4FF34BF012000205DF8D4
:1050600008FB00BF4FEA410212F5001215D211D51C
:105070006FF47873B3EB625212D94FEAC12343F055
:10508000004343EA505311F0004F23FA02F018BFD7
:10509000404270474FF00000704750EA013005D1A0
:1050A00011F0004008BF6FF0004070474FF0000063
:1050B000704700BF4A0011D212F5001211D20DD56F
:1050C0006FF47873B3EB62520ED44FEAC12343F00E
:1050D000004343EA505323FA02F070474FF00000B8
:1050E000704750EA013002D14FF0FF3070474FF067
:1050F0000000704780F0004002E000BF81F00041F6
:1051000042001FBF5FEA410392EA030F7FEA226C6D
:105110007FEA236C6AD04FEA1262D2EB1363C1BFFD
:10512000D218414048404140B8BF5B42192B88BF6C
:10513000704710F0004F40F4000020F07F4018BF8F
:10514000404211F0004F41F4000121F07F4118BFAF
:10515000494292EA030F3FD0A2F1010241FA03FC57
:1051600010EB0C00C3F1200301FA03F100F000433F
:1051700002D5494260EB4000B0F5000F13D3B0F107
:10518000807F06D340084FEA310102F10102FE2A76
:1051900051D2B1F1004F40EBC25008BF20F00100E6
:1051A00040EA03007047490040EB000010F4000F94
:1051B000A2F10102EDD1B0FA80FCACF1080CB2EB27
:1051C0000C0200FA0CF0AABF00EBC2505242184386
:1051D000BCBFD0401843704792F0000F81F400012B
:1051E00006BF80F400000132013BB5E74FEA4103FE
:1051F0007FEA226C18BF7FEA236C21D092EA030F6A
:1052000004D092F0000F08BF0846704790EA010FE3
:105210001CBF0020704712F07F4F04D1400028BF10
:1052200040F00040704712F100723CBF00F50000F2
:10523000704700F0004343F0FE4040F40000704728
:105240007FEA226216BF08467FEA236301464202D4
:1052500006BF5FEA412390EA010F40F480007047E7
:105260004FF0000304E000BF10F0004348BF40428D
:105270005FEA000C08BF704743F0964301464FF0C9
:1052800000001CE050EA010208BF70474FF0000325
:105290000AE000BF50EA010208BF704711F0004366
:1052A00002D5404261EB41015FEA010C02BF844636
:1052B0000146002043F0B64308BFA3F18053A3F595
:1052C0000003BCFA8CF2083AA3EBC25310DB01FADC
:1052D00002FC634400FA02FCC2F12002BCF1004F60
:1052E00020FA02F243EB020008BF20F001007047F1
:1052F00002F1200201FA02FCC2F1200250EA4C0045
:1053000021FA02F243EB020008BF20EADC7070478A
:105310004FF0FF0C1CEAD0521EBF1CEAD15392EA98
:105320000C0F93EA0C0F6FD01A4480EA010C400274
:1053300018BF5FEA41211ED04FF0006343EA5010CE
:1053400043EA5111A0FB01310CF00040B1F5000F10
:105350003EBF490041EAD3715B0040EA010062F1BF
:105360007F02FD2A1DD8B3F1004F40EBC25008BFA9
:1053700020F00100704790F0000F0CF0004C08BFC7
:1053800049024CEA502040EA51207F3AC2BFD2F194
:10539000FF0340EAC250704740F400004FF00003A2
:1053A000013A5DDC12F1190FDCBF00F000407047DC
:1053B000C2F10002410021FA02F1C2F1200200FA1A
:1053C00002FC5FEA310040F1000053EA4C0308BFE1
:1053D00020EADC70704792F0000F00F0004C02BF32
:1053E000400010F4000F013AF9D040EA0C0093F0AD
:1053F000000F01F0004C02BF490011F4000F013B07
:10540000F9D041EA0C018FE70CEAD15392EA0C0F74
:1054100018BF93EA0C0F0AD030F0004C18BF31F0DF
:10542000004CD8D180EA010000F00040704790F0B5
:10543000000F17BF90F0004F084691F0000F91F059
:10544000004F14D092EA0C0F01D142020FD193EA1F
:105450000C0F03D14B0218BF084608D180EA0100A7
:1054600000F0004040F0FE4040F40000704740F083
:10547000FE4040F4400070474FF0FF0C1CEAD05251
:105480001EBF1CEAD15392EA0C0F93EA0C0F69D0AD
:10549000A2EB030280EA010C49024FEA402037D018
:1054A0004FF0805343EA111143EA10130CF000400F
:1054B0008B4238BF5B0042F17D024FF4000C8B42FF
:1054C00024BF5B1A40EA0C00B3EB510F24BFA3EBDF
:1054D000510340EA5C00B3EB910F24BFA3EB9103AF
:1054E00040EA9C00B3EBD10F24BFA3EBD10340EA09
:1054F000DC001B0118BF5FEA1C1CE0D1FD2A3FF64F
:1055000050AF8B4240EBC25008BF20F00100704703
:105510000CF0004C4CEA50207F32C2BFD2F1FF03A6
:1055200040EAC250704740F400004FF00003013AD7
:1055300037E792F0000F00F0004C02BF400010F47B
:10554000000F013AF9D040EA0C0093F0000F01F08F
:10555000004C02BF490011F4000F013BF9D041EAB1
:105560000C0195E70CEAD15392EA0C0F08D14202E4
:105570007FF47DAF93EA0C0F7FF470AF084676E7B7
:1055800093EA0C0F04D14B023FF44CAF08466EE790
:1055900030F0004C18BF31F0004CCAD130F000425E
:1055A0007FF45CAF31F000437FF43CAF5FE700BFB6
:1055B0004FEA4002B2F1FE4F0FD34FF09E03B3EB20
:1055C00012620DD94FEA002343F0004310F0004F60
:1055D00023FA02F018BF404270474FF000007047B6
:1055E00012F1610F01D1420205D110F0004008BF55
:1055F0006FF0004070474FF00000704742000ED23D
:10560000B2F1FE4F0BD34FF09E03B3EB126209D4FD
:105610004FEA002343F0004323FA02F070474FF0B3
:105620000000704712F1610F01D1420202D14FF028
:10563000FF3070474FF00000704700BF70B547F271
:10564000B87647F2B875C0F20006C0F20005761BC6
:10565000B61007D0043D002455F8043F01349847A4
:10566000A642F9D147F2CC7647F2B875C0F20006EF
:10567000C0F20005761B02F099F8B61008D0043D80
:10568000002455F8043F01349847A642F9D170BD73
:1056900070BD00BF48F6A4430146C1F6FF73186809
:1056A00000F008B848F6A4430146C1F6FF73186835
:1056B00001F01AB82DE9F04F01F10B04162C83B05C
:1056C000074630D924F00704E30F8C422CBF19465B
:1056D00043F0010100292FD1384600F0D7FBB4F583
:1056E000FC7F2ED24FEAD40C48F69406C1F6FF7622
:1056F00006EBCC02D368934200F01182596803F1A3
:105700000808DA68384621F0030499681B195C68B8
:10571000CA6044F0010491605C6000F0B9FB40464F
:1057200003B0BDE8F08F002310248C422CBF194633
:1057300043F001010029CFD00C234FF000083B605B
:10574000EDE75FEA542C04BF4FEAD40C4FEA4C0556
:1057500040F08F8048F69406C1F6FF7606EB85058B
:10576000EB689D4206D10DE0002A80F25581DB688E
:105770009D4207D0596821F003010A1B0F2AF3DD6F
:105780000CF1FF3C0CF1010C48F694023369C1F6B0
:10579000FF7202F1080E734508BFD2F8049022D0C0
:1057A000586820F00300011B0F2900F384810029B1
:1057B000C2F814E0C2F810E066DAB0F5007F80F0BD
:1057C0004E81C1084FF0010802EBC100891008FAB0
:1057D00001F851688568D86048EA0109C2F8049068
:1057E0009D60EB60836001224FEAAC0302FA03F391
:1057F0004B4554D819EA030F0DD193402CF0030CFC
:1058000019EA030F0CF1040C05D15B000CF1040C38
:1058100019EA030FF9D006EBCC09E0464846C26806
:10582000904207D15BE1002980F28381D2689042E7
:1058300000F05581556825F00305291B0F29F2DD7D
:1058400090461319D56844F0010058F8084F41F00C
:10585000010C50603846C3F804C0E560AC60736169
:105860003361C3F80CE0C3F808E0595000F010FBB6
:1058700055E7BCF1040F00F2DE804FEA941C0CF1F6
:10588000380C4FEA4C0565E71A1803F1080838464A
:10589000536843F00103536000F0FAFA3FE7B5683C
:1058A0006B6823F0030A544504D8C4EB0A030F2B9A
:1058B00000F3A48049F22849D6F80814C1F6FF790C
:1058C00005EB0A020131D9F80030234408BF03F187
:1058D000100B06D003F580530F3323F47F6323F0BE
:1058E0000F0B38465946019200F0C4FC019A411C46
:1058F000804600F06881824200F23181D9F804309C
:1059000042455B44C9F8043000F06681D6F80814BB
:1059100048F69400C1F6FF70013117BFC2EB0802D0
:10592000C0F808849B18C9F8043018F007033846FB
:105930001FBFC3F10802C3F58053904403F108026E
:1059400008EB0B0308BF4FF480521B051B0DC3EB84
:10595000020B594600F08EFC431C00F04981C8EB55
:105960000001594441F00101D9F80430B54249F22F
:105970002842C6F808805B44C1F6FF72C8F80410DC
:10598000C9F8043018D0BAF10F0F40F20B81AAF118
:105990000C00696820F007004FF0050C05EB000EC5
:1059A0000F2801F0010140EA01016960CEF804C04E
:1059B000CEF808C000F2208149F22842D9F82C1014
:1059C000C1F6FF72B5688B42D9F8301088BFD36238
:1059D00049F22842C1F6FF728B4288BF13636A689E
:1059E00022F003029442C4EB020301D80F2B05DC22
:1059F00038464FF0000800F04BFA90E62A1943F0C1
:105A0000010344F0010438466C6005F10808536056
:105A1000B26000F03DFA82E65918DA689C683846B0
:105A20004D6803F1080845F00105E26094604D609F
:105A300000F02EFA73E6BCF1140F9CBF0CF15B0C66
:105A40004FEA4C057FF686AEBCF1540F00F293800E
:105A50004FEA143C0CF16E0C4FEA4C057AE6420A10
:105A6000042A75D9142A9CBF02F15B094FEA490543
:105A700008D9542A00F2C9804FEA103909F16E0999
:105A80004FEA490506EB850548F69408C1F6FF780C
:105A9000AA68AA4279D0516821F00301884202D253
:105AA00092689542F7D1D068D6F80490D8609A6091
:105AB000D360836097E61D1941F00106556144F0FB
:105AC0000104156138465C6003F10808C5F80CE074
:105AD000C5F808E06E60695000F0DAF91FE608F1D9
